{
  "_format": "hh-sol-artifact-1",
  "contractName": "StrategyCoordinator",
  "sourceName": "contracts/StrategyCoordinator.sol",
  "abi": [
    {
      "inputs": [
        {
          "internalType": "address",
          "name": "_strategyAave",
          "type": "address"
        },
        {
          "internalType": "address",
          "name": "_strategyCompound",
          "type": "address"
        }
      ],
      "stateMutability": "nonpayable",
      "type": "constructor"
    },
    {
      "inputs": [],
      "name": "InvalidAddress",
      "type": "error"
    },
    {
      "inputs": [],
      "name": "InvalidAmount",
      "type": "error"
    },
    {
      "inputs": [],
      "name": "OnlyVault",
      "type": "error"
    },
    {
      "inputs": [
        {
          "internalType": "address",
          "name": "owner",
          "type": "address"
        }
      ],
      "name": "OwnableInvalidOwner",
      "type": "error"
    },
    {
      "inputs": [
        {
          "internalType": "address",
          "name": "account",
          "type": "address"
        }
      ],
      "name": "OwnableUnauthorizedAccount",
      "type": "error"
    },
    {
      "inputs": [],
      "name": "ReentrancyGuardReentrantCall",
      "type": "error"
    },
    {
      "inputs": [],
      "name": "UnsupportedToken",
      "type": "error"
    },
    {
      "anonymous": false,
      "inputs": [
        {
          "indexed": true,
          "internalType": "address",
          "name": "token",
          "type": "address"
        },
        {
          "indexed": false,
          "internalType": "uint256",
          "name": "amount",
          "type": "uint256"
        },
        {
          "indexed": false,
          "internalType": "enum StrategyCoordinator.StrategyType",
          "name": "strategyType",
          "type": "uint8"
        }
      ],
      "name": "Deposit",
      "type": "event"
    },
    {
      "anonymous": false,
      "inputs": [
        {
          "indexed": true,
          "internalType": "address",
          "name": "previousOwner",
          "type": "address"
        },
        {
          "indexed": true,
          "internalType": "address",
          "name": "newOwner",
          "type": "address"
        }
      ],
      "name": "OwnershipTransferred",
      "type": "event"
    },
    {
      "anonymous": false,
      "inputs": [
        {
          "indexed": true,
          "internalType": "address",
          "name": "token",
          "type": "address"
        },
        {
          "indexed": false,
          "internalType": "enum StrategyCoordinator.StrategyType",
          "name": "strategyType",
          "type": "uint8"
        }
      ],
      "name": "StrategyUpdated",
      "type": "event"
    },
    {
      "anonymous": false,
      "inputs": [
        {
          "indexed": true,
          "internalType": "address",
          "name": "token",
          "type": "address"
        },
        {
          "indexed": false,
          "internalType": "uint256",
          "name": "amount",
          "type": "uint256"
        },
        {
          "indexed": false,
          "internalType": "enum StrategyCoordinator.StrategyType",
          "name": "strategyType",
          "type": "uint8"
        }
      ],
      "name": "Withdrawal",
      "type": "event"
    },
    {
      "inputs": [
        {
          "internalType": "address",
          "name": "_token",
          "type": "address"
        },
        {
          "internalType": "uint256",
          "name": "_amount",
          "type": "uint256"
        }
      ],
      "name": "deposit",
      "outputs": [],
      "stateMutability": "nonpayable",
      "type": "function"
    },
    {
      "inputs": [
        {
          "internalType": "address",
          "name": "_token",
          "type": "address"
        }
      ],
      "name": "emergencyWithdraw",
      "outputs": [],
      "stateMutability": "nonpayable",
      "type": "function"
    },
    {
      "inputs": [
        {
          "internalType": "address",
          "name": "_token",
          "type": "address"
        }
      ],
      "name": "getStrategyAPY",
      "outputs": [
        {
          "internalType": "uint256",
          "name": "apy",
          "type": "uint256"
        }
      ],
      "stateMutability": "view",
      "type": "function"
    },
    {
      "inputs": [
        {
          "internalType": "address",
          "name": "_token",
          "type": "address"
        }
      ],
      "name": "getStrategyBalance",
      "outputs": [
        {
          "internalType": "uint256",
          "name": "",
          "type": "uint256"
        }
      ],
      "stateMutability": "view",
      "type": "function"
    },
    {
      "inputs": [],
      "name": "getSupportedTokens",
      "outputs": [
        {
          "internalType": "address[]",
          "name": "",
          "type": "address[]"
        }
      ],
      "stateMutability": "view",
      "type": "function"
    },
    {
      "inputs": [
        {
          "internalType": "address",
          "name": "_token",
          "type": "address"
        }
      ],
      "name": "getTotalTokenBalance",
      "outputs": [
        {
          "internalType": "uint256",
          "name": "",
          "type": "uint256"
        }
      ],
      "stateMutability": "view",
      "type": "function"
    },
    {
      "inputs": [
        {
          "internalType": "address",
          "name": "_priceFeedManager",
          "type": "address"
        },
        {
          "internalType": "address[]",
          "name": "_supportedTokens",
          "type": "address[]"
        }
      ],
      "name": "getTotalUsdValue",
      "outputs": [
        {
          "internalType": "uint256",
          "name": "totalUsdValue",
          "type": "uint256"
        }
      ],
      "stateMutability": "view",
      "type": "function"
    },
    {
      "inputs": [],
      "name": "owner",
      "outputs": [
        {
          "internalType": "address",
          "name": "",
          "type": "address"
        }
      ],
      "stateMutability": "view",
      "type": "function"
    },
    {
      "inputs": [],
      "name": "renounceOwnership",
      "outputs": [],
      "stateMutability": "nonpayable",
      "type": "function"
    },
    {
      "inputs": [
        {
          "internalType": "address",
          "name": "_token",
          "type": "address"
        },
        {
          "internalType": "enum StrategyCoordinator.StrategyType",
          "name": "_strategyType",
          "type": "uint8"
        }
      ],
      "name": "setStrategyForToken",
      "outputs": [],
      "stateMutability": "nonpayable",
      "type": "function"
    },
    {
      "inputs": [],
      "name": "strategyAave",
      "outputs": [
        {
          "internalType": "contract StrategyAave",
          "name": "",
          "type": "address"
        }
      ],
      "stateMutability": "view",
      "type": "function"
    },
    {
      "inputs": [],
      "name": "strategyCompound",
      "outputs": [
        {
          "internalType": "contract StrategyCompoundComet",
          "name": "",
          "type": "address"
        }
      ],
      "stateMutability": "view",
      "type": "function"
    },
    {
      "inputs": [
        {
          "internalType": "address",
          "name": "",
          "type": "address"
        }
      ],
      "name": "supportedTokens",
      "outputs": [
        {
          "internalType": "bool",
          "name": "",
          "type": "bool"
        }
      ],
      "stateMutability": "view",
      "type": "function"
    },
    {
      "inputs": [
        {
          "internalType": "address",
          "name": "",
          "type": "address"
        }
      ],
      "name": "tokenToStrategy",
      "outputs": [
        {
          "internalType": "enum StrategyCoordinator.StrategyType",
          "name": "",
          "type": "uint8"
        }
      ],
      "stateMutability": "view",
      "type": "function"
    },
    {
      "inputs": [
        {
          "internalType": "address",
          "name": "newOwner",
          "type": "address"
        }
      ],
      "name": "transferOwnership",
      "outputs": [],
      "stateMutability": "nonpayable",
      "type": "function"
    },
    {
      "inputs": [
        {
          "internalType": "address",
          "name": "_vault",
          "type": "address"
        }
      ],
      "name": "updateVaultAddress",
      "outputs": [],
      "stateMutability": "nonpayable",
      "type": "function"
    },
    {
      "inputs": [],
      "name": "vault",
      "outputs": [
        {
          "internalType": "address",
          "name": "",
          "type": "address"
        }
      ],
      "stateMutability": "view",
      "type": "function"
    },
    {
      "inputs": [
        {
          "internalType": "address",
          "name": "_token",
          "type": "address"
        },
        {
          "internalType": "uint256",
          "name": "_amount",
          "type": "uint256"
        }
      ],
      "name": "withdraw",
      "outputs": [],
      "stateMutability": "nonpayable",
      "type": "function"
    }
  ],
  "bytecode": "0x608060405234801561001057600080fd5b50604051611c95380380611c9583398101604081905261002f9161013b565b338061005557604051631e4fbdf760e01b81526000600482015260240160405180910390fd5b61005e816100cf565b50600180556001600160a01b038216158061008057506001600160a01b038116155b1561009e5760405163e6c4247b60e01b815260040160405180910390fd5b600380546001600160a01b039384166001600160a01b0319918216179091556004805492909316911617905561016e565b600080546001600160a01b038381166001600160a01b0319831681178455604051919092169283917f8be0079c531659141344cd1fd0a4f28419497f9722a3daafe3b4186f6b6457e09190a35050565b80516001600160a01b038116811461013657600080fd5b919050565b6000806040838503121561014e57600080fd5b6101578361011f565b91506101656020840161011f565b90509250929050565b611b188061017d6000396000f3fe608060405234801561001057600080fd5b50600436106101165760003560e01c8063a6e19264116100a2578063d3c7c2c711610071578063d3c7c2c714610273578063d597cf8914610288578063f2fde38b1461029b578063f3fef3a3146102ae578063fbfa77cf146102c157600080fd5b8063a6e1926414610227578063adad19bd1461023a578063af74102a1461024d578063d2de2f851461026057600080fd5b80636ff1c9bc116100e95780636ff1c9bc146101bd578063715018a6146101d057806375089343146101d8578063876a31ea146101eb5780638da5cb5b1461021657600080fd5b80633c33c1791461011b57806347e7ef24146101545780636730ed121461016957806368c4ac261461018a575b600080fd5b61013e61012936600461181d565b60056020526000908152604090205460ff1681565b60405161014b9190611870565b60405180910390f35b61016761016236600461187e565b6102d4565b005b61017c61017736600461181d565b610633565b60405190815260200161014b565b6101ad61019836600461181d565b60066020526000908152604090205460ff1681565b604051901515815260200161014b565b6101676101cb36600461181d565b61075b565b610167610a55565b61017c6101e63660046118be565b610a69565b6004546101fe906001600160a01b031681565b6040516001600160a01b03909116815260200161014b565b6000546001600160a01b03166101fe565b6101676102353660046119a1565b610c0c565b61017c61024836600461181d565b610ea1565b6003546101fe906001600160a01b031681565b61016761026e36600461181d565b611082565b61027b6110d3565b60405161014b91906119dc565b61017c61029636600461181d565b611135565b6101676102a936600461181d565b611210565b6101676102bc36600461187e565b611253565b6002546101fe906001600160a01b031681565b6002546001600160a01b031633146102ff57604051638d1af8bd60e01b815260040160405180910390fd5b61030761175a565b6001600160a01b03821660009081526006602052604090205460ff166103405760405163350b944160e11b815260040160405180910390fd5b806000036103615760405163162908e360e11b815260040160405180910390fd5b6001600160a01b03828116600081815260056020526040908190205460025491516323b872dd60e01b81529190931660048201523060248201526044810184905260ff909216916323b872dd906064016020604051808303816000875af11580156103d0573d6000803e3d6000fd5b505050506040513d601f19601f820116820180604052508101906103f49190611a28565b50600081600181111561040957610409611838565b036104ef5760035460405163095ea7b360e01b81526001600160a01b038581169263095ea7b39261044292909116908690600401611a4a565b6020604051808303816000875af1158015610461573d6000803e3d6000fd5b505050506040513d601f19601f820116820180604052508101906104859190611a28565b506003546040516311f9fbc960e21b81526001600160a01b03909116906347e7ef24906104b89086908690600401611a4a565b600060405180830381600087803b1580156104d257600080fd5b505af11580156104e6573d6000803e3d6000fd5b505050506105e2565b600181600181111561050357610503611838565b036105e2576004805460405163095ea7b360e01b81526001600160a01b038087169363095ea7b39361053a93921691879101611a4a565b6020604051808303816000875af1158015610559573d6000803e3d6000fd5b505050506040513d601f19601f8201168201806040525081019061057d9190611a28565b50600480546040516311f9fbc960e21b81526001600160a01b03909116916347e7ef24916105af918791879101611a4a565b600060405180830381600087803b1580156105c957600080fd5b505af11580156105dd573d6000803e3d6000fd5b505050505b826001600160a01b03167ff763e680fce25a97ffd55d8b705370c98b47b2285f7b3b2900c43606fd418045838360405161061d929190611a63565b60405180910390a25061062f60018055565b5050565b6001600160a01b03811660009081526006602052604081205460ff1661065b57506000919050565b6001600160a01b03821660009081526005602052604081205460ff169081600181111561068a5761068a611838565b036107055760035460405163545dc19760e11b81526001600160a01b0385811660048301529091169063a8bb832e906024015b602060405180830381865afa1580156106da573d6000803e3d6000fd5b505050506040513d601f19601f820116820180604052508101906106fe9190611a77565b9392505050565b600181600181111561071957610719611838565b03610752576004805460405163545dc19760e11b81526001600160a01b038681169382019390935291169063a8bb832e906024016106bd565b50600092915050565b610763611784565b6001600160a01b03811660009081526005602052604081205460ff169081600181111561079257610792611838565b03610871576003546040516370a0823160e01b81526001600160a01b03848116600483015260009216906370a0823190602401602060405180830381865afa1580156107e2573d6000803e3d6000fd5b505050506040513d601f19601f820116820180604052508101906108069190611a77565b60035460405163f3fef3a360e01b81529192506001600160a01b03169063f3fef3a3906108399086908590600401611a4a565b600060405180830381600087803b15801561085357600080fd5b505af1158015610867573d6000803e3d6000fd5b5050505050610964565b600181600181111561088557610885611838565b0361096457600480546040516370a0823160e01b81526001600160a01b0385811693820193909352600092909116906370a0823190602401602060405180830381865afa1580156108da573d6000803e3d6000fd5b505050506040513d601f19601f820116820180604052508101906108fe9190611a77565b6004805460405163f3fef3a360e01b81529293506001600160a01b03169163f3fef3a391610930918791869101611a4a565b600060405180830381600087803b15801561094a57600080fd5b505af115801561095e573d6000803e3d6000fd5b50505050505b6040516370a0823160e01b81523060048201526000906001600160a01b038416906370a0823190602401602060405180830381865afa1580156109ab573d6000803e3d6000fd5b505050506040513d601f19601f820116820180604052508101906109cf9190611a77565b90508015610a505760025460405163a9059cbb60e01b81526001600160a01b038581169263a9059cbb92610a0b92909116908590600401611a4a565b6020604051808303816000875af1158015610a2a573d6000803e3d6000fd5b505050506040513d601f19601f82011682018060405250810190610a4e9190611a28565b505b505050565b610a5d611784565b610a6760006117b1565b565b600082815b8351811015610c03576000848281518110610a8b57610a8b611a90565b60209081029190910101516040516305bcc1d160e11b81526001600160a01b03808316600483015291925090841690630b7983a290602401602060405180830381865afa158015610ae0573d6000803e3d6000fd5b505050506040513d601f19601f82011682018060405250810190610b049190611a28565b15610bfa5760405163adad19bd60e01b81526001600160a01b0382166004820152600090309063adad19bd90602401602060405180830381865afa158015610b50573d6000803e3d6000fd5b505050506040513d601f19601f82011682018060405250810190610b749190611a77565b90508015610bf85760405163864bc41960e01b81526001600160a01b0385169063864bc41990610baa9085908590600401611a4a565b602060405180830381865afa158015610bc7573d6000803e3d6000fd5b505050506040513d601f19601f82011682018060405250810190610beb9190611a77565b610bf59086611abc565b94505b505b50600101610a6e565b50505b92915050565b610c14611784565b6001600160a01b038216610c3b5760405163e6c4247b60e01b815260040160405180910390fd5b6000816001811115610c4f57610c4f611838565b03610ce4576003546040516375151b6360e01b81526001600160a01b038481166004830152909116906375151b6390602401602060405180830381865afa158015610c9e573d6000803e3d6000fd5b505050506040513d601f19601f82011682018060405250810190610cc29190611a28565b610cdf5760405163350b944160e11b815260040160405180910390fd5b610d8a565b6001816001811115610cf857610cf8611838565b03610d8a5760048054604051633462561360e11b81526001600160a01b03858116938201939093529116906368c4ac2690602401602060405180830381865afa158015610d49573d6000803e3d6000fd5b505050506040513d601f19601f82011682018060405250810190610d6d9190611a28565b610d8a5760405163350b944160e11b815260040160405180910390fd5b6001600160a01b0382166000908152600660209081526040808320805460ff19166001179055600890915290205460ff16610e23576007805460018082019092557fa66cc928b5edb82af9bd49922954155ab7b0942694bea4ce44661d9a8736c6880180546001600160a01b0319166001600160a01b0385169081179091556000908152600860205260409020805460ff191690911790555b6001600160a01b0382166000908152600560205260409020805482919060ff191660018381811115610e5757610e57611838565b0217905550816001600160a01b03167f13696623477a91bb62975bf0629428245d824d0f3cec6e5712775d450df31a7582604051610e959190611870565b60405180910390a25050565b6003546040516375151b6360e01b81526001600160a01b03838116600483015260009283929116906375151b6390602401602060405180830381865afa158015610eef573d6000803e3d6000fd5b505050506040513d601f19601f82011682018060405250810190610f139190611a28565b15610f93576003546040516370a0823160e01b81526001600160a01b038581166004830152909116906370a0823190602401602060405180830381865afa158015610f62573d6000803e3d6000fd5b505050506040513d601f19601f82011682018060405250810190610f869190611a77565b610f909082611abc565b90505b60048054604051633462561360e11b81526001600160a01b03868116938201939093529116906368c4ac2690602401602060405180830381865afa158015610fdf573d6000803e3d6000fd5b505050506040513d601f19601f820116820180604052508101906110039190611a28565b15610c0657600480546040516370a0823160e01b81526001600160a01b03868116938201939093529116906370a0823190602401602060405180830381865afa158015611054573d6000803e3d6000fd5b505050506040513d601f19601f820116820180604052508101906110789190611a77565b6106fe9082611abc565b61108a611784565b6001600160a01b0381166110b15760405163e6c4247b60e01b815260040160405180910390fd5b600280546001600160a01b0319166001600160a01b0392909216919091179055565b6060600780548060200260200160405190810160405280929190818152602001828054801561112b57602002820191906000526020600020905b81546001600160a01b0316815260019091019060200180831161110d575b5050505050905090565b6001600160a01b03811660009081526006602052604081205460ff1661115d57506000919050565b6001600160a01b03821660009081526005602052604081205460ff169081600181111561118c5761118c611838565b036111c3576003546040516370a0823160e01b81526001600160a01b038581166004830152909116906370a08231906024016106bd565b60018160018111156111d7576111d7611838565b0361075257600480546040516370a0823160e01b81526001600160a01b03868116938201939093529116906370a08231906024016106bd565b611218611784565b6001600160a01b03811661124757604051631e4fbdf760e01b8152600060048201526024015b60405180910390fd5b611250816117b1565b50565b6002546001600160a01b0316331461127e57604051638d1af8bd60e01b815260040160405180910390fd5b61128661175a565b6001600160a01b03821660009081526006602052604090205460ff166112bf5760405163350b944160e11b815260040160405180910390fd5b806000036112e05760405163162908e360e11b815260040160405180910390fd5b6001600160a01b03821660009081526005602052604081205460ff169081600181111561130f5761130f611838565b036114d1576003546040516370a0823160e01b81526001600160a01b03858116600483015260009216906370a0823190602401602060405180830381865afa15801561135f573d6000803e3d6000fd5b505050506040513d601f19601f820116820180604052508101906113839190611a77565b90508281106113f55760035460405163f3fef3a360e01b81526001600160a01b039091169063f3fef3a3906113be9087908790600401611a4a565b600060405180830381600087803b1580156113d857600080fd5b505af11580156113ec573d6000803e3d6000fd5b505050506114cb565b60006114018285611acf565b60035460405163f3fef3a360e01b81529192506001600160a01b03169063f3fef3a3906114349088908690600401611a4a565b600060405180830381600087803b15801561144e57600080fd5b505af1158015611462573d6000803e3d6000fd5b50506004805460405163f3fef3a360e01b81526001600160a01b03909116935063f3fef3a39250611497918991869101611a4a565b600060405180830381600087803b1580156114b157600080fd5b505af11580156114c5573d6000803e3d6000fd5b50505050505b506116a7565b60018160018111156114e5576114e5611838565b036116a757600480546040516370a0823160e01b81526001600160a01b0386811693820193909352600092909116906370a0823190602401602060405180830381865afa15801561153a573d6000803e3d6000fd5b505050506040513d601f19601f8201168201806040525081019061155e9190611a77565b90508281106115cf576004805460405163f3fef3a360e01b81526001600160a01b039091169163f3fef3a391611598918891889101611a4a565b600060405180830381600087803b1580156115b257600080fd5b505af11580156115c6573d6000803e3d6000fd5b505050506116a5565b60006115db8285611acf565b6004805460405163f3fef3a360e01b81529293506001600160a01b03169163f3fef3a39161160d918991879101611a4a565b600060405180830381600087803b15801561162757600080fd5b505af115801561163b573d6000803e3d6000fd5b505060035460405163f3fef3a360e01b81526001600160a01b03909116925063f3fef3a391506116719088908590600401611a4a565b600060405180830381600087803b15801561168b57600080fd5b505af115801561169f573d6000803e3d6000fd5b50505050505b505b60025460405163a9059cbb60e01b81526001600160a01b038581169263a9059cbb926116db92909116908690600401611a4a565b6020604051808303816000875af11580156116fa573d6000803e3d6000fd5b505050506040513d601f19601f8201168201806040525081019061171e9190611a28565b50826001600160a01b03167f160fe0cc604b665554dd642ca246d28d4e9158d16008da789ab5b6462f594777838360405161061d929190611a63565b60026001540361177d57604051633ee5aeb560e01b815260040160405180910390fd5b6002600155565b6000546001600160a01b03163314610a675760405163118cdaa760e01b815233600482015260240161123e565b600080546001600160a01b038381166001600160a01b0319831681178455604051919092169283917f8be0079c531659141344cd1fd0a4f28419497f9722a3daafe3b4186f6b6457e09190a35050565b80356001600160a01b038116811461181857600080fd5b919050565b60006020828403121561182f57600080fd5b6106fe82611801565b634e487b7160e01b600052602160045260246000fd5b6002811061186c57634e487b7160e01b600052602160045260246000fd5b9052565b60208101610c06828461184e565b6000806040838503121561189157600080fd5b61189a83611801565b946020939093013593505050565b634e487b7160e01b600052604160045260246000fd5b600080604083850312156118d157600080fd5b6118da83611801565b9150602083013567ffffffffffffffff8111156118f657600080fd5b8301601f8101851361190757600080fd5b803567ffffffffffffffff811115611921576119216118a8565b8060051b604051601f19603f830116810181811067ffffffffffffffff8211171561194e5761194e6118a8565b60405291825260208184018101929081018884111561196c57600080fd5b6020850194505b838510156119925761198485611801565b815260209485019401611973565b50809450505050509250929050565b600080604083850312156119b457600080fd5b6119bd83611801565b91506020830135600281106119d157600080fd5b809150509250929050565b602080825282518282018190526000918401906040840190835b81811015611a1d5783516001600160a01b03168352602093840193909201916001016119f6565b509095945050505050565b600060208284031215611a3a57600080fd5b815180151581146106fe57600080fd5b6001600160a01b03929092168252602082015260400190565b828152604081016106fe602083018461184e565b600060208284031215611a8957600080fd5b5051919050565b634e487b7160e01b600052603260045260246000fd5b634e487b7160e01b600052601160045260246000fd5b80820180821115610c0657610c06611aa6565b81810381811115610c0657610c06611aa656fea2646970667358221220f2b456fab80795c8296a08d3096023ca22b4b8a6768057705ea3b728afabf15d64736f6c634300081c0033",
  "linkReferences": {},
  "deployedLinkReferences": {}
}