{
  "_format": "hh-sol-artifact-1",
  "contractName": "StrategyAave",
  "sourceName": "contracts/strategies/StrategyAave.sol",
  "abi": [
    {
      "inputs": [],
      "stateMutability": "nonpayable",
      "type": "constructor"
    },
    {
      "inputs": [],
      "name": "InvalidAddress",
      "type": "error"
    },
    {
      "inputs": [],
      "name": "InvalidAmount",
      "type": "error"
    },
    {
      "inputs": [],
      "name": "NoPoolForToken",
      "type": "error"
    },
    {
      "inputs": [
        {
          "internalType": "address",
          "name": "owner",
          "type": "address"
        }
      ],
      "name": "OwnableInvalidOwner",
      "type": "error"
    },
    {
      "inputs": [
        {
          "internalType": "address",
          "name": "account",
          "type": "address"
        }
      ],
      "name": "OwnableUnauthorizedAccount",
      "type": "error"
    },
    {
      "inputs": [],
      "name": "ReentrancyGuardReentrantCall",
      "type": "error"
    },
    {
      "inputs": [
        {
          "internalType": "address",
          "name": "token",
          "type": "address"
        }
      ],
      "name": "SafeERC20FailedOperation",
      "type": "error"
    },
    {
      "inputs": [],
      "name": "SameCoordinator",
      "type": "error"
    },
    {
      "inputs": [],
      "name": "TokenSupportUnchanged",
      "type": "error"
    },
    {
      "inputs": [],
      "name": "UnsupportedToken",
      "type": "error"
    },
    {
      "inputs": [],
      "name": "UnsupportedTokenForPool",
      "type": "error"
    },
    {
      "anonymous": false,
      "inputs": [
        {
          "indexed": true,
          "internalType": "address",
          "name": "pool",
          "type": "address"
        }
      ],
      "name": "AavePoolUpdated",
      "type": "event"
    },
    {
      "anonymous": false,
      "inputs": [
        {
          "indexed": true,
          "internalType": "address",
          "name": "coordinator",
          "type": "address"
        }
      ],
      "name": "CoordinatorUpdated",
      "type": "event"
    },
    {
      "anonymous": false,
      "inputs": [
        {
          "indexed": true,
          "internalType": "address",
          "name": "token",
          "type": "address"
        },
        {
          "indexed": false,
          "internalType": "uint256",
          "name": "amount",
          "type": "uint256"
        },
        {
          "indexed": false,
          "internalType": "uint256",
          "name": "totalDeposited",
          "type": "uint256"
        }
      ],
      "name": "Deposited",
      "type": "event"
    },
    {
      "anonymous": false,
      "inputs": [
        {
          "indexed": true,
          "internalType": "address",
          "name": "previousOwner",
          "type": "address"
        },
        {
          "indexed": true,
          "internalType": "address",
          "name": "newOwner",
          "type": "address"
        }
      ],
      "name": "OwnershipTransferred",
      "type": "event"
    },
    {
      "anonymous": false,
      "inputs": [
        {
          "indexed": true,
          "internalType": "address",
          "name": "token",
          "type": "address"
        },
        {
          "indexed": false,
          "internalType": "bool",
          "name": "status",
          "type": "bool"
        }
      ],
      "name": "TokenSupportUpdated",
      "type": "event"
    },
    {
      "anonymous": false,
      "inputs": [
        {
          "indexed": true,
          "internalType": "address",
          "name": "token",
          "type": "address"
        },
        {
          "indexed": false,
          "internalType": "uint256",
          "name": "amount",
          "type": "uint256"
        },
        {
          "indexed": false,
          "internalType": "uint256",
          "name": "totalWithdrawn",
          "type": "uint256"
        }
      ],
      "name": "Withdrawn",
      "type": "event"
    },
    {
      "inputs": [],
      "name": "aavePool",
      "outputs": [
        {
          "internalType": "address",
          "name": "",
          "type": "address"
        }
      ],
      "stateMutability": "view",
      "type": "function"
    },
    {
      "inputs": [
        {
          "internalType": "address",
          "name": "_token",
          "type": "address"
        }
      ],
      "name": "addSupportedToken",
      "outputs": [],
      "stateMutability": "nonpayable",
      "type": "function"
    },
    {
      "inputs": [
        {
          "internalType": "address",
          "name": "_token",
          "type": "address"
        }
      ],
      "name": "balanceOf",
      "outputs": [
        {
          "internalType": "uint256",
          "name": "",
          "type": "uint256"
        }
      ],
      "stateMutability": "view",
      "type": "function"
    },
    {
      "inputs": [],
      "name": "coordinator",
      "outputs": [
        {
          "internalType": "address",
          "name": "",
          "type": "address"
        }
      ],
      "stateMutability": "view",
      "type": "function"
    },
    {
      "inputs": [
        {
          "internalType": "address",
          "name": "_token",
          "type": "address"
        },
        {
          "internalType": "uint256",
          "name": "_amount",
          "type": "uint256"
        }
      ],
      "name": "deposit",
      "outputs": [],
      "stateMutability": "nonpayable",
      "type": "function"
    },
    {
      "inputs": [
        {
          "internalType": "address",
          "name": "_token",
          "type": "address"
        }
      ],
      "name": "getAccruedRewards",
      "outputs": [
        {
          "internalType": "uint256",
          "name": "rewards",
          "type": "uint256"
        }
      ],
      "stateMutability": "view",
      "type": "function"
    },
    {
      "inputs": [],
      "name": "getAllTokenAnalytics",
      "outputs": [
        {
          "internalType": "address[]",
          "name": "tokens",
          "type": "address[]"
        },
        {
          "internalType": "uint256[6][]",
          "name": "analytics",
          "type": "uint256[6][]"
        }
      ],
      "stateMutability": "view",
      "type": "function"
    },
    {
      "inputs": [
        {
          "internalType": "address",
          "name": "_token",
          "type": "address"
        }
      ],
      "name": "getCurrentAPY",
      "outputs": [
        {
          "internalType": "uint256",
          "name": "apy",
          "type": "uint256"
        }
      ],
      "stateMutability": "view",
      "type": "function"
    },
    {
      "inputs": [],
      "name": "getSupportedTokens",
      "outputs": [
        {
          "internalType": "address[]",
          "name": "",
          "type": "address[]"
        }
      ],
      "stateMutability": "view",
      "type": "function"
    },
    {
      "inputs": [
        {
          "internalType": "address",
          "name": "_token",
          "type": "address"
        }
      ],
      "name": "getTokenAnalytics",
      "outputs": [
        {
          "internalType": "uint256",
          "name": "currentBalance",
          "type": "uint256"
        },
        {
          "internalType": "uint256",
          "name": "totalDeposits",
          "type": "uint256"
        },
        {
          "internalType": "uint256",
          "name": "totalWithdrawals",
          "type": "uint256"
        },
        {
          "internalType": "uint256",
          "name": "netDeposits",
          "type": "uint256"
        },
        {
          "internalType": "uint256",
          "name": "accruedRewards",
          "type": "uint256"
        },
        {
          "internalType": "uint256",
          "name": "currentAPY",
          "type": "uint256"
        }
      ],
      "stateMutability": "view",
      "type": "function"
    },
    {
      "inputs": [
        {
          "internalType": "address",
          "name": "",
          "type": "address"
        }
      ],
      "name": "isTokenSupported",
      "outputs": [
        {
          "internalType": "bool",
          "name": "",
          "type": "bool"
        }
      ],
      "stateMutability": "view",
      "type": "function"
    },
    {
      "inputs": [],
      "name": "owner",
      "outputs": [
        {
          "internalType": "address",
          "name": "",
          "type": "address"
        }
      ],
      "stateMutability": "view",
      "type": "function"
    },
    {
      "inputs": [
        {
          "internalType": "address",
          "name": "_token",
          "type": "address"
        }
      ],
      "name": "removeSupportedToken",
      "outputs": [],
      "stateMutability": "nonpayable",
      "type": "function"
    },
    {
      "inputs": [],
      "name": "renounceOwnership",
      "outputs": [],
      "stateMutability": "nonpayable",
      "type": "function"
    },
    {
      "inputs": [
        {
          "internalType": "address",
          "name": "_pool",
          "type": "address"
        }
      ],
      "name": "setAavePool",
      "outputs": [],
      "stateMutability": "nonpayable",
      "type": "function"
    },
    {
      "inputs": [
        {
          "internalType": "address",
          "name": "_coordinator",
          "type": "address"
        }
      ],
      "name": "setCoordinator",
      "outputs": [],
      "stateMutability": "nonpayable",
      "type": "function"
    },
    {
      "inputs": [
        {
          "internalType": "uint256",
          "name": "",
          "type": "uint256"
        }
      ],
      "name": "supportedTokens",
      "outputs": [
        {
          "internalType": "address",
          "name": "",
          "type": "address"
        }
      ],
      "stateMutability": "view",
      "type": "function"
    },
    {
      "inputs": [
        {
          "internalType": "address",
          "name": "",
          "type": "address"
        }
      ],
      "name": "tokenToAToken",
      "outputs": [
        {
          "internalType": "address",
          "name": "",
          "type": "address"
        }
      ],
      "stateMutability": "view",
      "type": "function"
    },
    {
      "inputs": [
        {
          "internalType": "address",
          "name": "",
          "type": "address"
        }
      ],
      "name": "totalDeposited",
      "outputs": [
        {
          "internalType": "uint256",
          "name": "",
          "type": "uint256"
        }
      ],
      "stateMutability": "view",
      "type": "function"
    },
    {
      "inputs": [
        {
          "internalType": "address",
          "name": "",
          "type": "address"
        }
      ],
      "name": "totalWithdrawn",
      "outputs": [
        {
          "internalType": "uint256",
          "name": "",
          "type": "uint256"
        }
      ],
      "stateMutability": "view",
      "type": "function"
    },
    {
      "inputs": [
        {
          "internalType": "address",
          "name": "newOwner",
          "type": "address"
        }
      ],
      "name": "transferOwnership",
      "outputs": [],
      "stateMutability": "nonpayable",
      "type": "function"
    },
    {
      "inputs": [
        {
          "internalType": "address",
          "name": "_token",
          "type": "address"
        },
        {
          "internalType": "uint256",
          "name": "_amount",
          "type": "uint256"
        }
      ],
      "name": "withdraw",
      "outputs": [],
      "stateMutability": "nonpayable",
      "type": "function"
    }
  ],
  "bytecode": "0x6080604052348015600f57600080fd5b50600180553380603957604051631e4fbdf760e01b81526000600482015260240160405180910390fd5b6040816045565b506097565b600280546001600160a01b038381166001600160a01b0319831681179093556040519116919082907f8be0079c531659141344cd1fd0a4f28419497f9722a3daafe3b4186f6b6457e090600090a35050565b611a93806100a66000396000f3fe608060405234801561001057600080fd5b50600436106101425760003560e01c806376319190116100b8578063b9b44d301161007c578063b9b44d30146102fe578063bb1eb84714610327578063c62556261461033d578063d3c7c2c714610350578063f2fde38b14610365578063f3fef3a31461037857600080fd5b806376319190146102a15780638da5cb5b146102b45780638ea98117146102c5578063a03e4bc3146102d8578063a8bb832e146102eb57600080fd5b8063530554811161010a57806353055481146101e05780636d69fcaf1461020057806370a0823114610213578063715018a61461022657806372fd1a191461022e57806375151b631461026e57600080fd5b80630a009097146101475780630a64143a146101775780632552aa1f146101a5578063349f937c146101b857806347e7ef24146101cd575b600080fd5b60005461015a906001600160a01b031681565b6040516001600160a01b0390911681526020015b60405180910390f35b6101976101853660046115f4565b60086020526000908152604090205481565b60405190815260200161016e565b6101976101b33660046115f4565b61038b565b6101cb6101c63660046115f4565b610473565b005b6101cb6101db366004611611565b6104ec565b6101976101ee3660046115f4565b60076020526000908152604090205481565b6101cb61020e3660046115f4565b61075a565b6101976102213660046115f4565b610947565b6101cb6109e1565b61024161023c3660046115f4565b6109f5565b604080519687526020870195909552938501929092526060840152608083015260a082015260c00161016e565b61029161027c3660046115f4565b60056020526000908152604090205460ff1681565b604051901515815260200161016e565b6101cb6102af3660046115f4565b610b65565b6002546001600160a01b031661015a565b6101cb6102d33660046115f4565b610d36565b60035461015a906001600160a01b031681565b6101976102f93660046115f4565b610ddc565b61015a61030c3660046115f4565b6006602052600090815260409020546001600160a01b031681565b61032f610eaf565b60405161016e929190611682565b61015a61034b366004611704565b611148565b610358611172565b60405161016e919061171d565b6101cb6103733660046115f4565b6111d4565b6101cb610386366004611611565b611212565b6001600160a01b03811660009081526005602052604081205460ff166103b357506000919050565b6040516370a0823160e01b81526001600160a01b038316600482015260009030906370a0823190602401602060405180830381865afa1580156103fa573d6000803e3d6000fd5b505050506040513d601f19601f8201168201806040525081019061041e9190611730565b6001600160a01b03841660009081526008602090815260408083205460079092528220549293509091610451919061175f565b905080821161046157600061046b565b61046b818361175f565b949350505050565b61047b611447565b6001600160a01b0381166104a25760405163e6c4247b60e01b815260040160405180910390fd5b600380546001600160a01b0319166001600160a01b0383169081179091556040517f7f1936275a8a68e642cd125b879c72a42f46f2de670c68650617a83dff982d0390600090a250565b6000546001600160a01b0316331461053e5760405162461bcd60e51b815260206004820152601060248201526f27b7363c9021b7b7b93234b730ba37b960811b60448201526064015b60405180910390fd5b610546611474565b6001600160a01b03821660009081526005602052604090205460ff1661057f5760405163350b944160e11b815260040160405180910390fd5b806000036105a05760405163162908e360e11b815260040160405180910390fd5b6003546001600160a01b03166105c95760405163082ac68b60e21b815260040160405180910390fd5b6000546105e4906001600160a01b038481169116308461149e565b60035460405163095ea7b360e01b81526001600160a01b039182166004820152602481018390529083169063095ea7b3906044016020604051808303816000875af1158015610637573d6000803e3d6000fd5b505050506040513d601f19601f8201168201806040525081019061065b9190611778565b5060035460405163617ba03760e01b81526001600160a01b03848116600483015260248201849052306044830152600060648301529091169063617ba03790608401600060405180830381600087803b1580156106b757600080fd5b505af11580156106cb573d6000803e3d6000fd5b505050506001600160a01b038216600090815260076020526040812080548392906106f790849061179a565b90915550506001600160a01b038216600081815260076020908152604091829020548251858152918201527f73a19dd210f1a7f902193214c0ee91dd35ee5b4d920cba8d519eca65a7b488ca910160405180910390a261075660018055565b5050565b610762611447565b6001600160a01b0381166107895760405163e6c4247b60e01b815260040160405180910390fd5b6003546001600160a01b03166107b25760405163082ac68b60e21b815260040160405180910390fd5b6001600160a01b03811660009081526005602052604090205460ff16156107ec576040516359b0f88360e01b815260040160405180910390fd5b6003546040516335ea6a7560e01b81526001600160a01b03838116600483015260009216906335ea6a75906024016101e060405180830381865afa158015610838573d6000803e3d6000fd5b505050506040513d601f19601f8201168201806040525081019061085c9190611899565b6101008101519091506001600160a01b031661088b5760405163086ed55760e31b815260040160405180910390fd5b6004805460018082019092557f8a35acfbc15ff81a39ae7d344fd709f28e8600b4aa8c65c6b64bfe7fe36bd19b0180546001600160a01b03199081166001600160a01b038681169182179093556000818152600560209081526040808320805460ff191688179055610100880151600683529281902080549095169290951691909117909255915192835290917fbbe72b7d9dcb594ee398a4a617885aba53d833e2aad601c813ce9df99fdeb49b910160405180910390a25050565b6001600160a01b03808216600090815260066020526040812054909116806109725750600092915050565b6040516370a0823160e01b81523060048201526001600160a01b038216906370a0823190602401602060405180830381865afa1580156109b6573d6000803e3d6000fd5b505050506040513d601f19601f820116820180604052508101906109da9190611730565b9392505050565b6109e9611447565b6109f360006114fe565b565b6001600160a01b0381166000908152600560205260408120548190819081908190819060ff16610a3657506000945084935083925082915081905080610b5c565b6040516370a0823160e01b81526001600160a01b038816600482015230906370a0823190602401602060405180830381865afa158015610a7a573d6000803e3d6000fd5b505050506040513d601f19601f82011682018060405250810190610a9e9190611730565b6001600160a01b03881660009081526007602090815260408083205460089092529091205491975095509350610ad4848661175f565b9250828611610ae4576000610aee565b610aee838761175f565b60405163545dc19760e11b81526001600160a01b0389166004820152909250309063a8bb832e90602401602060405180830381865afa158015610b35573d6000803e3d6000fd5b505050506040513d601f19601f82011682018060405250810190610b599190611730565b90505b91939550919395565b610b6d611447565b6001600160a01b038116610b945760405163e6c4247b60e01b815260040160405180910390fd5b6001600160a01b03811660009081526005602052604090205460ff16610bcd576040516359b0f88360e01b815260040160405180910390fd5b60005b600454811015610ccb57816001600160a01b031660048281548110610bf757610bf76119c5565b6000918252602090912001546001600160a01b031603610cc35760048054610c219060019061175f565b81548110610c3157610c316119c5565b600091825260209091200154600480546001600160a01b039092169183908110610c5d57610c5d6119c5565b9060005260206000200160006101000a8154816001600160a01b0302191690836001600160a01b031602179055506004805480610c9c57610c9c6119db565b600082815260209020810160001990810180546001600160a01b0319169055019055610ccb565b600101610bd0565b506001600160a01b0381166000818152600560209081526040808320805460ff191690556006825280832080546001600160a01b0319169055519182527fbbe72b7d9dcb594ee398a4a617885aba53d833e2aad601c813ce9df99fdeb49b910160405180910390a250565b610d3e611447565b6001600160a01b038116610d655760405163e6c4247b60e01b815260040160405180910390fd5b6000546001600160a01b0390811690821603610d945760405163028e888760e11b815260040160405180910390fd5b600080546001600160a01b0319166001600160a01b038316908117825560405190917fc258faa9a17ddfdf4130b4acff63a289202e7d5f9e42f366add65368575486bc91a250565b6001600160a01b03811660009081526005602052604081205460ff161580610e0d57506003546001600160a01b0316155b15610e1a57506000919050565b6003546040516335ea6a7560e01b81526001600160a01b03848116600483015260009216906335ea6a75906024016101e060405180830381865afa158015610e66573d6000803e3d6000fd5b505050506040513d601f19601f82011682018060405250810190610e8a9190611899565b60408101519091506001600160801b031661046b69152d02c7e14af6800000826119f1565b6060806004805480602002602001604051908101604052809291908181526020018280548015610f0857602002820191906000526020600020905b81546001600160a01b03168152600190910190602001808311610eea575b50505050509150815167ffffffffffffffff811115610f2957610f296117ad565b604051908082528060200260200182016040528015610f6257816020015b610f4f6115c1565b815260200190600190039081610f475790505b50905060005b825181101561114357306001600160a01b03166372fd1a19848381518110610f9257610f926119c5565b60200260200101516040518263ffffffff1660e01b8152600401610fc591906001600160a01b0391909116815260200190565b60c060405180830381865afa158015610fe2573d6000803e3d6000fd5b505050506040513d601f19601f820116820180604052508101906110069190611a13565b878781518110611018576110186119c5565b6020026020010151600060068110611032576110326119c5565b60200201888881518110611048576110486119c5565b6020026020010151600160068110611062576110626119c5565b60200201898981518110611078576110786119c5565b6020026020010151600260068110611092576110926119c5565b602002018a8a815181106110a8576110a86119c5565b60200260200101516003600681106110c2576110c26119c5565b602002018b8b815181106110d8576110d86119c5565b60200260200101516004600681106110f2576110f26119c5565b602002018c8c81518110611108576111086119c5565b6020026020010151600560068110611122576111226119c5565b60200201959095529490935293909252929092529190915252600101610f68565b509091565b6004818154811061115857600080fd5b6000918252602090912001546001600160a01b0316905081565b606060048054806020026020016040519081016040528092919081815260200182805480156111ca57602002820191906000526020600020905b81546001600160a01b031681526001909101906020018083116111ac575b5050505050905090565b6111dc611447565b6001600160a01b03811661120657604051631e4fbdf760e01b815260006004820152602401610535565b61120f816114fe565b50565b6000546001600160a01b0316331461125f5760405162461bcd60e51b815260206004820152601060248201526f27b7363c9021b7b7b93234b730ba37b960811b6044820152606401610535565b611267611474565b6001600160a01b03821660009081526005602052604090205460ff166112a05760405163350b944160e11b815260040160405180910390fd5b806000036112c15760405163162908e360e11b815260040160405180910390fd5b6003546001600160a01b03166112ea5760405163082ac68b60e21b815260040160405180910390fd5b60035460008054604051631a4ca37b60e21b81526001600160a01b038681166004830152602482018690529182166044820152919216906369328dec906064016020604051808303816000875af1158015611349573d6000803e3d6000fd5b505050506040513d601f19601f8201168201806040525081019061136d9190611730565b9050818110156113bf5760405162461bcd60e51b815260206004820152601760248201527f496e73756666696369656e74207769746864726177616c0000000000000000006044820152606401610535565b6001600160a01b038316600090815260086020526040812080548392906113e790849061179a565b90915550506001600160a01b038316600081815260086020908152604091829020548251858152918201527f92ccf450a286a957af52509bc1c9939d1a6a481783e142e41e2499f0bb66ebc6910160405180910390a25061075660018055565b6002546001600160a01b031633146109f35760405163118cdaa760e01b8152336004820152602401610535565b60026001540361149757604051633ee5aeb560e01b815260040160405180910390fd5b6002600155565b604080516001600160a01b0385811660248301528416604482015260648082018490528251808303909101815260849091019091526020810180516001600160e01b03166323b872dd60e01b1790526114f8908590611550565b50505050565b600280546001600160a01b038381166001600160a01b0319831681179093556040519116919082907f8be0079c531659141344cd1fd0a4f28419497f9722a3daafe3b4186f6b6457e090600090a35050565b600080602060008451602086016000885af180611573576040513d6000823e3d81fd5b50506000513d9150811561158b578060011415611598565b6001600160a01b0384163b155b156114f857604051635274afe760e01b81526001600160a01b0385166004820152602401610535565b6040518060c001604052806006906020820280368337509192915050565b6001600160a01b038116811461120f57600080fd5b60006020828403121561160657600080fd5b81356109da816115df565b6000806040838503121561162457600080fd5b823561162f816115df565b946020939093013593505050565b600081518084526020840193506020830160005b828110156116785781516001600160a01b0316865260209586019590910190600101611651565b5093949350505050565b604081526000611695604083018561163d565b828103602084015280845180835260208301915060208601925060005b818110156116f85783518360005b60068110156116df5782518252602092830192909101906001016116c0565b5050506020939093019260c092909201916001016116b2565b50909695505050505050565b60006020828403121561171657600080fd5b5035919050565b6020815260006109da602083018461163d565b60006020828403121561174257600080fd5b5051919050565b634e487b7160e01b600052601160045260246000fd5b8181038181111561177257611772611749565b92915050565b60006020828403121561178a57600080fd5b815180151581146109da57600080fd5b8082018082111561177257611772611749565b634e487b7160e01b600052604160045260246000fd5b6040516101e0810167ffffffffffffffff811182821017156117f557634e487b7160e01b600052604160045260246000fd5b60405290565b60006020828403121561180d57600080fd5b6040516020810167ffffffffffffffff8111828210171561183e57634e487b7160e01b600052604160045260246000fd5b6040529151825250919050565b80516001600160801b038116811461186257600080fd5b919050565b805164ffffffffff8116811461186257600080fd5b805161ffff8116811461186257600080fd5b8051611862816115df565b60006101e08284031280156118ad57600080fd5b506118b66117c3565b6118c084846117fb565b81526118ce6020840161184b565b60208201526118df6040840161184b565b60408201526118f06060840161184b565b60608201526119016080840161184b565b608082015261191260a0840161184b565b60a082015261192360c08401611867565b60c082015261193460e0840161187c565b60e0820152611946610100840161188e565b610100820152611959610120840161188e565b61012082015261196c610140840161188e565b61014082015261197f610160840161188e565b610160820152611992610180840161184b565b6101808201526119a56101a0840161184b565b6101a08201526119b86101c0840161184b565b6101c08201529392505050565b634e487b7160e01b600052603260045260246000fd5b634e487b7160e01b600052603160045260246000fd5b600082611a0e57634e487b7160e01b600052601260045260246000fd5b500490565b60008060008060008060c08789031215611a2c57600080fd5b50508451602086015160408701516060880151608089015160a090990151939a92995090979096509450909250905056fea26469706673582212208d2a650e24f076d6c409f4d6365e0ed2310812fee553d7fc7bbf66dadacb0ebd64736f6c634300081c0033",
  "linkReferences": {},
  "deployedLinkReferences": {}
}