{
  "_format": "hh-sol-artifact-1",
  "contractName": "BriqVault",
  "sourceName": "contracts/BriqVault.sol",
  "abi": [
    {
      "inputs": [
        {
          "internalType": "address",
          "name": "_coordinator",
          "type": "address"
        },
        {
          "internalType": "address",
          "name": "_briqShares",
          "type": "address"
        }
      ],
      "stateMutability": "nonpayable",
      "type": "constructor"
    },
    {
      "inputs": [],
      "name": "InvalidAddress",
      "type": "error"
    },
    {
      "inputs": [],
      "name": "InvalidAmount",
      "type": "error"
    },
    {
      "inputs": [],
      "name": "InvalidShares",
      "type": "error"
    },
    {
      "inputs": [
        {
          "internalType": "address",
          "name": "owner",
          "type": "address"
        }
      ],
      "name": "OwnableInvalidOwner",
      "type": "error"
    },
    {
      "inputs": [
        {
          "internalType": "address",
          "name": "account",
          "type": "address"
        }
      ],
      "name": "OwnableUnauthorizedAccount",
      "type": "error"
    },
    {
      "inputs": [],
      "name": "ReentrancyGuardReentrantCall",
      "type": "error"
    },
    {
      "anonymous": false,
      "inputs": [
        {
          "indexed": true,
          "internalType": "address",
          "name": "previousOwner",
          "type": "address"
        },
        {
          "indexed": true,
          "internalType": "address",
          "name": "newOwner",
          "type": "address"
        }
      ],
      "name": "OwnershipTransferred",
      "type": "event"
    },
    {
      "anonymous": false,
      "inputs": [
        {
          "indexed": true,
          "internalType": "address",
          "name": "user",
          "type": "address"
        },
        {
          "indexed": true,
          "internalType": "address",
          "name": "token",
          "type": "address"
        },
        {
          "indexed": false,
          "internalType": "uint256",
          "name": "amount",
          "type": "uint256"
        },
        {
          "indexed": false,
          "internalType": "uint256",
          "name": "sharesMinted",
          "type": "uint256"
        }
      ],
      "name": "UserDeposited",
      "type": "event"
    },
    {
      "anonymous": false,
      "inputs": [
        {
          "indexed": true,
          "internalType": "address",
          "name": "user",
          "type": "address"
        },
        {
          "indexed": true,
          "internalType": "address",
          "name": "token",
          "type": "address"
        },
        {
          "indexed": false,
          "internalType": "uint256",
          "name": "amount",
          "type": "uint256"
        },
        {
          "indexed": false,
          "internalType": "uint256",
          "name": "sharesBurned",
          "type": "uint256"
        }
      ],
      "name": "UserWithdrew",
      "type": "event"
    },
    {
      "inputs": [],
      "name": "briqShares",
      "outputs": [
        {
          "internalType": "contract BriqShares",
          "name": "",
          "type": "address"
        }
      ],
      "stateMutability": "view",
      "type": "function"
    },
    {
      "inputs": [
        {
          "internalType": "address",
          "name": "_token",
          "type": "address"
        },
        {
          "internalType": "uint256",
          "name": "_amount",
          "type": "uint256"
        }
      ],
      "name": "deposit",
      "outputs": [],
      "stateMutability": "nonpayable",
      "type": "function"
    },
    {
      "inputs": [],
      "name": "owner",
      "outputs": [
        {
          "internalType": "address",
          "name": "",
          "type": "address"
        }
      ],
      "stateMutability": "view",
      "type": "function"
    },
    {
      "inputs": [],
      "name": "renounceOwnership",
      "outputs": [],
      "stateMutability": "nonpayable",
      "type": "function"
    },
    {
      "inputs": [],
      "name": "strategyCoordinator",
      "outputs": [
        {
          "internalType": "contract StrategyCoordinator",
          "name": "",
          "type": "address"
        }
      ],
      "stateMutability": "view",
      "type": "function"
    },
    {
      "inputs": [
        {
          "internalType": "address",
          "name": "newOwner",
          "type": "address"
        }
      ],
      "name": "transferOwnership",
      "outputs": [],
      "stateMutability": "nonpayable",
      "type": "function"
    },
    {
      "inputs": [
        {
          "internalType": "address",
          "name": "_token",
          "type": "address"
        },
        {
          "internalType": "uint256",
          "name": "_shares",
          "type": "uint256"
        }
      ],
      "name": "withdraw",
      "outputs": [],
      "stateMutability": "nonpayable",
      "type": "function"
    }
  ],
  "bytecode": "0x608060405234801561001057600080fd5b50604051610b5f380380610b5f83398101604081905261002f9161013b565b338061005557604051631e4fbdf760e01b81526000600482015260240160405180910390fd5b61005e816100cf565b50600180556001600160a01b038216158061008057506001600160a01b038116155b1561009e5760405163e6c4247b60e01b815260040160405180910390fd5b600280546001600160a01b039384166001600160a01b0319918216179091556003805492909316911617905561016e565b600080546001600160a01b038381166001600160a01b0319831681178455604051919092169283917f8be0079c531659141344cd1fd0a4f28419497f9722a3daafe3b4186f6b6457e09190a35050565b80516001600160a01b038116811461013657600080fd5b919050565b6000806040838503121561014e57600080fd5b6101578361011f565b91506101656020840161011f565b90509250929050565b6109e28061017d6000396000f3fe608060405234801561001057600080fd5b506004361061007d5760003560e01c80638da5cb5b1161005b5780638da5cb5b146100ce578063afc10c32146100df578063f2fde38b146100f2578063f3fef3a31461010557600080fd5b806330e8b2d21461008257806347e7ef24146100b1578063715018a6146100c6575b600080fd5b600354610095906001600160a01b031681565b6040516001600160a01b03909116815260200160405180910390f35b6100c46100bf3660046108d8565b610118565b005b6100c461047a565b6000546001600160a01b0316610095565b600254610095906001600160a01b031681565b6100c4610100366004610902565b61048e565b6100c46101133660046108d8565b6104d1565b610120610815565b806000036101415760405163162908e360e11b815260040160405180910390fd5b6040516323b872dd60e01b8152336004820152306024820152604481018290526001600160a01b038316906323b872dd906064016020604051808303816000875af1158015610194573d6000803e3d6000fd5b505050506040513d601f19601f820116820180604052508101906101b89190610924565b5060025460405163adad19bd60e01b81526001600160a01b038481166004830152600092169063adad19bd90602401602060405180830381865afa158015610204573d6000803e3d6000fd5b505050506040513d601f19601f820116820180604052508101906102289190610946565b90506000600360009054906101000a90046001600160a01b03166001600160a01b03166318160ddd6040518163ffffffff1660e01b8152600401602060405180830381865afa15801561027f573d6000803e3d6000fd5b505050506040513d601f19601f820116820180604052508101906102a39190610946565b60025460405163095ea7b360e01b81526001600160a01b0391821660048201526024810186905291925085169063095ea7b3906044016020604051808303816000875af11580156102f8573d6000803e3d6000fd5b505050506040513d601f19601f8201168201806040525081019061031c9190610924565b506002546040516311f9fbc960e21b81526001600160a01b03868116600483015260248201869052909116906347e7ef2490604401600060405180830381600087803b15801561036b57600080fd5b505af115801561037f573d6000803e3d6000fd5b5050505060008160001480610392575082155b6103b057826103a1838661095f565b6103ab919061098a565b6103bf565b6103bf8464e8d4a5100061095f565b6003546040516340c10f1960e01b8152336004820152602481018390529192506001600160a01b0316906340c10f1990604401600060405180830381600087803b15801561040c57600080fd5b505af1158015610420573d6000803e3d6000fd5b505060408051878152602081018590526001600160a01b03891693503392507fdeb69f41b4c1fc2384209e922e035ca10841e61e6b1f685e0699f9dfa886009f910160405180910390a350505061047660018055565b5050565b61048261083f565b61048c600061086c565b565b61049661083f565b6001600160a01b0381166104c557604051631e4fbdf760e01b8152600060048201526024015b60405180910390fd5b6104ce8161086c565b50565b6104d9610815565b806000036104fa5760405163162908e360e11b815260040160405180910390fd5b6003546040516370a0823160e01b81523360048201526000916001600160a01b0316906370a0823190602401602060405180830381865afa158015610543573d6000803e3d6000fd5b505050506040513d601f19601f820116820180604052508101906105679190610946565b90508082111561058a57604051636edcc52360e01b815260040160405180910390fd5b600354604080516318160ddd60e01b815290516000926001600160a01b0316916318160ddd9160048083019260209291908290030181865afa1580156105d4573d6000803e3d6000fd5b505050506040513d601f19601f820116820180604052508101906105f89190610946565b60025460405163adad19bd60e01b81526001600160a01b0387811660048301529293506000929091169063adad19bd90602401602060405180830381865afa158015610648573d6000803e3d6000fd5b505050506040513d601f19601f8201168201806040525081019061066c9190610946565b905060008261067b838761095f565b610685919061098a565b600354604051632770a7eb60e21b8152336004820152602481018890529192506001600160a01b031690639dc29fac90604401600060405180830381600087803b1580156106d257600080fd5b505af11580156106e6573d6000803e3d6000fd5b505060025460405163f3fef3a360e01b81526001600160a01b038a8116600483015260248201869052909116925063f3fef3a39150604401600060405180830381600087803b15801561073857600080fd5b505af115801561074c573d6000803e3d6000fd5b505060405163a9059cbb60e01b8152336004820152602481018490526001600160a01b038916925063a9059cbb91506044016020604051808303816000875af115801561079d573d6000803e3d6000fd5b505050506040513d601f19601f820116820180604052508101906107c19190610924565b5060408051828152602081018790526001600160a01b0388169133917f5381f8b51319066647de19ad4a1889272b1a02d7d4ac29cc33b4ffbe37804501910160405180910390a35050505061047660018055565b60026001540361083857604051633ee5aeb560e01b815260040160405180910390fd5b6002600155565b6000546001600160a01b0316331461048c5760405163118cdaa760e01b81523360048201526024016104bc565b600080546001600160a01b038381166001600160a01b0319831681178455604051919092169283917f8be0079c531659141344cd1fd0a4f28419497f9722a3daafe3b4186f6b6457e09190a35050565b80356001600160a01b03811681146108d357600080fd5b919050565b600080604083850312156108eb57600080fd5b6108f4836108bc565b946020939093013593505050565b60006020828403121561091457600080fd5b61091d826108bc565b9392505050565b60006020828403121561093657600080fd5b8151801515811461091d57600080fd5b60006020828403121561095857600080fd5b5051919050565b808202811582820484141761098457634e487b7160e01b600052601160045260246000fd5b92915050565b6000826109a757634e487b7160e01b600052601260045260246000fd5b50049056fea264697066735822122005697c87ef5e3f525eebe1968d1f055339609e26d52c6762079453eb58e7ade964736f6c634300081c0033",
  "linkReferences": {},
  "deployedLinkReferences": {}
}