{
  "_format": "hh3-artifact-1",
  "contractName": "BriqVault",
  "sourceName": "contracts/BriqVault.sol",
  "abi": [
    {
      "inputs": [
        {
          "internalType": "address",
          "name": "_coordinator",
          "type": "address"
        },
        {
          "internalType": "address",
          "name": "_briqShares",
          "type": "address"
        },
        {
          "internalType": "address",
          "name": "_priceFeedManager",
          "type": "address"
        },
        {
          "internalType": "address",
          "name": "_timelock",
          "type": "address"
        }
      ],
      "stateMutability": "nonpayable",
      "type": "constructor"
    },
    {
      "inputs": [],
      "name": "EnforcedPause",
      "type": "error"
    },
    {
      "inputs": [],
      "name": "ExpectedPause",
      "type": "error"
    },
    {
      "inputs": [],
      "name": "InsufficientLiquidity",
      "type": "error"
    },
    {
      "inputs": [],
      "name": "InvalidAddress",
      "type": "error"
    },
    {
      "inputs": [],
      "name": "InvalidAmount",
      "type": "error"
    },
    {
      "inputs": [],
      "name": "InvalidShares",
      "type": "error"
    },
    {
      "inputs": [
        {
          "internalType": "address",
          "name": "owner",
          "type": "address"
        }
      ],
      "name": "OwnableInvalidOwner",
      "type": "error"
    },
    {
      "inputs": [
        {
          "internalType": "address",
          "name": "account",
          "type": "address"
        }
      ],
      "name": "OwnableUnauthorizedAccount",
      "type": "error"
    },
    {
      "inputs": [],
      "name": "PriceFeedNotFound",
      "type": "error"
    },
    {
      "inputs": [],
      "name": "ReentrancyGuardReentrantCall",
      "type": "error"
    },
    {
      "inputs": [
        {
          "internalType": "address",
          "name": "token",
          "type": "address"
        }
      ],
      "name": "SafeERC20FailedOperation",
      "type": "error"
    },
    {
      "inputs": [],
      "name": "SlippageExceeded",
      "type": "error"
    },
    {
      "inputs": [],
      "name": "UnauthorizedAccess",
      "type": "error"
    },
    {
      "anonymous": false,
      "inputs": [
        {
          "indexed": true,
          "internalType": "address",
          "name": "previousOwner",
          "type": "address"
        },
        {
          "indexed": true,
          "internalType": "address",
          "name": "newOwner",
          "type": "address"
        }
      ],
      "name": "OwnershipTransferred",
      "type": "event"
    },
    {
      "anonymous": false,
      "inputs": [
        {
          "indexed": false,
          "internalType": "address",
          "name": "account",
          "type": "address"
        }
      ],
      "name": "Paused",
      "type": "event"
    },
    {
      "anonymous": false,
      "inputs": [
        {
          "indexed": false,
          "internalType": "uint256",
          "name": "oldSlippage",
          "type": "uint256"
        },
        {
          "indexed": false,
          "internalType": "uint256",
          "name": "newSlippage",
          "type": "uint256"
        }
      ],
      "name": "SlippageUpdated",
      "type": "event"
    },
    {
      "anonymous": false,
      "inputs": [
        {
          "indexed": false,
          "internalType": "address",
          "name": "account",
          "type": "address"
        }
      ],
      "name": "Unpaused",
      "type": "event"
    },
    {
      "anonymous": false,
      "inputs": [
        {
          "indexed": true,
          "internalType": "address",
          "name": "user",
          "type": "address"
        },
        {
          "indexed": true,
          "internalType": "address",
          "name": "token",
          "type": "address"
        },
        {
          "indexed": false,
          "internalType": "uint256",
          "name": "amount",
          "type": "uint256"
        },
        {
          "indexed": false,
          "internalType": "uint256",
          "name": "usdValue",
          "type": "uint256"
        },
        {
          "indexed": false,
          "internalType": "uint256",
          "name": "sharesMinted",
          "type": "uint256"
        }
      ],
      "name": "UserDeposited",
      "type": "event"
    },
    {
      "anonymous": false,
      "inputs": [
        {
          "indexed": true,
          "internalType": "address",
          "name": "user",
          "type": "address"
        },
        {
          "indexed": true,
          "internalType": "address",
          "name": "token",
          "type": "address"
        },
        {
          "indexed": false,
          "internalType": "uint256",
          "name": "amount",
          "type": "uint256"
        },
        {
          "indexed": false,
          "internalType": "uint256",
          "name": "sharesBurned",
          "type": "uint256"
        }
      ],
      "name": "UserWithdrew",
      "type": "event"
    },
    {
      "inputs": [],
      "name": "BPS_DENOMINATOR",
      "outputs": [
        {
          "internalType": "uint256",
          "name": "",
          "type": "uint256"
        }
      ],
      "stateMutability": "view",
      "type": "function"
    },
    {
      "inputs": [],
      "name": "briqShares",
      "outputs": [
        {
          "internalType": "contract BriqShares",
          "name": "",
          "type": "address"
        }
      ],
      "stateMutability": "view",
      "type": "function"
    },
    {
      "inputs": [
        {
          "internalType": "address",
          "name": "_token",
          "type": "address"
        },
        {
          "internalType": "uint256",
          "name": "_shares",
          "type": "uint256"
        }
      ],
      "name": "checkWithdrawalAvailability",
      "outputs": [
        {
          "internalType": "bool",
          "name": "canWithdrawFull",
          "type": "bool"
        },
        {
          "internalType": "uint256",
          "name": "availableAmount",
          "type": "uint256"
        },
        {
          "internalType": "uint256",
          "name": "idealAmount",
          "type": "uint256"
        }
      ],
      "stateMutability": "view",
      "type": "function"
    },
    {
      "inputs": [
        {
          "internalType": "address",
          "name": "_token",
          "type": "address"
        },
        {
          "internalType": "uint256",
          "name": "_amount",
          "type": "uint256"
        }
      ],
      "name": "deposit",
      "outputs": [],
      "stateMutability": "nonpayable",
      "type": "function"
    },
    {
      "inputs": [
        {
          "internalType": "address",
          "name": "_token",
          "type": "address"
        },
        {
          "internalType": "uint256",
          "name": "_amount",
          "type": "uint256"
        },
        {
          "internalType": "address",
          "name": "_recipient",
          "type": "address"
        }
      ],
      "name": "emergencyWithdraw",
      "outputs": [],
      "stateMutability": "nonpayable",
      "type": "function"
    },
    {
      "inputs": [],
      "name": "getSupportedTokens",
      "outputs": [
        {
          "internalType": "address[]",
          "name": "",
          "type": "address[]"
        }
      ],
      "stateMutability": "view",
      "type": "function"
    },
    {
      "inputs": [],
      "name": "getTotalVaultValueInUSD",
      "outputs": [
        {
          "internalType": "uint256",
          "name": "totalUsdValue",
          "type": "uint256"
        }
      ],
      "stateMutability": "view",
      "type": "function"
    },
    {
      "inputs": [],
      "name": "maxSlippageBps",
      "outputs": [
        {
          "internalType": "uint256",
          "name": "",
          "type": "uint256"
        }
      ],
      "stateMutability": "view",
      "type": "function"
    },
    {
      "inputs": [],
      "name": "owner",
      "outputs": [
        {
          "internalType": "address",
          "name": "",
          "type": "address"
        }
      ],
      "stateMutability": "view",
      "type": "function"
    },
    {
      "inputs": [],
      "name": "pause",
      "outputs": [],
      "stateMutability": "nonpayable",
      "type": "function"
    },
    {
      "inputs": [],
      "name": "paused",
      "outputs": [
        {
          "internalType": "bool",
          "name": "",
          "type": "bool"
        }
      ],
      "stateMutability": "view",
      "type": "function"
    },
    {
      "inputs": [],
      "name": "priceFeedManager",
      "outputs": [
        {
          "internalType": "contract PriceFeedManager",
          "name": "",
          "type": "address"
        }
      ],
      "stateMutability": "view",
      "type": "function"
    },
    {
      "inputs": [],
      "name": "renounceOwnership",
      "outputs": [],
      "stateMutability": "nonpayable",
      "type": "function"
    },
    {
      "inputs": [],
      "name": "strategyCoordinator",
      "outputs": [
        {
          "internalType": "contract StrategyCoordinator",
          "name": "",
          "type": "address"
        }
      ],
      "stateMutability": "view",
      "type": "function"
    },
    {
      "inputs": [],
      "name": "timelock",
      "outputs": [
        {
          "internalType": "address",
          "name": "",
          "type": "address"
        }
      ],
      "stateMutability": "view",
      "type": "function"
    },
    {
      "inputs": [
        {
          "internalType": "address",
          "name": "newOwner",
          "type": "address"
        }
      ],
      "name": "transferOwnership",
      "outputs": [],
      "stateMutability": "nonpayable",
      "type": "function"
    },
    {
      "inputs": [],
      "name": "unpause",
      "outputs": [],
      "stateMutability": "nonpayable",
      "type": "function"
    },
    {
      "inputs": [
        {
          "internalType": "uint256",
          "name": "_newSlippageBps",
          "type": "uint256"
        }
      ],
      "name": "updateMaxSlippage",
      "outputs": [],
      "stateMutability": "nonpayable",
      "type": "function"
    },
    {
      "inputs": [
        {
          "internalType": "address",
          "name": "_token",
          "type": "address"
        },
        {
          "internalType": "uint256",
          "name": "_shares",
          "type": "uint256"
        },
        {
          "internalType": "uint256",
          "name": "_minAmountOut",
          "type": "uint256"
        }
      ],
      "name": "withdraw",
      "outputs": [],
      "stateMutability": "nonpayable",
      "type": "function"
    }
  ],
  "bytecode": "0x6101006040526014600355348015610015575f5ffd5b50604051611c57380380611c5783398101604081905261003491610152565b338061005957604051631e4fbdf760e01b81525f600482015260240160405180910390fd5b610062816100e8565b50600180556001600160a01b038416158061008457506001600160a01b038316155b8061009657506001600160a01b038216155b806100a857506001600160a01b038116155b156100c65760405163e6c4247b60e01b815260040160405180910390fd5b6001600160a01b0393841660805291831660a052821660c0521660e0526101a3565b5f80546001600160a01b038381166001600160a01b0319831681178455604051919092169283917f8be0079c531659141344cd1fd0a4f28419497f9722a3daafe3b4186f6b6457e09190a35050565b80516001600160a01b038116811461014d575f5ffd5b919050565b5f5f5f5f60808587031215610165575f5ffd5b61016e85610137565b935061017c60208601610137565b925061018a60408601610137565b915061019860608601610137565b905092959194509250565b60805160a05160c05160e0516119d961027e5f395f8181610228015281816103050152818161073301528181610903015261120e01525f81816102640152818161039f015281816104530152818161099d01528181610bb001528181610cf001526110d801525f8181610125015281816104d90152818161065001528181610a5301528181610aea01528181610dc80152610ffd01525f81816101e501528181610568015281816105a4015281816108520152818161097001528181610c5f01528181610e4101528181610f1c015261117001526119d95ff3fe608060405234801561000f575f5ffd5b506004361061011c575f3560e01c8063afc10c32116100a9578063e0d1ea1e1161006e578063e0d1ea1e1461025f578063e1a4521814610286578063f2fde38b1461028f578063f39ef526146102a2578063f896acc7146102d2575f5ffd5b8063afc10c32146101e0578063b5c5f67214610207578063c4aa73951461021a578063d33219b414610223578063d3c7c2c71461024a575f5ffd5b80635c975abb116100ef5780635c975abb14610194578063715018a6146101aa5780638456cb59146101b257806384598a4f146101ba5780638da5cb5b146101d0575f5ffd5b806330e8b2d2146101205780633f4ba83a1461016457806347e7ef241461016e578063551512de14610181575b5f5ffd5b6101477f000000000000000000000000000000000000000000000000000000000000000081565b6040516001600160a01b0390911681526020015b60405180910390f35b61016c6102e5565b005b61016c61017c3660046116a1565b610350565b61016c61018f3660046116cb565b610713565b60025460ff16604051901515815260200161015b565b61016c6108d2565b61016c6108e3565b6101c261094c565b60405190815260200161015b565b5f546001600160a01b0316610147565b6101477f000000000000000000000000000000000000000000000000000000000000000081565b61016c61021536600461170a565b610a0c565b6101c260035481565b6101477f000000000000000000000000000000000000000000000000000000000000000081565b610252610f18565b60405161015b919061177f565b6101477f000000000000000000000000000000000000000000000000000000000000000081565b6101c261271081565b61016c61029d366004611798565b610fa1565b6102b56102b03660046116a1565b610fe3565b60408051931515845260208401929092529082015260600161015b565b61016c6102e03660046117b3565b6111ee565b5f546001600160a01b031633148015906103285750336001600160a01b037f00000000000000000000000000000000000000000000000000000000000000001614155b1561034657604051631a27eac360e11b815260040160405180910390fd5b61034e6112b7565b565b610358611309565b610360611333565b805f036103805760405163162908e360e11b815260040160405180910390fd5b6040516305bcc1d160e11b81526001600160a01b0383811660048301527f00000000000000000000000000000000000000000000000000000000000000001690630b7983a290602401602060405180830381865afa1580156103e4573d5f5f3e3d5ffd5b505050506040513d601f19601f8201168201806040525081019061040891906117ca565b61042557604051630295d7cd60e31b815260040160405180910390fd5b61043a6001600160a01b038316333084611357565b60405163864bc41960e01b81525f906001600160a01b037f0000000000000000000000000000000000000000000000000000000000000000169063864bc4199061048a90869086906004016117e9565b602060405180830381865afa1580156104a5573d5f5f3e3d5ffd5b505050506040513d601f19601f820116820180604052508101906104c99190611802565b90505f6104d461094c565b90505f7f00000000000000000000000000000000000000000000000000000000000000006001600160a01b03166318160ddd6040518163ffffffff1660e01b8152600401602060405180830381865afa158015610533573d5f5f3e3d5ffd5b505050506040513d601f19601f820116820180604052508101906105579190611802565b905061058d6001600160a01b0386167f0000000000000000000000000000000000000000000000000000000000000000866113be565b6040516311f9fbc960e21b81526001600160a01b037f000000000000000000000000000000000000000000000000000000000000000016906347e7ef24906105db90889088906004016117e9565b5f604051808303815f87803b1580156105f2575f5ffd5b505af1158015610604573d5f5f3e3d5ffd5b505050505f815f1480610615575082155b15610621575082610639565b8261062c838661182d565b6106369190611844565b90505b6040516340c10f1960e01b81526001600160a01b037f000000000000000000000000000000000000000000000000000000000000000016906340c10f199061068790339085906004016117e9565b5f604051808303815f87803b15801561069e575f5ffd5b505af11580156106b0573d5f5f3e3d5ffd5b505060408051888152602081018890529081018490526001600160a01b03891692503391507f8f8f41ccfda7c150e1e3e4938de64ccdc425d33ec40e88435e45910725ffa3e49060600160405180910390a35050505061070f60018055565b5050565b5f546001600160a01b031633148015906107565750336001600160a01b037f00000000000000000000000000000000000000000000000000000000000000001614155b1561077457604051631a27eac360e11b815260040160405180910390fd5b6001600160a01b03811661079b5760405163e6c4247b60e01b815260040160405180910390fd5b815f036107bb5760405163162908e360e11b815260040160405180910390fd5b6040516370a0823160e01b81523060048201525f906001600160a01b038516906370a0823190602401602060405180830381865afa1580156107ff573d5f5f3e3d5ffd5b505050506040513d601f19601f820116820180604052508101906108239190611802565b9050828110156108b8575f6108388285611863565b60405163f3fef3a360e01b81529091506001600160a01b037f0000000000000000000000000000000000000000000000000000000000000000169063f3fef3a39061088990889085906004016117e9565b5f604051808303815f87803b1580156108a0575f5ffd5b505af11580156108b2573d5f5f3e3d5ffd5b50505050505b6108cc6001600160a01b0385168385611445565b50505050565b6108da61146b565b61034e5f611497565b5f546001600160a01b031633148015906109265750336001600160a01b037f00000000000000000000000000000000000000000000000000000000000000001614155b1561094457604051631a27eac360e11b815260040160405180910390fd5b61034e6114e6565b5f5f610956610f18565b604051637508934360e01b81529091506001600160a01b037f000000000000000000000000000000000000000000000000000000000000000016906375089343906109c7907f0000000000000000000000000000000000000000000000000000000000000000908590600401611876565b602060405180830381865afa1580156109e2573d5f5f3e3d5ffd5b505050506040513d601f19601f82011682018060405250810190610a069190611802565b91505090565b610a14611309565b610a1c611333565b815f03610a3c5760405163162908e360e11b815260040160405180910390fd5b6040516370a0823160e01b81523360048201525f907f00000000000000000000000000000000000000000000000000000000000000006001600160a01b0316906370a0823190602401602060405180830381865afa158015610aa0573d5f5f3e3d5ffd5b505050506040513d601f19601f82011682018060405250810190610ac49190611802565b905080831115610ae757604051636edcc52360e01b815260040160405180910390fd5b5f7f00000000000000000000000000000000000000000000000000000000000000006001600160a01b03166318160ddd6040518163ffffffff1660e01b8152600401602060405180830381865afa158015610b44573d5f5f3e3d5ffd5b505050506040513d601f19601f82011682018060405250810190610b689190611802565b90505f610b7361094c565b9050805f03610b955760405163bb55fd2760e01b815260040160405180910390fd5b5f82610ba1838861182d565b610bab9190611844565b90505f7f00000000000000000000000000000000000000000000000000000000000000006001600160a01b03166382a8f94e89846040518363ffffffff1660e01b8152600401610bfc9291906117e9565b602060405180830381865afa158015610c17573d5f5f3e3d5ffd5b505050506040513d601f19601f82011682018060405250810190610c3b9190611802565b60405163adad19bd60e01b81526001600160a01b038a811660048301529192505f917f0000000000000000000000000000000000000000000000000000000000000000169063adad19bd90602401602060405180830381865afa158015610ca4573d5f5f3e3d5ffd5b505050506040513d601f19601f82011682018060405250810190610cc89190611802565b9050818882821115610d905760405163864bc41960e01b81528392505f906001600160a01b037f0000000000000000000000000000000000000000000000000000000000000000169063864bc41990610d27908f9087906004016117e9565b602060405180830381865afa158015610d42573d5f5f3e3d5ffd5b505050506040513d601f19601f82011682018060405250810190610d669190611802565b905086610d73898361182d565b610d7d9190611844565b91508a821115610d8e578a91508492505b505b88821015610db157604051638199f5f360e01b815260040160405180910390fd5b604051632770a7eb60e21b81526001600160a01b037f00000000000000000000000000000000000000000000000000000000000000001690639dc29fac90610dff90339085906004016117e9565b5f604051808303815f87803b158015610e16575f5ffd5b505af1158015610e28573d5f5f3e3d5ffd5b505060405163f3fef3a360e01b81526001600160a01b037f000000000000000000000000000000000000000000000000000000000000000016925063f3fef3a39150610e7a908e9086906004016117e9565b5f604051808303815f87803b158015610e91575f5ffd5b505af1158015610ea3573d5f5f3e3d5ffd5b50610ebc925050506001600160a01b038c163384611445565b60408051838152602081018390526001600160a01b038d169133917f5381f8b51319066647de19ad4a1889272b1a02d7d4ac29cc33b4ffbe37804501910160405180910390a35050505050505050610f1360018055565b505050565b60607f00000000000000000000000000000000000000000000000000000000000000006001600160a01b031663d3c7c2c76040518163ffffffff1660e01b81526004015f60405180830381865afa158015610f75573d5f5f3e3d5ffd5b505050506040513d5f823e601f3d908101601f19168201604052610f9c91908101906118c5565b905090565b610fa961146b565b6001600160a01b038116610fd757604051631e4fbdf760e01b81525f60048201526024015b60405180910390fd5b610fe081611497565b50565b5f5f5f835f03610ffa57505f9150819050806111e7565b5f7f00000000000000000000000000000000000000000000000000000000000000006001600160a01b03166318160ddd6040518163ffffffff1660e01b8152600401602060405180830381865afa158015611057573d5f5f3e3d5ffd5b505050506040513d601f19601f8201168201806040525081019061107b9190611802565b90505f61108661094c565b9050811580611093575080155b156110a8575f5f5f94509450945050506111e7565b5f826110b4838961182d565b6110be9190611844565b6040516341547ca760e11b81529091506001600160a01b037f000000000000000000000000000000000000000000000000000000000000000016906382a8f94e9061110f908b9085906004016117e9565b602060405180830381865afa15801561112a573d5f5f3e3d5ffd5b505050506040513d601f19601f8201168201806040525081019061114e9190611802565b60405163adad19bd60e01b81526001600160a01b038a811660048301529195507f00000000000000000000000000000000000000000000000000000000000000009091169063adad19bd90602401602060405180830381865afa1580156111b7573d5f5f3e3d5ffd5b505050506040513d601f19601f820116820180604052508101906111db9190611802565b94508385101595505050505b9250925092565b5f546001600160a01b031633148015906112315750336001600160a01b037f00000000000000000000000000000000000000000000000000000000000000001614155b1561124f57604051631a27eac360e11b815260040160405180910390fd5b61012c8111156112725760405163162908e360e11b815260040160405180910390fd5b600380549082905560408051828152602081018490527f07af09e2b23ebab5dd29fa2271d6ca4795031f308caf26ca605f4a719ffeed61910160405180910390a15050565b6112bf611523565b6002805460ff191690557f5db9ee0a495bf2e6ff9c91a7834c1ba4fdd244a5e8aa4e537bd38aeae4b073aa335b6040516001600160a01b03909116815260200160405180910390a1565b60026001540361132c57604051633ee5aeb560e01b815260040160405180910390fd5b6002600155565b60025460ff161561034e5760405163d93c066560e01b815260040160405180910390fd5b6040516001600160a01b0384811660248301528381166044830152606482018390526108cc9186918216906323b872dd906084015b604051602081830303815290604052915060e01b6020820180516001600160e01b038381831617835250505050611546565b604051636eb1769f60e11b81523060048201526001600160a01b0383811660248301525f919085169063dd62ed3e90604401602060405180830381865afa15801561140b573d5f5f3e3d5ffd5b505050506040513d601f19601f8201168201806040525081019061142f9190611802565b90506108cc84846114408585611990565b6115b2565b610f1383846001600160a01b031663a9059cbb858560405160240161138c9291906117e9565b5f546001600160a01b0316331461034e5760405163118cdaa760e01b8152336004820152602401610fce565b5f80546001600160a01b038381166001600160a01b0319831681178455604051919092169283917f8be0079c531659141344cd1fd0a4f28419497f9722a3daafe3b4186f6b6457e09190a35050565b6114ee611333565b6002805460ff191660011790557f62e78cea01bee320cd4e420270b5ea74000d11b0c9f74754ebdbfc544b05a2586112ec3390565b60025460ff1661034e57604051638dfc202b60e01b815260040160405180910390fd5b5f5f60205f8451602086015f885af180611565576040513d5f823e3d81fd5b50505f513d9150811561157c578060011415611589565b6001600160a01b0384163b155b156108cc57604051635274afe760e01b81526001600160a01b0385166004820152602401610fce565b5f836001600160a01b031663095ea7b384846040516024016115d59291906117e9565b604051602081830303815290604052915060e01b6020820180516001600160e01b038381831617835250505050905061160e8482611642565b6108cc5761163884856001600160a01b031663095ea7b3865f60405160240161138c9291906117e9565b6108cc8482611546565b5f5f5f5f60205f8651602088015f8a5af192503d91505f519050828015611681575081156116735780600114611681565b5f866001600160a01b03163b115b93505050505b92915050565b6001600160a01b0381168114610fe0575f5ffd5b5f5f604083850312156116b2575f5ffd5b82356116bd8161168d565b946020939093013593505050565b5f5f5f606084860312156116dd575f5ffd5b83356116e88161168d565b92506020840135915060408401356116ff8161168d565b809150509250925092565b5f5f5f6060848603121561171c575f5ffd5b83356117278161168d565b95602085013595506040909401359392505050565b5f8151808452602084019350602083015f5b828110156117755781516001600160a01b031686526020958601959091019060010161174e565b5093949350505050565b602081525f611791602083018461173c565b9392505050565b5f602082840312156117a8575f5ffd5b81356117918161168d565b5f602082840312156117c3575f5ffd5b5035919050565b5f602082840312156117da575f5ffd5b81518015158114611791575f5ffd5b6001600160a01b03929092168252602082015260400190565b5f60208284031215611812575f5ffd5b5051919050565b634e487b7160e01b5f52601160045260245ffd5b808202811582820484141761168757611687611819565b5f8261185e57634e487b7160e01b5f52601260045260245ffd5b500490565b8181038181111561168757611687611819565b6001600160a01b03831681526040602082018190525f906118999083018461173c565b949350505050565b634e487b7160e01b5f52604160045260245ffd5b80516118c08161168d565b919050565b5f602082840312156118d5575f5ffd5b815167ffffffffffffffff8111156118eb575f5ffd5b8201601f810184136118fb575f5ffd5b805167ffffffffffffffff811115611915576119156118a1565b8060051b604051601f19603f830116810181811067ffffffffffffffff82111715611942576119426118a1565b60405291825260208184018101929081018784111561195f575f5ffd5b6020850194505b8385101561198557611977856118b5565b815260209485019401611966565b509695505050505050565b808201808211156116875761168761181956fea2646970667358221220fb4f10b59c90ecc4e11d87b1bcf28008d91f28c033fbcd784dc9974f35ea232764736f6c634300081c0033",
  "linkReferences": {},
  "deployedLinkReferences": {},
  "immutableReferences": {
    "5015": [
      {
        "length": 32,
        "start": 485
      },
      {
        "length": 32,
        "start": 1384
      },
      {
        "length": 32,
        "start": 1444
      },
      {
        "length": 32,
        "start": 2130
      },
      {
        "length": 32,
        "start": 2416
      },
      {
        "length": 32,
        "start": 3167
      },
      {
        "length": 32,
        "start": 3649
      },
      {
        "length": 32,
        "start": 3868
      },
      {
        "length": 32,
        "start": 4464
      }
    ],
    "5019": [
      {
        "length": 32,
        "start": 293
      },
      {
        "length": 32,
        "start": 1241
      },
      {
        "length": 32,
        "start": 1616
      },
      {
        "length": 32,
        "start": 2643
      },
      {
        "length": 32,
        "start": 2794
      },
      {
        "length": 32,
        "start": 3528
      },
      {
        "length": 32,
        "start": 4093
      }
    ],
    "5023": [
      {
        "length": 32,
        "start": 612
      },
      {
        "length": 32,
        "start": 927
      },
      {
        "length": 32,
        "start": 1107
      },
      {
        "length": 32,
        "start": 2461
      },
      {
        "length": 32,
        "start": 2992
      },
      {
        "length": 32,
        "start": 3312
      },
      {
        "length": 32,
        "start": 4312
      }
    ],
    "5026": [
      {
        "length": 32,
        "start": 552
      },
      {
        "length": 32,
        "start": 773
      },
      {
        "length": 32,
        "start": 1843
      },
      {
        "length": 32,
        "start": 2307
      },
      {
        "length": 32,
        "start": 4622
      }
    ]
  },
  "inputSourceName": "project/contracts/BriqVault.sol",
  "buildInfoId": "solc-0_8_28-57ab543688e6c328e828a1b3bdadffa1f2d7984c"
}