{
  "_format": "hh-sol-artifact-1",
  "contractName": "BriqVault",
  "sourceName": "contracts/BriqVault.sol",
  "abi": [
    {
      "inputs": [
        {
          "internalType": "address",
          "name": "_coordinator",
          "type": "address"
        },
        {
          "internalType": "address",
          "name": "_briqShares",
          "type": "address"
        },
        {
          "internalType": "address",
          "name": "_priceFeedManager",
          "type": "address"
        }
      ],
      "stateMutability": "nonpayable",
      "type": "constructor"
    },
    {
      "inputs": [],
      "name": "InsufficientLiquidity",
      "type": "error"
    },
    {
      "inputs": [],
      "name": "InvalidAddress",
      "type": "error"
    },
    {
      "inputs": [],
      "name": "InvalidAmount",
      "type": "error"
    },
    {
      "inputs": [],
      "name": "InvalidShares",
      "type": "error"
    },
    {
      "inputs": [
        {
          "internalType": "address",
          "name": "owner",
          "type": "address"
        }
      ],
      "name": "OwnableInvalidOwner",
      "type": "error"
    },
    {
      "inputs": [
        {
          "internalType": "address",
          "name": "account",
          "type": "address"
        }
      ],
      "name": "OwnableUnauthorizedAccount",
      "type": "error"
    },
    {
      "inputs": [],
      "name": "PriceFeedNotFound",
      "type": "error"
    },
    {
      "inputs": [],
      "name": "ReentrancyGuardReentrantCall",
      "type": "error"
    },
    {
      "anonymous": false,
      "inputs": [
        {
          "indexed": true,
          "internalType": "address",
          "name": "previousOwner",
          "type": "address"
        },
        {
          "indexed": true,
          "internalType": "address",
          "name": "newOwner",
          "type": "address"
        }
      ],
      "name": "OwnershipTransferred",
      "type": "event"
    },
    {
      "anonymous": false,
      "inputs": [
        {
          "indexed": true,
          "internalType": "address",
          "name": "user",
          "type": "address"
        },
        {
          "indexed": true,
          "internalType": "address",
          "name": "token",
          "type": "address"
        },
        {
          "indexed": false,
          "internalType": "uint256",
          "name": "amount",
          "type": "uint256"
        },
        {
          "indexed": false,
          "internalType": "uint256",
          "name": "usdValue",
          "type": "uint256"
        },
        {
          "indexed": false,
          "internalType": "uint256",
          "name": "sharesMinted",
          "type": "uint256"
        }
      ],
      "name": "UserDeposited",
      "type": "event"
    },
    {
      "anonymous": false,
      "inputs": [
        {
          "indexed": true,
          "internalType": "address",
          "name": "user",
          "type": "address"
        },
        {
          "indexed": true,
          "internalType": "address",
          "name": "token",
          "type": "address"
        },
        {
          "indexed": false,
          "internalType": "uint256",
          "name": "amount",
          "type": "uint256"
        },
        {
          "indexed": false,
          "internalType": "uint256",
          "name": "sharesBurned",
          "type": "uint256"
        }
      ],
      "name": "UserWithdrew",
      "type": "event"
    },
    {
      "inputs": [],
      "name": "briqShares",
      "outputs": [
        {
          "internalType": "contract BriqShares",
          "name": "",
          "type": "address"
        }
      ],
      "stateMutability": "view",
      "type": "function"
    },
    {
      "inputs": [
        {
          "internalType": "address",
          "name": "_token",
          "type": "address"
        },
        {
          "internalType": "uint256",
          "name": "_shares",
          "type": "uint256"
        }
      ],
      "name": "checkWithdrawalAvailability",
      "outputs": [
        {
          "internalType": "bool",
          "name": "canWithdrawFull",
          "type": "bool"
        },
        {
          "internalType": "uint256",
          "name": "availableAmount",
          "type": "uint256"
        },
        {
          "internalType": "uint256",
          "name": "idealAmount",
          "type": "uint256"
        }
      ],
      "stateMutability": "view",
      "type": "function"
    },
    {
      "inputs": [
        {
          "internalType": "address",
          "name": "_token",
          "type": "address"
        },
        {
          "internalType": "uint256",
          "name": "_amount",
          "type": "uint256"
        }
      ],
      "name": "deposit",
      "outputs": [],
      "stateMutability": "nonpayable",
      "type": "function"
    },
    {
      "inputs": [],
      "name": "getSupportedTokens",
      "outputs": [
        {
          "internalType": "address[]",
          "name": "",
          "type": "address[]"
        }
      ],
      "stateMutability": "view",
      "type": "function"
    },
    {
      "inputs": [],
      "name": "getTotalVaultValueInUSD",
      "outputs": [
        {
          "internalType": "uint256",
          "name": "totalUsdValue",
          "type": "uint256"
        }
      ],
      "stateMutability": "view",
      "type": "function"
    },
    {
      "inputs": [],
      "name": "owner",
      "outputs": [
        {
          "internalType": "address",
          "name": "",
          "type": "address"
        }
      ],
      "stateMutability": "view",
      "type": "function"
    },
    {
      "inputs": [],
      "name": "priceFeedManager",
      "outputs": [
        {
          "internalType": "contract PriceFeedManager",
          "name": "",
          "type": "address"
        }
      ],
      "stateMutability": "view",
      "type": "function"
    },
    {
      "inputs": [],
      "name": "renounceOwnership",
      "outputs": [],
      "stateMutability": "nonpayable",
      "type": "function"
    },
    {
      "inputs": [],
      "name": "strategyCoordinator",
      "outputs": [
        {
          "internalType": "contract StrategyCoordinator",
          "name": "",
          "type": "address"
        }
      ],
      "stateMutability": "view",
      "type": "function"
    },
    {
      "inputs": [
        {
          "internalType": "address",
          "name": "newOwner",
          "type": "address"
        }
      ],
      "name": "transferOwnership",
      "outputs": [],
      "stateMutability": "nonpayable",
      "type": "function"
    },
    {
      "inputs": [
        {
          "internalType": "address",
          "name": "_newPriceFeedManager",
          "type": "address"
        }
      ],
      "name": "updatePriceFeedManager",
      "outputs": [],
      "stateMutability": "nonpayable",
      "type": "function"
    },
    {
      "inputs": [
        {
          "internalType": "address",
          "name": "_token",
          "type": "address"
        },
        {
          "internalType": "uint256",
          "name": "_shares",
          "type": "uint256"
        }
      ],
      "name": "withdraw",
      "outputs": [],
      "stateMutability": "nonpayable",
      "type": "function"
    }
  ],
  "bytecode": "0x608060405234801561001057600080fd5b506040516112e23803806112e283398101604081905261002f9161015e565b338061005557604051631e4fbdf760e01b81526000600482015260240160405180910390fd5b61005e816100f2565b50600180556001600160a01b038316158061008057506001600160a01b038216155b8061009257506001600160a01b038116155b156100b05760405163e6c4247b60e01b815260040160405180910390fd5b600280546001600160a01b039485166001600160a01b0319918216179091556003805493851693821693909317909255600480549190931691161790556101a1565b600080546001600160a01b038381166001600160a01b0319831681178455604051919092169283917f8be0079c531659141344cd1fd0a4f28419497f9722a3daafe3b4186f6b6457e09190a35050565b80516001600160a01b038116811461015957600080fd5b919050565b60008060006060848603121561017357600080fd5b61017c84610142565b925061018a60208501610142565b915061019860408501610142565b90509250925092565b611132806101b06000396000f3fe608060405234801561001057600080fd5b50600436106100b45760003560e01c8063afc10c3211610071578063afc10c3214610140578063d3c7c2c714610153578063e0d1ea1e14610168578063f2fde38b1461017b578063f39ef5261461018e578063f3fef3a3146101be57600080fd5b806330e8b2d2146100b957806347e7ef24146100e957806371214406146100fe578063715018a61461011157806384598a4f146101195780638da5cb5b1461012f575b600080fd5b6003546100cc906001600160a01b031681565b6040516001600160a01b0390911681526020015b60405180910390f35b6100fc6100f7366004610e91565b6101d1565b005b6100fc61010c366004610ebd565b6105ce565b6100fc61061f565b610121610633565b6040519081526020016100e0565b6000546001600160a01b03166100cc565b6002546100cc906001600160a01b031681565b61015b6106bd565b6040516100e09190610f26565b6004546100cc906001600160a01b031681565b6100fc610189366004610ebd565b610734565b6101a161019c366004610e91565b610777565b6040805193151584526020840192909252908201526060016100e0565b6100fc6101cc366004610e91565b61093d565b6101d9610dd5565b806000036101fa5760405163162908e360e11b815260040160405180910390fd5b600480546040516305bcc1d160e11b81526001600160a01b0385811693820193909352911690630b7983a290602401602060405180830381865afa158015610246573d6000803e3d6000fd5b505050506040513d601f19601f8201168201806040525081019061026a9190610f39565b61028757604051630295d7cd60e31b815260040160405180910390fd5b6040516323b872dd60e01b8152336004820152306024820152604481018290526001600160a01b038316906323b872dd906064016020604051808303816000875af11580156102da573d6000803e3d6000fd5b505050506040513d601f19601f820116820180604052508101906102fe9190610f39565b506004805460405163864bc41960e01b81526000926001600160a01b039092169163864bc41991610333918791879101610f5b565b602060405180830381865afa158015610350573d6000803e3d6000fd5b505050506040513d601f19601f820116820180604052508101906103749190610f74565b90506000610380610633565b90506000600360009054906101000a90046001600160a01b03166001600160a01b03166318160ddd6040518163ffffffff1660e01b8152600401602060405180830381865afa1580156103d7573d6000803e3d6000fd5b505050506040513d601f19601f820116820180604052508101906103fb9190610f74565b60025460405163095ea7b360e01b81529192506001600160a01b038088169263095ea7b3926104309216908890600401610f5b565b6020604051808303816000875af115801561044f573d6000803e3d6000fd5b505050506040513d601f19601f820116820180604052508101906104739190610f39565b506002546040516311f9fbc960e21b81526001600160a01b03909116906347e7ef24906104a69088908890600401610f5b565b600060405180830381600087803b1580156104c057600080fd5b505af11580156104d4573d6000803e3d6000fd5b50505050600081600014806104e7575082155b156104f357508261050b565b826104fe8386610f8d565b6105089190610fb8565b90505b6003546040516340c10f1960e01b81526001600160a01b03909116906340c10f199061053d9033908590600401610f5b565b600060405180830381600087803b15801561055757600080fd5b505af115801561056b573d6000803e3d6000fd5b505060408051888152602081018890529081018490526001600160a01b03891692503391507f8f8f41ccfda7c150e1e3e4938de64ccdc425d33ec40e88435e45910725ffa3e49060600160405180910390a3505050506105ca60018055565b5050565b6105d6610dff565b6001600160a01b0381166105fd5760405163e6c4247b60e01b815260040160405180910390fd5b600480546001600160a01b0319166001600160a01b0392909216919091179055565b610627610dff565b6106316000610e2c565b565b60008061063e6106bd565b60025460048054604051637508934360e01b81529394506001600160a01b039283169363750893439361067693921691869101610fda565b602060405180830381865afa158015610693573d6000803e3d6000fd5b505050506040513d601f19601f820116820180604052508101906106b79190610f74565b91505090565b6002546040805163d3c7c2c760e01b815290516060926001600160a01b03169163d3c7c2c79160048083019260009291908290030181865afa158015610707573d6000803e3d6000fd5b505050506040513d6000823e601f3d908101601f1916820160405261072f919081019061102c565b905090565b61073c610dff565b6001600160a01b03811661076b57604051631e4fbdf760e01b8152600060048201526024015b60405180910390fd5b61077481610e2c565b50565b60008060008360000361079257506000915081905080610936565b600354604080516318160ddd60e01b815290516000926001600160a01b0316916318160ddd9160048083019260209291908290030181865afa1580156107dc573d6000803e3d6000fd5b505050506040513d601f19601f820116820180604052508101906108009190610f74565b9050600061080c610633565b9050811580610819575080155b156108305760008060009450945094505050610936565b60008261083d8389610f8d565b6108479190610fb8565b600480546040516341547ca760e11b81529293506001600160a01b0316916382a8f94e91610879918c91869101610f5b565b602060405180830381865afa158015610896573d6000803e3d6000fd5b505050506040513d601f19601f820116820180604052508101906108ba9190610f74565b60025460405163adad19bd60e01b81526001600160a01b038b8116600483015292965091169063adad19bd90602401602060405180830381865afa158015610906573d6000803e3d6000fd5b505050506040513d601f19601f8201168201806040525081019061092a9190610f74565b94508385101595505050505b9250925092565b610945610dd5565b806000036109665760405163162908e360e11b815260040160405180910390fd5b6003546040516370a0823160e01b81523360048201526000916001600160a01b0316906370a0823190602401602060405180830381865afa1580156109af573d6000803e3d6000fd5b505050506040513d601f19601f820116820180604052508101906109d39190610f74565b9050808211156109f657604051636edcc52360e01b815260040160405180910390fd5b600354604080516318160ddd60e01b815290516000926001600160a01b0316916318160ddd9160048083019260209291908290030181865afa158015610a40573d6000803e3d6000fd5b505050506040513d601f19601f82011682018060405250810190610a649190610f74565b90506000610a70610633565b905080600003610a935760405163bb55fd2760e01b815260040160405180910390fd5b600082610aa08387610f8d565b610aaa9190610fb8565b600480546040516341547ca760e11b81529293506000926001600160a01b03909116916382a8f94e91610ae1918b91879101610f5b565b602060405180830381865afa158015610afe573d6000803e3d6000fd5b505050506040513d601f19601f82011682018060405250810190610b229190610f74565b60025460405163adad19bd60e01b81526001600160a01b038a811660048301529293506000929091169063adad19bd90602401602060405180830381865afa158015610b72573d6000803e3d6000fd5b505050506040513d601f19601f82011682018060405250810190610b969190610f74565b9050818782821115610c44576004805460405163864bc41960e01b81528594506000926001600160a01b039092169163864bc41991610bd9918f91889101610f5b565b602060405180830381865afa158015610bf6573d6000803e3d6000fd5b505050506040513d601f19601f82011682018060405250810190610c1a9190610f74565b905086610c278983610f8d565b610c319190610fb8565b915089821115610c42578991508492505b505b600354604051632770a7eb60e21b81526001600160a01b0390911690639dc29fac90610c769033908590600401610f5b565b600060405180830381600087803b158015610c9057600080fd5b505af1158015610ca4573d6000803e3d6000fd5b505060025460405163f3fef3a360e01b81526001600160a01b03909116925063f3fef3a39150610cda908d908690600401610f5b565b600060405180830381600087803b158015610cf457600080fd5b505af1158015610d08573d6000803e3d6000fd5b505060405163a9059cbb60e01b81526001600160a01b038d16925063a9059cbb9150610d3a9033908690600401610f5b565b6020604051808303816000875af1158015610d59573d6000803e3d6000fd5b505050506040513d601f19601f82011682018060405250810190610d7d9190610f39565b5060408051838152602081018390526001600160a01b038c169133917f5381f8b51319066647de19ad4a1889272b1a02d7d4ac29cc33b4ffbe37804501910160405180910390a350505050505050506105ca60018055565b600260015403610df857604051633ee5aeb560e01b815260040160405180910390fd5b6002600155565b6000546001600160a01b031633146106315760405163118cdaa760e01b8152336004820152602401610762565b600080546001600160a01b038381166001600160a01b0319831681178455604051919092169283917f8be0079c531659141344cd1fd0a4f28419497f9722a3daafe3b4186f6b6457e09190a35050565b6001600160a01b038116811461077457600080fd5b60008060408385031215610ea457600080fd5b8235610eaf81610e7c565b946020939093013593505050565b600060208284031215610ecf57600080fd5b8135610eda81610e7c565b9392505050565b600081518084526020840193506020830160005b82811015610f1c5781516001600160a01b0316865260209586019590910190600101610ef5565b5093949350505050565b602081526000610eda6020830184610ee1565b600060208284031215610f4b57600080fd5b81518015158114610eda57600080fd5b6001600160a01b03929092168252602082015260400190565b600060208284031215610f8657600080fd5b5051919050565b8082028115828204841417610fb257634e487b7160e01b600052601160045260246000fd5b92915050565b600082610fd557634e487b7160e01b600052601260045260246000fd5b500490565b6001600160a01b0383168152604060208201819052600090610ffe90830184610ee1565b949350505050565b634e487b7160e01b600052604160045260246000fd5b805161102781610e7c565b919050565b60006020828403121561103e57600080fd5b815167ffffffffffffffff81111561105557600080fd5b8201601f8101841361106657600080fd5b805167ffffffffffffffff81111561108057611080611006565b8060051b604051601f19603f830116810181811067ffffffffffffffff821117156110ad576110ad611006565b6040529182526020818401810192908101878411156110cb57600080fd5b6020850194505b838510156110f1576110e38561101c565b8152602094850194016110d2565b50969550505050505056fea2646970667358221220a622963aaaf10039d7442c6ca8b4ba65381b12e5acc093826c1f95dd59d6c0f964736f6c634300081c0033",
  "linkReferences": {},
  "deployedLinkReferences": {}
}