{
  "_format": "hh-sol-artifact-1",
  "contractName": "BriqVault",
  "sourceName": "contracts/BriqVault.sol",
  "abi": [
    {
      "inputs": [
        {
          "internalType": "address",
          "name": "_coordinator",
          "type": "address"
        },
        {
          "internalType": "address",
          "name": "_briqShares",
          "type": "address"
        },
        {
          "internalType": "address",
          "name": "_priceFeedManager",
          "type": "address"
        }
      ],
      "stateMutability": "nonpayable",
      "type": "constructor"
    },
    {
      "inputs": [],
      "name": "InvalidAddress",
      "type": "error"
    },
    {
      "inputs": [],
      "name": "InvalidAmount",
      "type": "error"
    },
    {
      "inputs": [],
      "name": "InvalidShares",
      "type": "error"
    },
    {
      "inputs": [
        {
          "internalType": "address",
          "name": "owner",
          "type": "address"
        }
      ],
      "name": "OwnableInvalidOwner",
      "type": "error"
    },
    {
      "inputs": [
        {
          "internalType": "address",
          "name": "account",
          "type": "address"
        }
      ],
      "name": "OwnableUnauthorizedAccount",
      "type": "error"
    },
    {
      "inputs": [],
      "name": "PriceFeedNotFound",
      "type": "error"
    },
    {
      "inputs": [],
      "name": "ReentrancyGuardReentrantCall",
      "type": "error"
    },
    {
      "anonymous": false,
      "inputs": [
        {
          "indexed": true,
          "internalType": "address",
          "name": "previousOwner",
          "type": "address"
        },
        {
          "indexed": true,
          "internalType": "address",
          "name": "newOwner",
          "type": "address"
        }
      ],
      "name": "OwnershipTransferred",
      "type": "event"
    },
    {
      "anonymous": false,
      "inputs": [
        {
          "indexed": true,
          "internalType": "address",
          "name": "user",
          "type": "address"
        },
        {
          "indexed": true,
          "internalType": "address",
          "name": "token",
          "type": "address"
        },
        {
          "indexed": false,
          "internalType": "uint256",
          "name": "amount",
          "type": "uint256"
        },
        {
          "indexed": false,
          "internalType": "uint256",
          "name": "usdValue",
          "type": "uint256"
        },
        {
          "indexed": false,
          "internalType": "uint256",
          "name": "sharesMinted",
          "type": "uint256"
        }
      ],
      "name": "UserDeposited",
      "type": "event"
    },
    {
      "anonymous": false,
      "inputs": [
        {
          "indexed": true,
          "internalType": "address",
          "name": "user",
          "type": "address"
        },
        {
          "indexed": true,
          "internalType": "address",
          "name": "token",
          "type": "address"
        },
        {
          "indexed": false,
          "internalType": "uint256",
          "name": "amount",
          "type": "uint256"
        },
        {
          "indexed": false,
          "internalType": "uint256",
          "name": "sharesBurned",
          "type": "uint256"
        }
      ],
      "name": "UserWithdrew",
      "type": "event"
    },
    {
      "inputs": [],
      "name": "briqShares",
      "outputs": [
        {
          "internalType": "contract BriqShares",
          "name": "",
          "type": "address"
        }
      ],
      "stateMutability": "view",
      "type": "function"
    },
    {
      "inputs": [
        {
          "internalType": "address",
          "name": "_token",
          "type": "address"
        },
        {
          "internalType": "uint256",
          "name": "_amount",
          "type": "uint256"
        }
      ],
      "name": "deposit",
      "outputs": [],
      "stateMutability": "nonpayable",
      "type": "function"
    },
    {
      "inputs": [],
      "name": "getSupportedTokens",
      "outputs": [
        {
          "internalType": "address[]",
          "name": "",
          "type": "address[]"
        }
      ],
      "stateMutability": "pure",
      "type": "function"
    },
    {
      "inputs": [],
      "name": "getTotalVaultValueInUSD",
      "outputs": [
        {
          "internalType": "uint256",
          "name": "totalUsdValue",
          "type": "uint256"
        }
      ],
      "stateMutability": "view",
      "type": "function"
    },
    {
      "inputs": [],
      "name": "owner",
      "outputs": [
        {
          "internalType": "address",
          "name": "",
          "type": "address"
        }
      ],
      "stateMutability": "view",
      "type": "function"
    },
    {
      "inputs": [],
      "name": "priceFeedManager",
      "outputs": [
        {
          "internalType": "contract PriceFeedManager",
          "name": "",
          "type": "address"
        }
      ],
      "stateMutability": "view",
      "type": "function"
    },
    {
      "inputs": [],
      "name": "renounceOwnership",
      "outputs": [],
      "stateMutability": "nonpayable",
      "type": "function"
    },
    {
      "inputs": [],
      "name": "strategyCoordinator",
      "outputs": [
        {
          "internalType": "contract StrategyCoordinator",
          "name": "",
          "type": "address"
        }
      ],
      "stateMutability": "view",
      "type": "function"
    },
    {
      "inputs": [
        {
          "internalType": "address",
          "name": "newOwner",
          "type": "address"
        }
      ],
      "name": "transferOwnership",
      "outputs": [],
      "stateMutability": "nonpayable",
      "type": "function"
    },
    {
      "inputs": [
        {
          "internalType": "address",
          "name": "_newPriceFeedManager",
          "type": "address"
        }
      ],
      "name": "updatePriceFeedManager",
      "outputs": [],
      "stateMutability": "nonpayable",
      "type": "function"
    },
    {
      "inputs": [
        {
          "internalType": "address",
          "name": "_token",
          "type": "address"
        },
        {
          "internalType": "uint256",
          "name": "_shares",
          "type": "uint256"
        }
      ],
      "name": "withdraw",
      "outputs": [],
      "stateMutability": "nonpayable",
      "type": "function"
    }
  ],
  "bytecode": "0x608060405234801561001057600080fd5b50604051610fdf380380610fdf83398101604081905261002f9161015e565b338061005557604051631e4fbdf760e01b81526000600482015260240160405180910390fd5b61005e816100f2565b50600180556001600160a01b038316158061008057506001600160a01b038216155b8061009257506001600160a01b038116155b156100b05760405163e6c4247b60e01b815260040160405180910390fd5b600280546001600160a01b039485166001600160a01b0319918216179091556003805493851693821693909317909255600480549190931691161790556101a1565b600080546001600160a01b038381166001600160a01b0319831681178455604051919092169283917f8be0079c531659141344cd1fd0a4f28419497f9722a3daafe3b4186f6b6457e09190a35050565b80516001600160a01b038116811461015957600080fd5b919050565b60008060006060848603121561017357600080fd5b61017c84610142565b925061018a60208501610142565b915061019860408501610142565b90509250925092565b610e2f806101b06000396000f3fe608060405234801561001057600080fd5b50600436106100a95760003560e01c80638da5cb5b116100715780638da5cb5b14610124578063afc10c3214610135578063d3c7c2c714610148578063e0d1ea1e1461015d578063f2fde38b14610170578063f3fef3a31461018357600080fd5b806330e8b2d2146100ae57806347e7ef24146100de57806371214406146100f3578063715018a61461010657806384598a4f1461010e575b600080fd5b6003546100c1906001600160a01b031681565b6040516001600160a01b0390911681526020015b60405180910390f35b6100f16100ec366004610ca8565b610196565b005b6100f1610101366004610cd2565b61059d565b6100f16105ee565b610116610602565b6040519081526020016100d5565b6000546001600160a01b03166100c1565b6002546100c1906001600160a01b031681565b6101506107bc565b6040516100d59190610cf4565b6004546100c1906001600160a01b031681565b6100f161017e366004610cd2565b61086e565b6100f1610191366004610ca8565b6108b1565b61019e610be5565b806000036101bf5760405163162908e360e11b815260040160405180910390fd5b600480546040516305bcc1d160e11b81526001600160a01b0385811693820193909352911690630b7983a290602401602060405180830381865afa15801561020b573d6000803e3d6000fd5b505050506040513d601f19601f8201168201806040525081019061022f9190610d40565b61024c57604051630295d7cd60e31b815260040160405180910390fd5b6040516323b872dd60e01b8152336004820152306024820152604481018290526001600160a01b038316906323b872dd906064016020604051808303816000875af115801561029f573d6000803e3d6000fd5b505050506040513d601f19601f820116820180604052508101906102c39190610d40565b506004805460405163864bc41960e01b81526001600160a01b0385811693820193909352602481018490526000929091169063864bc41990604401602060405180830381865afa15801561031b573d6000803e3d6000fd5b505050506040513d601f19601f8201168201806040525081019061033f9190610d62565b9050600061034b610602565b90506000600360009054906101000a90046001600160a01b03166001600160a01b03166318160ddd6040518163ffffffff1660e01b8152600401602060405180830381865afa1580156103a2573d6000803e3d6000fd5b505050506040513d601f19601f820116820180604052508101906103c69190610d62565b60025460405163095ea7b360e01b81526001600160a01b0391821660048201526024810187905291925086169063095ea7b3906044016020604051808303816000875af115801561041b573d6000803e3d6000fd5b505050506040513d601f19601f8201168201806040525081019061043f9190610d40565b506002546040516311f9fbc960e21b81526001600160a01b03878116600483015260248201879052909116906347e7ef2490604401600060405180830381600087803b15801561048e57600080fd5b505af11580156104a2573d6000803e3d6000fd5b50505050600081600014806104b5575082155b156104c15750826104d9565b826104cc8386610d91565b6104d69190610dae565b90505b6003546040516340c10f1960e01b8152336004820152602481018390526001600160a01b03909116906340c10f1990604401600060405180830381600087803b15801561052557600080fd5b505af1158015610539573d6000803e3d6000fd5b505060408051888152602081018890529081018490526001600160a01b03891692503391507f8f8f41ccfda7c150e1e3e4938de64ccdc425d33ec40e88435e45910725ffa3e4906060015b60405180910390a35050505061059960018055565b5050565b6105a5610c0f565b6001600160a01b0381166105cc5760405163e6c4247b60e01b815260040160405180910390fd5b600480546001600160a01b0319166001600160a01b0392909216919091179055565b6105f6610c0f565b6106006000610c3c565b565b60008061060d6107bc565b905060005b81518110156107b757600082828151811061062f5761062f610dd0565b6020908102919091010151600480546040516305bcc1d160e11b81526001600160a01b03808516938201939093529293501690630b7983a290602401602060405180830381865afa158015610688573d6000803e3d6000fd5b505050506040513d601f19601f820116820180604052508101906106ac9190610d40565b156107ae5760025460405163adad19bd60e01b81526001600160a01b038381166004830152600092169063adad19bd90602401602060405180830381865afa1580156106fc573d6000803e3d6000fd5b505050506040513d601f19601f820116820180604052508101906107209190610d62565b905080156107ac576004805460405163864bc41960e01b81526001600160a01b03858116938201939093526024810184905291169063864bc41990604401602060405180830381865afa15801561077b573d6000803e3d6000fd5b505050506040513d601f19601f8201168201806040525081019061079f9190610d62565b6107a99086610de6565b94505b505b50600101610612565b505090565b6040805160028082526060808301845292600092919060208301908036833701905050905073af88d065e77c8cc2239327c5edb3a432268e58318160008151811061080957610809610dd0565b60200260200101906001600160a01b031690816001600160a01b0316815250507382af49447d8a07e3bd95bd0d56f35241523fbab18160018151811061085157610851610dd0565b6001600160a01b0390921660209283029190910190910152919050565b610876610c0f565b6001600160a01b0381166108a557604051631e4fbdf760e01b8152600060048201526024015b60405180910390fd5b6108ae81610c3c565b50565b6108b9610be5565b806000036108da5760405163162908e360e11b815260040160405180910390fd5b6003546040516370a0823160e01b81523360048201526000916001600160a01b0316906370a0823190602401602060405180830381865afa158015610923573d6000803e3d6000fd5b505050506040513d601f19601f820116820180604052508101906109479190610d62565b90508082111561096a57604051636edcc52360e01b815260040160405180910390fd5b600354604080516318160ddd60e01b815290516000926001600160a01b0316916318160ddd9160048083019260209291908290030181865afa1580156109b4573d6000803e3d6000fd5b505050506040513d601f19601f820116820180604052508101906109d89190610d62565b60025460405163adad19bd60e01b81526001600160a01b0387811660048301529293506000929091169063adad19bd90602401602060405180830381865afa158015610a28573d6000803e3d6000fd5b505050506040513d601f19601f82011682018060405250810190610a4c9190610d62565b9050600082610a5b8387610d91565b610a659190610dae565b600354604051632770a7eb60e21b8152336004820152602481018890529192506001600160a01b031690639dc29fac90604401600060405180830381600087803b158015610ab257600080fd5b505af1158015610ac6573d6000803e3d6000fd5b505060025460405163f3fef3a360e01b81526001600160a01b038a8116600483015260248201869052909116925063f3fef3a39150604401600060405180830381600087803b158015610b1857600080fd5b505af1158015610b2c573d6000803e3d6000fd5b505060405163a9059cbb60e01b8152336004820152602481018490526001600160a01b038916925063a9059cbb91506044016020604051808303816000875af1158015610b7d573d6000803e3d6000fd5b505050506040513d601f19601f82011682018060405250810190610ba19190610d40565b5060408051828152602081018790526001600160a01b0388169133917f5381f8b51319066647de19ad4a1889272b1a02d7d4ac29cc33b4ffbe378045019101610584565b600260015403610c0857604051633ee5aeb560e01b815260040160405180910390fd5b6002600155565b6000546001600160a01b031633146106005760405163118cdaa760e01b815233600482015260240161089c565b600080546001600160a01b038381166001600160a01b0319831681178455604051919092169283917f8be0079c531659141344cd1fd0a4f28419497f9722a3daafe3b4186f6b6457e09190a35050565b80356001600160a01b0381168114610ca357600080fd5b919050565b60008060408385031215610cbb57600080fd5b610cc483610c8c565b946020939093013593505050565b600060208284031215610ce457600080fd5b610ced82610c8c565b9392505050565b602080825282518282018190526000918401906040840190835b81811015610d355783516001600160a01b0316835260209384019390920191600101610d0e565b509095945050505050565b600060208284031215610d5257600080fd5b81518015158114610ced57600080fd5b600060208284031215610d7457600080fd5b5051919050565b634e487b7160e01b600052601160045260246000fd5b8082028115828204841417610da857610da8610d7b565b92915050565b600082610dcb57634e487b7160e01b600052601260045260246000fd5b500490565b634e487b7160e01b600052603260045260246000fd5b80820180821115610da857610da8610d7b56fea2646970667358221220f439594b90abade9dd5af0d8ccffac2bda3f311cac8780ad15cd0905c91b29c164736f6c634300081c0033",
  "linkReferences": {},
  "deployedLinkReferences": {}
}