{
  "_format": "hh-sol-artifact-1",
  "contractName": "PriceFeedManager",
  "sourceName": "contracts/PriceFeedManager.sol",
  "abi": [
    {
      "inputs": [],
      "stateMutability": "nonpayable",
      "type": "constructor"
    },
    {
      "inputs": [],
      "name": "InvalidAddress",
      "type": "error"
    },
    {
      "inputs": [],
      "name": "InvalidPrice",
      "type": "error"
    },
    {
      "inputs": [
        {
          "internalType": "address",
          "name": "owner",
          "type": "address"
        }
      ],
      "name": "OwnableInvalidOwner",
      "type": "error"
    },
    {
      "inputs": [
        {
          "internalType": "address",
          "name": "account",
          "type": "address"
        }
      ],
      "name": "OwnableUnauthorizedAccount",
      "type": "error"
    },
    {
      "inputs": [],
      "name": "PriceFeedNotFound",
      "type": "error"
    },
    {
      "inputs": [],
      "name": "StalePrice",
      "type": "error"
    },
    {
      "anonymous": false,
      "inputs": [
        {
          "indexed": true,
          "internalType": "address",
          "name": "previousOwner",
          "type": "address"
        },
        {
          "indexed": true,
          "internalType": "address",
          "name": "newOwner",
          "type": "address"
        }
      ],
      "name": "OwnershipTransferred",
      "type": "event"
    },
    {
      "anonymous": false,
      "inputs": [
        {
          "indexed": true,
          "internalType": "address",
          "name": "token",
          "type": "address"
        },
        {
          "indexed": true,
          "internalType": "address",
          "name": "priceFeed",
          "type": "address"
        },
        {
          "indexed": false,
          "internalType": "uint8",
          "name": "decimals",
          "type": "uint8"
        }
      ],
      "name": "PriceFeedUpdated",
      "type": "event"
    },
    {
      "inputs": [
        {
          "internalType": "address",
          "name": "_token",
          "type": "address"
        },
        {
          "internalType": "uint256",
          "name": "_usdValue",
          "type": "uint256"
        }
      ],
      "name": "convertUsdToToken",
      "outputs": [
        {
          "internalType": "uint256",
          "name": "tokenAmount",
          "type": "uint256"
        }
      ],
      "stateMutability": "view",
      "type": "function"
    },
    {
      "inputs": [
        {
          "internalType": "address",
          "name": "_token",
          "type": "address"
        }
      ],
      "name": "getTokenPrice",
      "outputs": [
        {
          "internalType": "uint256",
          "name": "price",
          "type": "uint256"
        }
      ],
      "stateMutability": "view",
      "type": "function"
    },
    {
      "inputs": [
        {
          "internalType": "address",
          "name": "_token",
          "type": "address"
        },
        {
          "internalType": "uint256",
          "name": "_amount",
          "type": "uint256"
        }
      ],
      "name": "getTokenValueInUSD",
      "outputs": [
        {
          "internalType": "uint256",
          "name": "usdValue",
          "type": "uint256"
        }
      ],
      "stateMutability": "view",
      "type": "function"
    },
    {
      "inputs": [
        {
          "internalType": "address",
          "name": "_token",
          "type": "address"
        }
      ],
      "name": "hasPriceFeed",
      "outputs": [
        {
          "internalType": "bool",
          "name": "",
          "type": "bool"
        }
      ],
      "stateMutability": "view",
      "type": "function"
    },
    {
      "inputs": [],
      "name": "owner",
      "outputs": [
        {
          "internalType": "address",
          "name": "",
          "type": "address"
        }
      ],
      "stateMutability": "view",
      "type": "function"
    },
    {
      "inputs": [
        {
          "internalType": "address",
          "name": "",
          "type": "address"
        }
      ],
      "name": "priceFeeds",
      "outputs": [
        {
          "internalType": "contract AggregatorV3Interface",
          "name": "",
          "type": "address"
        }
      ],
      "stateMutability": "view",
      "type": "function"
    },
    {
      "inputs": [],
      "name": "renounceOwnership",
      "outputs": [],
      "stateMutability": "nonpayable",
      "type": "function"
    },
    {
      "inputs": [
        {
          "internalType": "address",
          "name": "_token",
          "type": "address"
        },
        {
          "internalType": "address",
          "name": "_priceFeed",
          "type": "address"
        },
        {
          "internalType": "uint8",
          "name": "_decimals",
          "type": "uint8"
        }
      ],
      "name": "setPriceFeed",
      "outputs": [],
      "stateMutability": "nonpayable",
      "type": "function"
    },
    {
      "inputs": [
        {
          "internalType": "address",
          "name": "",
          "type": "address"
        }
      ],
      "name": "tokenDecimals",
      "outputs": [
        {
          "internalType": "uint8",
          "name": "",
          "type": "uint8"
        }
      ],
      "stateMutability": "view",
      "type": "function"
    },
    {
      "inputs": [
        {
          "internalType": "address",
          "name": "newOwner",
          "type": "address"
        }
      ],
      "name": "transferOwnership",
      "outputs": [],
      "stateMutability": "nonpayable",
      "type": "function"
    }
  ],
  "bytecode": "0x6080604052348015600f57600080fd5b503380603557604051631e4fbdf760e01b81526000600482015260240160405180910390fd5b603c816041565b506091565b600080546001600160a01b038381166001600160a01b0319831681178455604051919092169283917f8be0079c531659141344cd1fd0a4f28419497f9722a3daafe3b4186f6b6457e09190a35050565b6107db806100a06000396000f3fe608060405234801561001057600080fd5b506004361061009e5760003560e01c80638ee573ac116100665780638ee573ac146101495780639dcb511a1461017e578063d02641a0146101a7578063f2fde38b146101ba578063fd4690b6146101cd57600080fd5b80630b7983a2146100a3578063715018a6146100e657806382a8f94e146100f0578063864bc419146101115780638da5cb5b14610124575b600080fd5b6100d16100b1366004610548565b6001600160a01b0390811660009081526001602052604090205416151590565b60405190151581526020015b60405180910390f35b6100ee6101e0565b005b6101036100fe36600461056a565b6101f4565b6040519081526020016100dd565b61010361011f36600461056a565b610258565b6000546001600160a01b03165b6040516001600160a01b0390911681526020016100dd565b61016c610157366004610548565b60026020526000908152604090205460ff1681565b60405160ff90911681526020016100dd565b61013161018c366004610548565b6001602052600090815260409020546001600160a01b031681565b6101036101b5366004610548565b6102a7565b6100ee6101c8366004610548565b6103ac565b6100ee6101db366004610594565b6103ef565b6101e86104af565b6101f260006104dc565b565b600080610200846102a7565b6001600160a01b03851660009081526002602052604090205490915060ff1661022e826402540be4006105f7565b61023982600a6106f5565b61024390866105f7565b61024d9190610704565b925050505b92915050565b600080610264846102a7565b6001600160a01b03851660009081526002602052604090205490915060ff1661028e81600a6106f5565b61029883866105f7565b610243906402540be4006105f7565b6001600160a01b03808216600090815260016020526040812054909116806102e257604051630295d7cd60e31b815260040160405180910390fd5b600080826001600160a01b031663feaf968c6040518163ffffffff1660e01b815260040160a060405180830381865afa158015610323573d6000803e3d6000fd5b505050506040513d601f19601f820116820180604052508101906103479190610740565b509350509250506000821361036e5760405162bfc92160e01b815260040160405180910390fd5b8015806103865750620151806103848242610792565b115b156103a457604051630cd5fa0760e11b815260040160405180910390fd5b509392505050565b6103b46104af565b6001600160a01b0381166103e357604051631e4fbdf760e01b8152600060048201526024015b60405180910390fd5b6103ec816104dc565b50565b6103f76104af565b6001600160a01b038316158061041457506001600160a01b038216155b156104325760405163e6c4247b60e01b815260040160405180910390fd5b6001600160a01b03838116600081815260016020908152604080832080546001600160a01b03191695881695861790556002825291829020805460ff191660ff871690811790915591519182527fd03dd51ffcbea74995df602bf6be1a03953e508c61930600b4d5f77038261aa7910160405180910390a3505050565b6000546001600160a01b031633146101f25760405163118cdaa760e01b81523360048201526024016103da565b600080546001600160a01b038381166001600160a01b0319831681178455604051919092169283917f8be0079c531659141344cd1fd0a4f28419497f9722a3daafe3b4186f6b6457e09190a35050565b80356001600160a01b038116811461054357600080fd5b919050565b60006020828403121561055a57600080fd5b6105638261052c565b9392505050565b6000806040838503121561057d57600080fd5b6105868361052c565b946020939093013593505050565b6000806000606084860312156105a957600080fd5b6105b28461052c565b92506105c06020850161052c565b9150604084013560ff811681146105d657600080fd5b809150509250925092565b634e487b7160e01b600052601160045260246000fd5b8082028115828204841417610252576102526105e1565b6001815b60018411156106495780850481111561062d5761062d6105e1565b600184161561063b57908102905b60019390931c928002610612565b935093915050565b60008261066057506001610252565b8161066d57506000610252565b8160018114610683576002811461068d576106a9565b6001915050610252565b60ff84111561069e5761069e6105e1565b50506001821b610252565b5060208310610133831016604e8410600b84101617156106cc575081810a610252565b6106d9600019848461060e565b80600019048211156106ed576106ed6105e1565b029392505050565b600061056360ff841683610651565b60008261072157634e487b7160e01b600052601260045260246000fd5b500490565b805169ffffffffffffffffffff8116811461054357600080fd5b600080600080600060a0868803121561075857600080fd5b61076186610726565b6020870151604088015160608901519297509095509350915061078660808701610726565b90509295509295909350565b81810381811115610252576102526105e156fea2646970667358221220bf227221956a38553ea1da15d0b8c7b60d4f2d4d02bba1ca47768b735912e40864736f6c634300081c0033",
  "linkReferences": {},
  "deployedLinkReferences": {}
}