{
  "_format": "hh-sol-artifact-1",
  "contractName": "StrategyCompoundComet",
  "sourceName": "contracts/strategies/StrategyCompoundComet.sol",
  "abi": [
    {
      "inputs": [],
      "stateMutability": "nonpayable",
      "type": "constructor"
    },
    {
      "inputs": [],
      "name": "InvalidAddress",
      "type": "error"
    },
    {
      "inputs": [],
      "name": "InvalidAmount",
      "type": "error"
    },
    {
      "inputs": [],
      "name": "NoPoolForToken",
      "type": "error"
    },
    {
      "inputs": [
        {
          "internalType": "address",
          "name": "owner",
          "type": "address"
        }
      ],
      "name": "OwnableInvalidOwner",
      "type": "error"
    },
    {
      "inputs": [
        {
          "internalType": "address",
          "name": "account",
          "type": "address"
        }
      ],
      "name": "OwnableUnauthorizedAccount",
      "type": "error"
    },
    {
      "inputs": [],
      "name": "PoolSupportUnchanged",
      "type": "error"
    },
    {
      "inputs": [],
      "name": "ReentrancyGuardReentrantCall",
      "type": "error"
    },
    {
      "inputs": [
        {
          "internalType": "address",
          "name": "token",
          "type": "address"
        }
      ],
      "name": "SafeERC20FailedOperation",
      "type": "error"
    },
    {
      "inputs": [],
      "name": "SameCoordinator",
      "type": "error"
    },
    {
      "inputs": [],
      "name": "TokenSupportUnchanged",
      "type": "error"
    },
    {
      "inputs": [],
      "name": "UnsupportedToken",
      "type": "error"
    },
    {
      "inputs": [],
      "name": "UnsupportedTokenForPool",
      "type": "error"
    },
    {
      "anonymous": false,
      "inputs": [
        {
          "indexed": true,
          "internalType": "address",
          "name": "coordinator",
          "type": "address"
        }
      ],
      "name": "CoordinatorUpdated",
      "type": "event"
    },
    {
      "anonymous": false,
      "inputs": [
        {
          "indexed": true,
          "internalType": "address",
          "name": "token",
          "type": "address"
        },
        {
          "indexed": false,
          "internalType": "uint256",
          "name": "amount",
          "type": "uint256"
        },
        {
          "indexed": false,
          "internalType": "uint256",
          "name": "totalDeposited",
          "type": "uint256"
        }
      ],
      "name": "Deposited",
      "type": "event"
    },
    {
      "anonymous": false,
      "inputs": [
        {
          "indexed": true,
          "internalType": "address",
          "name": "market",
          "type": "address"
        },
        {
          "indexed": false,
          "internalType": "bool",
          "name": "status",
          "type": "bool"
        },
        {
          "indexed": true,
          "internalType": "address",
          "name": "token",
          "type": "address"
        }
      ],
      "name": "MarketSupportUpdated",
      "type": "event"
    },
    {
      "anonymous": false,
      "inputs": [
        {
          "indexed": true,
          "internalType": "address",
          "name": "previousOwner",
          "type": "address"
        },
        {
          "indexed": true,
          "internalType": "address",
          "name": "newOwner",
          "type": "address"
        }
      ],
      "name": "OwnershipTransferred",
      "type": "event"
    },
    {
      "anonymous": false,
      "inputs": [
        {
          "indexed": true,
          "internalType": "address",
          "name": "token",
          "type": "address"
        },
        {
          "indexed": false,
          "internalType": "bool",
          "name": "status",
          "type": "bool"
        }
      ],
      "name": "TokenSupportUpdated",
      "type": "event"
    },
    {
      "anonymous": false,
      "inputs": [
        {
          "indexed": true,
          "internalType": "address",
          "name": "token",
          "type": "address"
        },
        {
          "indexed": false,
          "internalType": "uint256",
          "name": "amount",
          "type": "uint256"
        },
        {
          "indexed": false,
          "internalType": "uint256",
          "name": "totalWithdrawn",
          "type": "uint256"
        }
      ],
      "name": "Withdrawn",
      "type": "event"
    },
    {
      "inputs": [
        {
          "internalType": "address",
          "name": "_token",
          "type": "address"
        }
      ],
      "name": "balanceOf",
      "outputs": [
        {
          "internalType": "uint256",
          "name": "",
          "type": "uint256"
        }
      ],
      "stateMutability": "view",
      "type": "function"
    },
    {
      "inputs": [],
      "name": "coordinator",
      "outputs": [
        {
          "internalType": "address",
          "name": "",
          "type": "address"
        }
      ],
      "stateMutability": "view",
      "type": "function"
    },
    {
      "inputs": [
        {
          "internalType": "address",
          "name": "_token",
          "type": "address"
        },
        {
          "internalType": "uint256",
          "name": "_amount",
          "type": "uint256"
        }
      ],
      "name": "deposit",
      "outputs": [],
      "stateMutability": "nonpayable",
      "type": "function"
    },
    {
      "inputs": [
        {
          "internalType": "address",
          "name": "_token",
          "type": "address"
        }
      ],
      "name": "getAccruedInterestRewards",
      "outputs": [
        {
          "internalType": "uint256",
          "name": "rewards",
          "type": "uint256"
        }
      ],
      "stateMutability": "view",
      "type": "function"
    },
    {
      "inputs": [
        {
          "internalType": "address",
          "name": "_token",
          "type": "address"
        }
      ],
      "name": "getAccruedProtocolRewards",
      "outputs": [
        {
          "internalType": "uint256",
          "name": "rewards",
          "type": "uint256"
        }
      ],
      "stateMutability": "view",
      "type": "function"
    },
    {
      "inputs": [],
      "name": "getAllTokenAnalytics",
      "outputs": [
        {
          "internalType": "address[]",
          "name": "tokens",
          "type": "address[]"
        },
        {
          "internalType": "uint256[7][]",
          "name": "analytics",
          "type": "uint256[7][]"
        }
      ],
      "stateMutability": "view",
      "type": "function"
    },
    {
      "inputs": [
        {
          "internalType": "address",
          "name": "_token",
          "type": "address"
        }
      ],
      "name": "getCometMarket",
      "outputs": [
        {
          "internalType": "address",
          "name": "market",
          "type": "address"
        }
      ],
      "stateMutability": "view",
      "type": "function"
    },
    {
      "inputs": [
        {
          "internalType": "address",
          "name": "_token",
          "type": "address"
        }
      ],
      "name": "getCurrentAPY",
      "outputs": [
        {
          "internalType": "uint256",
          "name": "apy",
          "type": "uint256"
        }
      ],
      "stateMutability": "view",
      "type": "function"
    },
    {
      "inputs": [
        {
          "internalType": "address",
          "name": "_token",
          "type": "address"
        }
      ],
      "name": "getTokenAnalytics",
      "outputs": [
        {
          "internalType": "uint256",
          "name": "currentBalance",
          "type": "uint256"
        },
        {
          "internalType": "uint256",
          "name": "totalDeposits",
          "type": "uint256"
        },
        {
          "internalType": "uint256",
          "name": "totalWithdrawals",
          "type": "uint256"
        },
        {
          "internalType": "uint256",
          "name": "netDeposits",
          "type": "uint256"
        },
        {
          "internalType": "uint256",
          "name": "interestRewards",
          "type": "uint256"
        },
        {
          "internalType": "uint256",
          "name": "protocolRewards",
          "type": "uint256"
        },
        {
          "internalType": "uint256",
          "name": "currentAPY",
          "type": "uint256"
        }
      ],
      "stateMutability": "view",
      "type": "function"
    },
    {
      "inputs": [],
      "name": "owner",
      "outputs": [
        {
          "internalType": "address",
          "name": "",
          "type": "address"
        }
      ],
      "stateMutability": "view",
      "type": "function"
    },
    {
      "inputs": [],
      "name": "renounceOwnership",
      "outputs": [],
      "stateMutability": "nonpayable",
      "type": "function"
    },
    {
      "inputs": [
        {
          "internalType": "address",
          "name": "_coordinator",
          "type": "address"
        }
      ],
      "name": "setCoordinator",
      "outputs": [],
      "stateMutability": "nonpayable",
      "type": "function"
    },
    {
      "inputs": [
        {
          "internalType": "address",
          "name": "",
          "type": "address"
        }
      ],
      "name": "supportedMarkets",
      "outputs": [
        {
          "internalType": "bool",
          "name": "",
          "type": "bool"
        }
      ],
      "stateMutability": "view",
      "type": "function"
    },
    {
      "inputs": [
        {
          "internalType": "address",
          "name": "",
          "type": "address"
        }
      ],
      "name": "supportedTokens",
      "outputs": [
        {
          "internalType": "bool",
          "name": "",
          "type": "bool"
        }
      ],
      "stateMutability": "view",
      "type": "function"
    },
    {
      "inputs": [
        {
          "internalType": "address",
          "name": "",
          "type": "address"
        }
      ],
      "name": "tokenToComet",
      "outputs": [
        {
          "internalType": "contract IComet",
          "name": "",
          "type": "address"
        }
      ],
      "stateMutability": "view",
      "type": "function"
    },
    {
      "inputs": [
        {
          "internalType": "address",
          "name": "",
          "type": "address"
        }
      ],
      "name": "totalDeposited",
      "outputs": [
        {
          "internalType": "uint256",
          "name": "",
          "type": "uint256"
        }
      ],
      "stateMutability": "view",
      "type": "function"
    },
    {
      "inputs": [
        {
          "internalType": "address",
          "name": "",
          "type": "address"
        }
      ],
      "name": "totalWithdrawn",
      "outputs": [
        {
          "internalType": "uint256",
          "name": "",
          "type": "uint256"
        }
      ],
      "stateMutability": "view",
      "type": "function"
    },
    {
      "inputs": [
        {
          "internalType": "address",
          "name": "newOwner",
          "type": "address"
        }
      ],
      "name": "transferOwnership",
      "outputs": [],
      "stateMutability": "nonpayable",
      "type": "function"
    },
    {
      "inputs": [
        {
          "internalType": "address",
          "name": "_market",
          "type": "address"
        },
        {
          "internalType": "address",
          "name": "_token",
          "type": "address"
        },
        {
          "internalType": "bool",
          "name": "_status",
          "type": "bool"
        }
      ],
      "name": "updateMarketSupport",
      "outputs": [],
      "stateMutability": "nonpayable",
      "type": "function"
    },
    {
      "inputs": [
        {
          "internalType": "address",
          "name": "_token",
          "type": "address"
        },
        {
          "internalType": "bool",
          "name": "_status",
          "type": "bool"
        }
      ],
      "name": "updateTokenSupport",
      "outputs": [],
      "stateMutability": "nonpayable",
      "type": "function"
    },
    {
      "inputs": [
        {
          "internalType": "address",
          "name": "_token",
          "type": "address"
        },
        {
          "internalType": "uint256",
          "name": "_amount",
          "type": "uint256"
        }
      ],
      "name": "withdraw",
      "outputs": [],
      "stateMutability": "nonpayable",
      "type": "function"
    }
  ],
  "bytecode": "0x6080604052348015600f57600080fd5b50600180553380603957604051631e4fbdf760e01b81526000600482015260240160405180910390fd5b6040816045565b506097565b600280546001600160a01b038381166001600160a01b0319831681179093556040519116919082907f8be0079c531659141344cd1fd0a4f28419497f9722a3daafe3b4186f6b6457e090600090a35050565b611c84806100a66000396000f3fe608060405234801561001057600080fd5b50600436106101375760003560e01c8063715018a6116100b8578063a1ba844e1161007c578063a1ba844e1461030e578063a8bb832e14610321578063b7bc526f14610334578063bb1eb84714610360578063f2fde38b14610376578063f3fef3a31461038957600080fd5b8063715018a61461028757806372fd1a191461028f5780637b4c9274146102d75780638da5cb5b146102ea5780638ea98117146102fb57600080fd5b806347e7ef24116100ff57806347e7ef241461020b578063530554811461021e57806368c4ac261461023e57806368f21fed1461026157806370a082311461027457600080fd5b80630a0090971461013c5780630a64143a1461016c5780630fc86d9a1461019a57806320761fc4146101af57806326e46ed3146101e2575b600080fd5b60005461014f906001600160a01b031681565b6040516001600160a01b0390911681526020015b60405180910390f35b61018c61017a36600461192f565b60076020526000908152604090205481565b604051908152602001610163565b6101ad6101a836600461195a565b61039c565b005b6101d26101bd36600461192f565b60046020526000908152604090205460ff1681565b6040519015158152602001610163565b61014f6101f036600461192f565b6005602052600090815260409020546001600160a01b031681565b6101ad6102193660046119a5565b610599565b61018c61022c36600461192f565b60066020526000908152604090205481565b6101d261024c36600461192f565b60036020526000908152604090205460ff1681565b61018c61026f36600461192f565b610803565b61018c61028236600461192f565b6108d2565b6101ad610956565b6102a261029d36600461192f565b61096a565b604080519788526020880196909652948601939093526060850191909152608084015260a083015260c082015260e001610163565b6101ad6102e53660046119d1565b610b4c565b6002546001600160a01b031661014f565b6101ad61030936600461192f565b610c98565b61018c61031c36600461192f565b610d3e565b61018c61032f36600461192f565b610e26565b61014f61034236600461192f565b6001600160a01b039081166000908152600560205260409020541690565b610368610f91565b604051610163929190611a0a565b6101ad61038436600461192f565b611427565b6101ad6103973660046119a5565b611465565b6103a461173f565b6001600160a01b03831615806103c157506001600160a01b038216155b156103df5760405163e6c4247b60e01b815260040160405180910390fd5b6001600160a01b03831660009081526004602052604090205481151560ff909116151503610420576040516315d8c27160e11b815260040160405180910390fd5b6001600160a01b0383166000908152600460205260409020805460ff1916821580159190911790915561051e5760008390506000816001600160a01b031663c55dae636040518163ffffffff1660e01b8152600401602060405180830381865afa158015610492573d6000803e3d6000fd5b505050506040513d601f19601f820116820180604052508101906104b69190611abd565b9050836001600160a01b0316816001600160a01b0316146104ea5760405163086ed55760e31b815260040160405180910390fd5b506001600160a01b0380841660009081526005602052604090208054919092166001600160a01b0319909116179055610545565b6001600160a01b038216600090815260056020526040902080546001600160a01b03191690555b816001600160a01b0316836001600160a01b03167fd46e5da37297353380908e1f682b65829e178962be8fea3b349908e2d3e63f8f8360405161058c911515815260200190565b60405180910390a3505050565b6000546001600160a01b031633146105eb5760405162461bcd60e51b815260206004820152601060248201526f27b7363c9021b7b7b93234b730ba37b960811b60448201526064015b60405180910390fd5b6105f361176c565b6001600160a01b03821660009081526003602052604090205460ff1661062c5760405163350b944160e11b815260040160405180910390fd5b8060000361064d5760405163162908e360e11b815260040160405180910390fd5b6001600160a01b0380831660009081526005602052604090205416806106865760405163082ac68b60e21b815260040160405180910390fd5b6000546106a1906001600160a01b0385811691163085611796565b60405163095ea7b360e01b81526001600160a01b0382811660048301526024820184905284169063095ea7b3906044016020604051808303816000875af11580156106f0573d6000803e3d6000fd5b505050506040513d601f19601f820116820180604052508101906107149190611ada565b50604051631e573fb760e31b81526001600160a01b0384811660048301526024820184905282169063f2b9fdb890604401600060405180830381600087803b15801561075f57600080fd5b505af1158015610773573d6000803e3d6000fd5b505050506001600160a01b0383166000908152600660205260408120805484929061079f908490611b0d565b90915550506001600160a01b038316600081815260066020908152604091829020548251868152918201527f73a19dd210f1a7f902193214c0ee91dd35ee5b4d920cba8d519eca65a7b488ca910160405180910390a2506107ff60018055565b5050565b6001600160a01b03811660009081526003602052604081205460ff1661082b57506000919050565b6001600160a01b0380831660009081526005602052604090205416806108545750600092915050565b604051632ae6e9fd60e21b81523060048201526001600160a01b0382169063ab9ba7f490602401602060405180830381865afa9250505080156108b4575060408051601f3d908101601f191682019092526108b191810190611b26565b60015b6108c15750600092915050565b67ffffffffffffffff169392505050565b6001600160a01b038181166000908152600560205260408082205490516370a0823160e01b81523060048201529192169081906370a0823190602401602060405180830381865afa15801561092b573d6000803e3d6000fd5b505050506040513d601f19601f8201168201806040525081019061094f9190611b50565b9392505050565b61095e61173f565b6109686000611803565b565b6001600160a01b03811660009081526003602052604081205481908190819081908190819060ff166109b057506000955085945084935083925082915081905080610b41565b6040516370a0823160e01b81526001600160a01b038916600482015230906370a0823190602401602060405180830381865afa1580156109f4573d6000803e3d6000fd5b505050506040513d601f19601f82011682018060405250810190610a189190611b50565b6001600160a01b03891660009081526006602090815260408083205460079092529091205491985096509450610a4e8587611b69565b9350838711610a5e576000610a68565b610a688488611b69565b6040516368f21fed60e01b81526001600160a01b038a16600482015290935030906368f21fed90602401602060405180830381865afa158015610aaf573d6000803e3d6000fd5b505050506040513d601f19601f82011682018060405250810190610ad39190611b50565b60405163545dc19760e11b81526001600160a01b038a166004820152909250309063a8bb832e90602401602060405180830381865afa158015610b1a573d6000803e3d6000fd5b505050506040513d601f19601f82011682018060405250810190610b3e9190611b50565b90505b919395979092949650565b610b5461173f565b6001600160a01b038216610b7b5760405163e6c4247b60e01b815260040160405180910390fd5b6001600160a01b03821660009081526003602052604090205481151560ff909116151503610bbc576040516359b0f88360e01b815260040160405180910390fd5b808015610be157506001600160a01b0382811660009081526005602052604090205416155b15610bff5760405163082ac68b60e21b815260040160405180910390fd5b6001600160a01b0382166000908152600360205260409020805460ff191682151517905580610c4f576001600160a01b038216600090815260056020526040902080546001600160a01b03191690555b816001600160a01b03167fbbe72b7d9dcb594ee398a4a617885aba53d833e2aad601c813ce9df99fdeb49b82604051610c8c911515815260200190565b60405180910390a25050565b610ca061173f565b6001600160a01b038116610cc75760405163e6c4247b60e01b815260040160405180910390fd5b6000546001600160a01b0390811690821603610cf65760405163028e888760e11b815260040160405180910390fd5b600080546001600160a01b0319166001600160a01b038316908117825560405190917fc258faa9a17ddfdf4130b4acff63a289202e7d5f9e42f366add65368575486bc91a250565b6001600160a01b03811660009081526003602052604081205460ff16610d6657506000919050565b6040516370a0823160e01b81526001600160a01b038316600482015260009030906370a0823190602401602060405180830381865afa158015610dad573d6000803e3d6000fd5b505050506040513d601f19601f82011682018060405250810190610dd19190611b50565b6001600160a01b03841660009081526007602090815260408083205460069092528220549293509091610e049190611b69565b9050808211610e14576000610e1e565b610e1e8183611b69565b949350505050565b6001600160a01b03811660009081526003602052604081205460ff16610e4e57506000919050565b6001600160a01b038083166000908152600560205260409020541680610e775750600092915050565b6000816001600160a01b0316637eb711316040518163ffffffff1660e01b8152600401602060405180830381865afa158015610eb7573d6000803e3d6000fd5b505050506040513d601f19601f82011682018060405250810190610edb9190611b50565b60405163d955759d60e01b8152600481018290529091506000906001600160a01b0384169063d955759d90602401602060405180830381865afa158015610f26573d6000803e3d6000fd5b505050506040513d601f19601f82011682018060405250810190610f4a9190611b26565b90506301e133806000670de0b6b3a7640000610f708367ffffffffffffffff8616611b7c565b610f7c90612710611b7c565b610f869190611b93565b979650505050505050565b6040805160028082526060828101909352829160009181602001602082028036833701905050905073af88d065e77c8cc2239327c5edb3a432268e583181600081518110610fe157610fe1611bcb565b60200260200101906001600160a01b031690816001600160a01b0316815250507382af49447d8a07e3bd95bd0d56f35241523fbab18160018151811061102957611029611bcb565b60200260200101906001600160a01b031690816001600160a01b0316815250506000805b82518110156110ae576003600084838151811061106c5761106c611bcb565b6020908102919091018101516001600160a01b031682528101919091526040016000205460ff16156110a657816110a281611be1565b9250505b60010161104d565b508067ffffffffffffffff8111156110c8576110c8611bb5565b6040519080825280602002602001820160405280156110f1578160200160208202803683370190505b5093508067ffffffffffffffff81111561110d5761110d611bb5565b60405190808252806020026020018201604052801561114657816020015b6111336118fc565b81526020019060019003908161112b5790505b5092506000805b835181101561141f576003600085838151811061116c5761116c611bcb565b6020908102919091018101516001600160a01b031682528101919091526040016000205460ff1615611417578381815181106111aa576111aa611bcb565b60200260200101518683815181106111c4576111c4611bcb565b60200260200101906001600160a01b031690816001600160a01b0316815250506000806000806000806000306001600160a01b03166372fd1a198c8a8151811061121057611210611bcb565b60200260200101516040518263ffffffff1660e01b815260040161124391906001600160a01b0391909116815260200190565b60e060405180830381865afa158015611260573d6000803e3d6000fd5b505050506040513d601f19601f820116820180604052508101906112849190611bfa565b9650965096509650965096509650868c8a815181106112a5576112a5611bcb565b60200260200101516000600781106112bf576112bf611bcb565b60200201528b5186908d908b9081106112da576112da611bcb565b60200260200101516001600781106112f4576112f4611bcb565b60200201528b5185908d908b90811061130f5761130f611bcb565b602002602001015160026007811061132957611329611bcb565b60200201528b5184908d908b90811061134457611344611bcb565b602002602001015160036007811061135e5761135e611bcb565b60200201528b5183908d908b90811061137957611379611bcb565b602002602001015160046007811061139357611393611bcb565b60200201528b5182908d908b9081106113ae576113ae611bcb565b60200260200101516005600781106113c8576113c8611bcb565b60200201528b5181908d908b9081106113e3576113e3611bcb565b60200260200101516006600781106113fd576113fd611bcb565b60200201528861140c81611be1565b995050505050505050505b60010161114d565b505050509091565b61142f61173f565b6001600160a01b03811661145957604051631e4fbdf760e01b8152600060048201526024016105e2565b61146281611803565b50565b6000546001600160a01b031633146114b25760405162461bcd60e51b815260206004820152601060248201526f27b7363c9021b7b7b93234b730ba37b960811b60448201526064016105e2565b6114ba61176c565b6001600160a01b03821660009081526003602052604090205460ff166114f35760405163350b944160e11b815260040160405180910390fd5b806000036115145760405163162908e360e11b815260040160405180910390fd5b6001600160a01b03808316600090815260056020526040902054168061154d5760405163082ac68b60e21b815260040160405180910390fd5b6040516370a0823160e01b81523060048201526000906001600160a01b038516906370a0823190602401602060405180830381865afa158015611594573d6000803e3d6000fd5b505050506040513d601f19601f820116820180604052508101906115b89190611b50565b60405163f3fef3a360e01b81526001600160a01b038681166004830152602482018690529192509083169063f3fef3a390604401600060405180830381600087803b15801561160657600080fd5b505af115801561161a573d6000803e3d6000fd5b50506040516370a0823160e01b8152306004820152600092506001600160a01b03871691506370a0823190602401602060405180830381865afa158015611665573d6000803e3d6000fd5b505050506040513d601f19601f820116820180604052508101906116899190611b50565b905060006116978383611b69565b6000549091506116b4906001600160a01b03888116911683611855565b6001600160a01b038616600090815260076020526040812080548392906116dc908490611b0d565b90915550506001600160a01b038616600081815260076020908152604091829020548251858152918201527f92ccf450a286a957af52509bc1c9939d1a6a481783e142e41e2499f0bb66ebc6910160405180910390a2505050506107ff60018055565b6002546001600160a01b031633146109685760405163118cdaa760e01b81523360048201526024016105e2565b60026001540361178f57604051633ee5aeb560e01b815260040160405180910390fd5b6002600155565b6040516001600160a01b0384811660248301528381166044830152606482018390526117fd9186918216906323b872dd906084015b604051602081830303815290604052915060e01b6020820180516001600160e01b03838183161783525050505061188b565b50505050565b600280546001600160a01b038381166001600160a01b0319831681179093556040519116919082907f8be0079c531659141344cd1fd0a4f28419497f9722a3daafe3b4186f6b6457e090600090a35050565b6040516001600160a01b0383811660248301526044820183905261188691859182169063a9059cbb906064016117cb565b505050565b600080602060008451602086016000885af1806118ae576040513d6000823e3d81fd5b50506000513d915081156118c65780600114156118d3565b6001600160a01b0384163b155b156117fd57604051635274afe760e01b81526001600160a01b03851660048201526024016105e2565b6040518060e001604052806007906020820280368337509192915050565b6001600160a01b038116811461146257600080fd5b60006020828403121561194157600080fd5b813561094f8161191a565b801515811461146257600080fd5b60008060006060848603121561196f57600080fd5b833561197a8161191a565b9250602084013561198a8161191a565b9150604084013561199a8161194c565b809150509250925092565b600080604083850312156119b857600080fd5b82356119c38161191a565b946020939093013593505050565b600080604083850312156119e457600080fd5b82356119ef8161191a565b915060208301356119ff8161194c565b809150509250929050565b6040808252835190820181905260009060208501906060840190835b81811015611a4d5783516001600160a01b0316835260209384019390920191600101611a26565b50508381036020808601919091528551808352918101925085019060005b81811015611ab15782518460005b6007811015611a98578251825260209283019290910190600101611a79565b50505060e0939093019260209290920191600101611a6b565b50919695505050505050565b600060208284031215611acf57600080fd5b815161094f8161191a565b600060208284031215611aec57600080fd5b815161094f8161194c565b634e487b7160e01b600052601160045260246000fd5b80820180821115611b2057611b20611af7565b92915050565b600060208284031215611b3857600080fd5b815167ffffffffffffffff8116811461094f57600080fd5b600060208284031215611b6257600080fd5b5051919050565b81810381811115611b2057611b20611af7565b8082028115828204841417611b2057611b20611af7565b600082611bb057634e487b7160e01b600052601260045260246000fd5b500490565b634e487b7160e01b600052604160045260246000fd5b634e487b7160e01b600052603260045260246000fd5b600060018201611bf357611bf3611af7565b5060010190565b600080600080600080600060e0888a031215611c1557600080fd5b5050855160208701516040880151606089015160808a015160a08b015160c0909b0151949c939b5091999098509096509450909250905056fea264697066735822122077eadb4e10b36e87dda819b3eab0f6a6942d829b617e063402afc8cd7a10ddeb64736f6c634300081c0033",
  "linkReferences": {},
  "deployedLinkReferences": {}
}