{
  "_format": "hh-sol-artifact-1",
  "contractName": "StrategyAave",
  "sourceName": "contracts/strategies/StrategyAave.sol",
  "abi": [
    {
      "inputs": [],
      "stateMutability": "nonpayable",
      "type": "constructor"
    },
    {
      "inputs": [],
      "name": "InvalidAddress",
      "type": "error"
    },
    {
      "inputs": [],
      "name": "InvalidAmount",
      "type": "error"
    },
    {
      "inputs": [],
      "name": "NoPoolForToken",
      "type": "error"
    },
    {
      "inputs": [
        {
          "internalType": "address",
          "name": "owner",
          "type": "address"
        }
      ],
      "name": "OwnableInvalidOwner",
      "type": "error"
    },
    {
      "inputs": [
        {
          "internalType": "address",
          "name": "account",
          "type": "address"
        }
      ],
      "name": "OwnableUnauthorizedAccount",
      "type": "error"
    },
    {
      "inputs": [],
      "name": "ReentrancyGuardReentrantCall",
      "type": "error"
    },
    {
      "inputs": [
        {
          "internalType": "address",
          "name": "token",
          "type": "address"
        }
      ],
      "name": "SafeERC20FailedOperation",
      "type": "error"
    },
    {
      "inputs": [],
      "name": "SameCoordinator",
      "type": "error"
    },
    {
      "inputs": [],
      "name": "TokenSupportUnchanged",
      "type": "error"
    },
    {
      "inputs": [],
      "name": "UnsupportedToken",
      "type": "error"
    },
    {
      "inputs": [],
      "name": "UnsupportedTokenForPool",
      "type": "error"
    },
    {
      "anonymous": false,
      "inputs": [
        {
          "indexed": true,
          "internalType": "address",
          "name": "pool",
          "type": "address"
        }
      ],
      "name": "AavePoolUpdated",
      "type": "event"
    },
    {
      "anonymous": false,
      "inputs": [
        {
          "indexed": true,
          "internalType": "address",
          "name": "coordinator",
          "type": "address"
        }
      ],
      "name": "CoordinatorUpdated",
      "type": "event"
    },
    {
      "anonymous": false,
      "inputs": [
        {
          "indexed": true,
          "internalType": "address",
          "name": "previousOwner",
          "type": "address"
        },
        {
          "indexed": true,
          "internalType": "address",
          "name": "newOwner",
          "type": "address"
        }
      ],
      "name": "OwnershipTransferred",
      "type": "event"
    },
    {
      "anonymous": false,
      "inputs": [
        {
          "indexed": true,
          "internalType": "address",
          "name": "token",
          "type": "address"
        },
        {
          "indexed": false,
          "internalType": "bool",
          "name": "status",
          "type": "bool"
        }
      ],
      "name": "TokenSupportUpdated",
      "type": "event"
    },
    {
      "inputs": [],
      "name": "aavePool",
      "outputs": [
        {
          "internalType": "address",
          "name": "",
          "type": "address"
        }
      ],
      "stateMutability": "view",
      "type": "function"
    },
    {
      "inputs": [
        {
          "internalType": "address",
          "name": "_token",
          "type": "address"
        }
      ],
      "name": "addSupportedToken",
      "outputs": [],
      "stateMutability": "nonpayable",
      "type": "function"
    },
    {
      "inputs": [
        {
          "internalType": "address",
          "name": "_token",
          "type": "address"
        }
      ],
      "name": "balanceOf",
      "outputs": [
        {
          "internalType": "uint256",
          "name": "",
          "type": "uint256"
        }
      ],
      "stateMutability": "view",
      "type": "function"
    },
    {
      "inputs": [],
      "name": "coordinator",
      "outputs": [
        {
          "internalType": "address",
          "name": "",
          "type": "address"
        }
      ],
      "stateMutability": "view",
      "type": "function"
    },
    {
      "inputs": [
        {
          "internalType": "address",
          "name": "_token",
          "type": "address"
        },
        {
          "internalType": "uint256",
          "name": "_amount",
          "type": "uint256"
        }
      ],
      "name": "deposit",
      "outputs": [],
      "stateMutability": "nonpayable",
      "type": "function"
    },
    {
      "inputs": [
        {
          "internalType": "address",
          "name": "_token",
          "type": "address"
        }
      ],
      "name": "getCurrentAPY",
      "outputs": [
        {
          "internalType": "uint256",
          "name": "apy",
          "type": "uint256"
        }
      ],
      "stateMutability": "view",
      "type": "function"
    },
    {
      "inputs": [],
      "name": "getSupportedTokens",
      "outputs": [
        {
          "internalType": "address[]",
          "name": "",
          "type": "address[]"
        }
      ],
      "stateMutability": "view",
      "type": "function"
    },
    {
      "inputs": [
        {
          "internalType": "address",
          "name": "",
          "type": "address"
        }
      ],
      "name": "isTokenSupported",
      "outputs": [
        {
          "internalType": "bool",
          "name": "",
          "type": "bool"
        }
      ],
      "stateMutability": "view",
      "type": "function"
    },
    {
      "inputs": [],
      "name": "owner",
      "outputs": [
        {
          "internalType": "address",
          "name": "",
          "type": "address"
        }
      ],
      "stateMutability": "view",
      "type": "function"
    },
    {
      "inputs": [
        {
          "internalType": "address",
          "name": "_token",
          "type": "address"
        }
      ],
      "name": "removeSupportedToken",
      "outputs": [],
      "stateMutability": "nonpayable",
      "type": "function"
    },
    {
      "inputs": [],
      "name": "renounceOwnership",
      "outputs": [],
      "stateMutability": "nonpayable",
      "type": "function"
    },
    {
      "inputs": [
        {
          "internalType": "address",
          "name": "_pool",
          "type": "address"
        }
      ],
      "name": "setAavePool",
      "outputs": [],
      "stateMutability": "nonpayable",
      "type": "function"
    },
    {
      "inputs": [
        {
          "internalType": "address",
          "name": "_coordinator",
          "type": "address"
        }
      ],
      "name": "setCoordinator",
      "outputs": [],
      "stateMutability": "nonpayable",
      "type": "function"
    },
    {
      "inputs": [
        {
          "internalType": "uint256",
          "name": "",
          "type": "uint256"
        }
      ],
      "name": "supportedTokens",
      "outputs": [
        {
          "internalType": "address",
          "name": "",
          "type": "address"
        }
      ],
      "stateMutability": "view",
      "type": "function"
    },
    {
      "inputs": [
        {
          "internalType": "address",
          "name": "",
          "type": "address"
        }
      ],
      "name": "tokenToAToken",
      "outputs": [
        {
          "internalType": "address",
          "name": "",
          "type": "address"
        }
      ],
      "stateMutability": "view",
      "type": "function"
    },
    {
      "inputs": [
        {
          "internalType": "address",
          "name": "newOwner",
          "type": "address"
        }
      ],
      "name": "transferOwnership",
      "outputs": [],
      "stateMutability": "nonpayable",
      "type": "function"
    },
    {
      "inputs": [
        {
          "internalType": "address",
          "name": "_token",
          "type": "address"
        },
        {
          "internalType": "uint256",
          "name": "_amount",
          "type": "uint256"
        }
      ],
      "name": "withdraw",
      "outputs": [],
      "stateMutability": "nonpayable",
      "type": "function"
    }
  ],
  "bytecode": "0x6080604052348015600f57600080fd5b50600180553380603957604051631e4fbdf760e01b81526000600482015260240160405180910390fd5b6040816045565b506097565b600280546001600160a01b038381166001600160a01b0319831681179093556040519116919082907f8be0079c531659141344cd1fd0a4f28419497f9722a3daafe3b4186f6b6457e090600090a35050565b6112a7806100a66000396000f3fe608060405234801561001057600080fd5b506004361061010b5760003560e01c80638da5cb5b116100a2578063b9b44d3011610071578063b9b44d3014610234578063c62556261461025d578063d3c7c2c714610270578063f2fde38b14610285578063f3fef3a31461029857600080fd5b80638da5cb5b146101ea5780638ea98117146101fb578063a03e4bc31461020e578063a8bb832e1461022157600080fd5b806370a08231116100de57806370a082311461017b578063715018a61461019c57806375151b63146101a457806376319190146101d757600080fd5b80630a00909714610110578063349f937c1461014057806347e7ef24146101555780636d69fcaf14610168575b600080fd5b600054610123906001600160a01b031681565b6040516001600160a01b0390911681526020015b60405180910390f35b61015361014e366004610f11565b6102ab565b005b610153610163366004610f2e565b610324565b610153610176366004610f11565b610514565b61018e610189366004610f11565b610701565b604051908152602001610137565b61015361079b565b6101c76101b2366004610f11565b60056020526000908152604090205460ff1681565b6040519015158152602001610137565b6101536101e5366004610f11565b6107af565b6002546001600160a01b0316610123565b610153610209366004610f11565b610980565b600354610123906001600160a01b031681565b61018e61022f366004610f11565b610a26565b610123610242366004610f11565b6006602052600090815260409020546001600160a01b031681565b61012361026b366004610f5a565b610b01565b610278610b2b565b6040516101379190610f73565b610153610293366004610f11565b610b8d565b6101536102a6366004610f2e565b610bcb565b6102b3610d82565b6001600160a01b0381166102da5760405163e6c4247b60e01b815260040160405180910390fd5b600380546001600160a01b0319166001600160a01b0383169081179091556040517f7f1936275a8a68e642cd125b879c72a42f46f2de670c68650617a83dff982d0390600090a250565b6000546001600160a01b031633146103765760405162461bcd60e51b815260206004820152601060248201526f27b7363c9021b7b7b93234b730ba37b960811b60448201526064015b60405180910390fd5b61037e610daf565b6001600160a01b03821660009081526005602052604090205460ff166103b75760405163350b944160e11b815260040160405180910390fd5b806000036103d85760405163162908e360e11b815260040160405180910390fd5b6003546001600160a01b03166104015760405163082ac68b60e21b815260040160405180910390fd5b60005461041c906001600160a01b0384811691163084610dd9565b60035460405163095ea7b360e01b81526001600160a01b039182166004820152602481018390529083169063095ea7b3906044016020604051808303816000875af115801561046f573d6000803e3d6000fd5b505050506040513d601f19601f820116820180604052508101906104939190610fbf565b5060035460405163617ba03760e01b81526001600160a01b03848116600483015260248201849052306044830152600060648301529091169063617ba03790608401600060405180830381600087803b1580156104ef57600080fd5b505af1158015610503573d6000803e3d6000fd5b5050505061051060018055565b5050565b61051c610d82565b6001600160a01b0381166105435760405163e6c4247b60e01b815260040160405180910390fd5b6003546001600160a01b031661056c5760405163082ac68b60e21b815260040160405180910390fd5b6001600160a01b03811660009081526005602052604090205460ff16156105a6576040516359b0f88360e01b815260040160405180910390fd5b6003546040516335ea6a7560e01b81526001600160a01b03838116600483015260009216906335ea6a75906024016101e060405180830381865afa1580156105f2573d6000803e3d6000fd5b505050506040513d601f19601f8201168201806040525081019061061691906110b7565b6101008101519091506001600160a01b03166106455760405163086ed55760e31b815260040160405180910390fd5b6004805460018082019092557f8a35acfbc15ff81a39ae7d344fd709f28e8600b4aa8c65c6b64bfe7fe36bd19b0180546001600160a01b03199081166001600160a01b038681169182179093556000818152600560209081526040808320805460ff191688179055610100880151600683529281902080549095169290951691909117909255915192835290917fbbe72b7d9dcb594ee398a4a617885aba53d833e2aad601c813ce9df99fdeb49b910160405180910390a25050565b6001600160a01b038082166000908152600660205260408120549091168061072c5750600092915050565b6040516370a0823160e01b81523060048201526001600160a01b038216906370a0823190602401602060405180830381865afa158015610770573d6000803e3d6000fd5b505050506040513d601f19601f8201168201806040525081019061079491906111e3565b9392505050565b6107a3610d82565b6107ad6000610e39565b565b6107b7610d82565b6001600160a01b0381166107de5760405163e6c4247b60e01b815260040160405180910390fd5b6001600160a01b03811660009081526005602052604090205460ff16610817576040516359b0f88360e01b815260040160405180910390fd5b60005b60045481101561091557816001600160a01b031660048281548110610841576108416111fc565b6000918252602090912001546001600160a01b03160361090d576004805461086b90600190611212565b8154811061087b5761087b6111fc565b600091825260209091200154600480546001600160a01b0390921691839081106108a7576108a76111fc565b9060005260206000200160006101000a8154816001600160a01b0302191690836001600160a01b0316021790555060048054806108e6576108e6611239565b600082815260209020810160001990810180546001600160a01b0319169055019055610915565b60010161081a565b506001600160a01b0381166000818152600560209081526040808320805460ff191690556006825280832080546001600160a01b0319169055519182527fbbe72b7d9dcb594ee398a4a617885aba53d833e2aad601c813ce9df99fdeb49b910160405180910390a250565b610988610d82565b6001600160a01b0381166109af5760405163e6c4247b60e01b815260040160405180910390fd5b6000546001600160a01b03908116908216036109de5760405163028e888760e11b815260040160405180910390fd5b600080546001600160a01b0319166001600160a01b038316908117825560405190917fc258faa9a17ddfdf4130b4acff63a289202e7d5f9e42f366add65368575486bc91a250565b6001600160a01b03811660009081526005602052604081205460ff161580610a5757506003546001600160a01b0316155b15610a6457506000919050565b6003546040516335ea6a7560e01b81526001600160a01b03848116600483015260009216906335ea6a75906024016101e060405180830381865afa158015610ab0573d6000803e3d6000fd5b505050506040513d601f19601f82011682018060405250810190610ad491906110b7565b60408101519091506001600160801b0316610af969152d02c7e14af68000008261124f565b949350505050565b60048181548110610b1157600080fd5b6000918252602090912001546001600160a01b0316905081565b60606004805480602002602001604051908101604052809291908181526020018280548015610b8357602002820191906000526020600020905b81546001600160a01b03168152600190910190602001808311610b65575b5050505050905090565b610b95610d82565b6001600160a01b038116610bbf57604051631e4fbdf760e01b81526000600482015260240161036d565b610bc881610e39565b50565b6000546001600160a01b03163314610c185760405162461bcd60e51b815260206004820152601060248201526f27b7363c9021b7b7b93234b730ba37b960811b604482015260640161036d565b610c20610daf565b6001600160a01b03821660009081526005602052604090205460ff16610c595760405163350b944160e11b815260040160405180910390fd5b80600003610c7a5760405163162908e360e11b815260040160405180910390fd5b6003546001600160a01b0316610ca35760405163082ac68b60e21b815260040160405180910390fd5b60035460008054604051631a4ca37b60e21b81526001600160a01b038681166004830152602482018690529182166044820152919216906369328dec906064016020604051808303816000875af1158015610d02573d6000803e3d6000fd5b505050506040513d601f19601f82011682018060405250810190610d2691906111e3565b905081811015610d785760405162461bcd60e51b815260206004820152601760248201527f496e73756666696369656e74207769746864726177616c000000000000000000604482015260640161036d565b5061051060018055565b6002546001600160a01b031633146107ad5760405163118cdaa760e01b815233600482015260240161036d565b600260015403610dd257604051633ee5aeb560e01b815260040160405180910390fd5b6002600155565b604080516001600160a01b0385811660248301528416604482015260648082018490528251808303909101815260849091019091526020810180516001600160e01b03166323b872dd60e01b179052610e33908590610e8b565b50505050565b600280546001600160a01b038381166001600160a01b0319831681179093556040519116919082907f8be0079c531659141344cd1fd0a4f28419497f9722a3daafe3b4186f6b6457e090600090a35050565b600080602060008451602086016000885af180610eae576040513d6000823e3d81fd5b50506000513d91508115610ec6578060011415610ed3565b6001600160a01b0384163b155b15610e3357604051635274afe760e01b81526001600160a01b038516600482015260240161036d565b6001600160a01b0381168114610bc857600080fd5b600060208284031215610f2357600080fd5b813561079481610efc565b60008060408385031215610f4157600080fd5b8235610f4c81610efc565b946020939093013593505050565b600060208284031215610f6c57600080fd5b5035919050565b602080825282518282018190526000918401906040840190835b81811015610fb45783516001600160a01b0316835260209384019390920191600101610f8d565b509095945050505050565b600060208284031215610fd157600080fd5b8151801515811461079457600080fd5b6040516101e0810167ffffffffffffffff8111828210171561101357634e487b7160e01b600052604160045260246000fd5b60405290565b60006020828403121561102b57600080fd5b6040516020810167ffffffffffffffff8111828210171561105c57634e487b7160e01b600052604160045260246000fd5b6040529151825250919050565b80516001600160801b038116811461108057600080fd5b919050565b805164ffffffffff8116811461108057600080fd5b805161ffff8116811461108057600080fd5b805161108081610efc565b60006101e08284031280156110cb57600080fd5b506110d4610fe1565b6110de8484611019565b81526110ec60208401611069565b60208201526110fd60408401611069565b604082015261110e60608401611069565b606082015261111f60808401611069565b608082015261113060a08401611069565b60a082015261114160c08401611085565b60c082015261115260e0840161109a565b60e082015261116461010084016110ac565b61010082015261117761012084016110ac565b61012082015261118a61014084016110ac565b61014082015261119d61016084016110ac565b6101608201526111b06101808401611069565b6101808201526111c36101a08401611069565b6101a08201526111d66101c08401611069565b6101c08201529392505050565b6000602082840312156111f557600080fd5b5051919050565b634e487b7160e01b600052603260045260246000fd5b8181038181111561123357634e487b7160e01b600052601160045260246000fd5b92915050565b634e487b7160e01b600052603160045260246000fd5b60008261126c57634e487b7160e01b600052601260045260246000fd5b50049056fea26469706673582212202d6056ef7d6ae095c1a28c72d68aa8d1e1f90d32038b45af485303306619730b64736f6c634300081c0033",
  "linkReferences": {},
  "deployedLinkReferences": {}
}