{
  "_format": "hh-sol-artifact-1",
  "contractName": "StrategyCoordinator",
  "sourceName": "contracts/StrategyCoordinator.sol",
  "abi": [
    {
      "inputs": [
        {
          "internalType": "address",
          "name": "_strategyAave",
          "type": "address"
        },
        {
          "internalType": "address",
          "name": "_strategyCompound",
          "type": "address"
        }
      ],
      "stateMutability": "nonpayable",
      "type": "constructor"
    },
    {
      "inputs": [],
      "name": "InvalidAddress",
      "type": "error"
    },
    {
      "inputs": [],
      "name": "InvalidAmount",
      "type": "error"
    },
    {
      "inputs": [],
      "name": "OnlyVault",
      "type": "error"
    },
    {
      "inputs": [
        {
          "internalType": "address",
          "name": "owner",
          "type": "address"
        }
      ],
      "name": "OwnableInvalidOwner",
      "type": "error"
    },
    {
      "inputs": [
        {
          "internalType": "address",
          "name": "account",
          "type": "address"
        }
      ],
      "name": "OwnableUnauthorizedAccount",
      "type": "error"
    },
    {
      "inputs": [],
      "name": "ReentrancyGuardReentrantCall",
      "type": "error"
    },
    {
      "inputs": [],
      "name": "UnsupportedToken",
      "type": "error"
    },
    {
      "anonymous": false,
      "inputs": [
        {
          "indexed": true,
          "internalType": "address",
          "name": "token",
          "type": "address"
        },
        {
          "indexed": false,
          "internalType": "uint256",
          "name": "amount",
          "type": "uint256"
        },
        {
          "indexed": false,
          "internalType": "enum StrategyCoordinator.StrategyType",
          "name": "strategyType",
          "type": "uint8"
        }
      ],
      "name": "Deposit",
      "type": "event"
    },
    {
      "anonymous": false,
      "inputs": [
        {
          "indexed": true,
          "internalType": "address",
          "name": "previousOwner",
          "type": "address"
        },
        {
          "indexed": true,
          "internalType": "address",
          "name": "newOwner",
          "type": "address"
        }
      ],
      "name": "OwnershipTransferred",
      "type": "event"
    },
    {
      "anonymous": false,
      "inputs": [
        {
          "indexed": true,
          "internalType": "address",
          "name": "token",
          "type": "address"
        },
        {
          "indexed": false,
          "internalType": "enum StrategyCoordinator.StrategyType",
          "name": "strategyType",
          "type": "uint8"
        }
      ],
      "name": "StrategyUpdated",
      "type": "event"
    },
    {
      "anonymous": false,
      "inputs": [
        {
          "indexed": true,
          "internalType": "address",
          "name": "token",
          "type": "address"
        },
        {
          "indexed": false,
          "internalType": "uint256",
          "name": "amount",
          "type": "uint256"
        },
        {
          "indexed": false,
          "internalType": "enum StrategyCoordinator.StrategyType",
          "name": "strategyType",
          "type": "uint8"
        }
      ],
      "name": "Withdrawal",
      "type": "event"
    },
    {
      "inputs": [
        {
          "internalType": "address",
          "name": "_token",
          "type": "address"
        },
        {
          "internalType": "uint256",
          "name": "_amount",
          "type": "uint256"
        }
      ],
      "name": "deposit",
      "outputs": [],
      "stateMutability": "nonpayable",
      "type": "function"
    },
    {
      "inputs": [
        {
          "internalType": "address",
          "name": "_token",
          "type": "address"
        }
      ],
      "name": "emergencyWithdraw",
      "outputs": [],
      "stateMutability": "nonpayable",
      "type": "function"
    },
    {
      "inputs": [
        {
          "internalType": "address",
          "name": "_token",
          "type": "address"
        }
      ],
      "name": "getStrategyBalance",
      "outputs": [
        {
          "internalType": "uint256",
          "name": "",
          "type": "uint256"
        }
      ],
      "stateMutability": "view",
      "type": "function"
    },
    {
      "inputs": [],
      "name": "getSupportedTokens",
      "outputs": [
        {
          "internalType": "address[]",
          "name": "",
          "type": "address[]"
        }
      ],
      "stateMutability": "view",
      "type": "function"
    },
    {
      "inputs": [
        {
          "internalType": "address",
          "name": "_token",
          "type": "address"
        }
      ],
      "name": "getTotalTokenBalance",
      "outputs": [
        {
          "internalType": "uint256",
          "name": "",
          "type": "uint256"
        }
      ],
      "stateMutability": "view",
      "type": "function"
    },
    {
      "inputs": [
        {
          "internalType": "address",
          "name": "_priceFeedManager",
          "type": "address"
        },
        {
          "internalType": "address[]",
          "name": "_supportedTokens",
          "type": "address[]"
        }
      ],
      "name": "getTotalUsdValue",
      "outputs": [
        {
          "internalType": "uint256",
          "name": "totalUsdValue",
          "type": "uint256"
        }
      ],
      "stateMutability": "view",
      "type": "function"
    },
    {
      "inputs": [],
      "name": "owner",
      "outputs": [
        {
          "internalType": "address",
          "name": "",
          "type": "address"
        }
      ],
      "stateMutability": "view",
      "type": "function"
    },
    {
      "inputs": [],
      "name": "renounceOwnership",
      "outputs": [],
      "stateMutability": "nonpayable",
      "type": "function"
    },
    {
      "inputs": [
        {
          "internalType": "address",
          "name": "_token",
          "type": "address"
        },
        {
          "internalType": "enum StrategyCoordinator.StrategyType",
          "name": "_strategyType",
          "type": "uint8"
        }
      ],
      "name": "setStrategyForToken",
      "outputs": [],
      "stateMutability": "nonpayable",
      "type": "function"
    },
    {
      "inputs": [],
      "name": "strategyAave",
      "outputs": [
        {
          "internalType": "contract StrategyAave",
          "name": "",
          "type": "address"
        }
      ],
      "stateMutability": "view",
      "type": "function"
    },
    {
      "inputs": [],
      "name": "strategyCompound",
      "outputs": [
        {
          "internalType": "contract StrategyCompoundComet",
          "name": "",
          "type": "address"
        }
      ],
      "stateMutability": "view",
      "type": "function"
    },
    {
      "inputs": [
        {
          "internalType": "address",
          "name": "",
          "type": "address"
        }
      ],
      "name": "supportedTokens",
      "outputs": [
        {
          "internalType": "bool",
          "name": "",
          "type": "bool"
        }
      ],
      "stateMutability": "view",
      "type": "function"
    },
    {
      "inputs": [
        {
          "internalType": "address",
          "name": "",
          "type": "address"
        }
      ],
      "name": "tokenToStrategy",
      "outputs": [
        {
          "internalType": "enum StrategyCoordinator.StrategyType",
          "name": "",
          "type": "uint8"
        }
      ],
      "stateMutability": "view",
      "type": "function"
    },
    {
      "inputs": [
        {
          "internalType": "address",
          "name": "newOwner",
          "type": "address"
        }
      ],
      "name": "transferOwnership",
      "outputs": [],
      "stateMutability": "nonpayable",
      "type": "function"
    },
    {
      "inputs": [
        {
          "internalType": "address",
          "name": "_vault",
          "type": "address"
        }
      ],
      "name": "updateVaultAddress",
      "outputs": [],
      "stateMutability": "nonpayable",
      "type": "function"
    },
    {
      "inputs": [],
      "name": "vault",
      "outputs": [
        {
          "internalType": "address",
          "name": "",
          "type": "address"
        }
      ],
      "stateMutability": "view",
      "type": "function"
    },
    {
      "inputs": [
        {
          "internalType": "address",
          "name": "_token",
          "type": "address"
        },
        {
          "internalType": "uint256",
          "name": "_amount",
          "type": "uint256"
        }
      ],
      "name": "withdraw",
      "outputs": [],
      "stateMutability": "nonpayable",
      "type": "function"
    }
  ],
  "bytecode": "0x608060405234801561001057600080fd5b50604051611b9c380380611b9c83398101604081905261002f9161013b565b338061005557604051631e4fbdf760e01b81526000600482015260240160405180910390fd5b61005e816100cf565b50600180556001600160a01b038216158061008057506001600160a01b038116155b1561009e5760405163e6c4247b60e01b815260040160405180910390fd5b600380546001600160a01b039384166001600160a01b0319918216179091556004805492909316911617905561016e565b600080546001600160a01b038381166001600160a01b0319831681178455604051919092169283917f8be0079c531659141344cd1fd0a4f28419497f9722a3daafe3b4186f6b6457e09190a35050565b80516001600160a01b038116811461013657600080fd5b919050565b6000806040838503121561014e57600080fd5b6101578361011f565b91506101656020840161011f565b90509250929050565b611a1f8061017d6000396000f3fe608060405234801561001057600080fd5b506004361061010b5760003560e01c8063a6e19264116100a2578063d3c7c2c711610071578063d3c7c2c714610255578063d597cf891461026a578063f2fde38b1461027d578063f3fef3a314610290578063fbfa77cf146102a357600080fd5b8063a6e1926414610209578063adad19bd1461021c578063af74102a1461022f578063d2de2f851461024257600080fd5b8063715018a6116100de578063715018a6146101a457806375089343146101ac578063876a31ea146101cd5780638da5cb5b146101f857600080fd5b80633c33c1791461011057806347e7ef241461014957806368c4ac261461015e5780636ff1c9bc14610191575b600080fd5b61013361011e366004611724565b60056020526000908152604090205460ff1681565b6040516101409190611777565b60405180910390f35b61015c610157366004611785565b6102b6565b005b61018161016c366004611724565b60066020526000908152604090205460ff1681565b6040519015158152602001610140565b61015c61019f366004611724565b610615565b61015c61090f565b6101bf6101ba3660046117c5565b610923565b604051908152602001610140565b6004546101e0906001600160a01b031681565b6040516001600160a01b039091168152602001610140565b6000546001600160a01b03166101e0565b61015c6102173660046118a8565b610ac6565b6101bf61022a366004611724565b610d5b565b6003546101e0906001600160a01b031681565b61015c610250366004611724565b610f43565b61025d610f94565b60405161014091906118e3565b6101bf610278366004611724565b610ff6565b61015c61028b366004611724565b611117565b61015c61029e366004611785565b61115a565b6002546101e0906001600160a01b031681565b6002546001600160a01b031633146102e157604051638d1af8bd60e01b815260040160405180910390fd5b6102e9611661565b6001600160a01b03821660009081526006602052604090205460ff166103225760405163350b944160e11b815260040160405180910390fd5b806000036103435760405163162908e360e11b815260040160405180910390fd5b6001600160a01b03828116600081815260056020526040908190205460025491516323b872dd60e01b81529190931660048201523060248201526044810184905260ff909216916323b872dd906064016020604051808303816000875af11580156103b2573d6000803e3d6000fd5b505050506040513d601f19601f820116820180604052508101906103d6919061192f565b5060008160018111156103eb576103eb61173f565b036104d15760035460405163095ea7b360e01b81526001600160a01b038581169263095ea7b39261042492909116908690600401611951565b6020604051808303816000875af1158015610443573d6000803e3d6000fd5b505050506040513d601f19601f82011682018060405250810190610467919061192f565b506003546040516311f9fbc960e21b81526001600160a01b03909116906347e7ef249061049a9086908690600401611951565b600060405180830381600087803b1580156104b457600080fd5b505af11580156104c8573d6000803e3d6000fd5b505050506105c4565b60018160018111156104e5576104e561173f565b036105c4576004805460405163095ea7b360e01b81526001600160a01b038087169363095ea7b39361051c93921691879101611951565b6020604051808303816000875af115801561053b573d6000803e3d6000fd5b505050506040513d601f19601f8201168201806040525081019061055f919061192f565b50600480546040516311f9fbc960e21b81526001600160a01b03909116916347e7ef2491610591918791879101611951565b600060405180830381600087803b1580156105ab57600080fd5b505af11580156105bf573d6000803e3d6000fd5b505050505b826001600160a01b03167ff763e680fce25a97ffd55d8b705370c98b47b2285f7b3b2900c43606fd41804583836040516105ff92919061196a565b60405180910390a25061061160018055565b5050565b61061d61168b565b6001600160a01b03811660009081526005602052604081205460ff169081600181111561064c5761064c61173f565b0361072b576003546040516370a0823160e01b81526001600160a01b03848116600483015260009216906370a0823190602401602060405180830381865afa15801561069c573d6000803e3d6000fd5b505050506040513d601f19601f820116820180604052508101906106c0919061197e565b60035460405163f3fef3a360e01b81529192506001600160a01b03169063f3fef3a3906106f39086908590600401611951565b600060405180830381600087803b15801561070d57600080fd5b505af1158015610721573d6000803e3d6000fd5b505050505061081e565b600181600181111561073f5761073f61173f565b0361081e57600480546040516370a0823160e01b81526001600160a01b0385811693820193909352600092909116906370a0823190602401602060405180830381865afa158015610794573d6000803e3d6000fd5b505050506040513d601f19601f820116820180604052508101906107b8919061197e565b6004805460405163f3fef3a360e01b81529293506001600160a01b03169163f3fef3a3916107ea918791869101611951565b600060405180830381600087803b15801561080457600080fd5b505af1158015610818573d6000803e3d6000fd5b50505050505b6040516370a0823160e01b81523060048201526000906001600160a01b038416906370a0823190602401602060405180830381865afa158015610865573d6000803e3d6000fd5b505050506040513d601f19601f82011682018060405250810190610889919061197e565b9050801561090a5760025460405163a9059cbb60e01b81526001600160a01b038581169263a9059cbb926108c592909116908590600401611951565b6020604051808303816000875af11580156108e4573d6000803e3d6000fd5b505050506040513d601f19601f82011682018060405250810190610908919061192f565b505b505050565b61091761168b565b61092160006116b8565b565b600082815b8351811015610abd57600084828151811061094557610945611997565b60209081029190910101516040516305bcc1d160e11b81526001600160a01b03808316600483015291925090841690630b7983a290602401602060405180830381865afa15801561099a573d6000803e3d6000fd5b505050506040513d601f19601f820116820180604052508101906109be919061192f565b15610ab45760405163adad19bd60e01b81526001600160a01b0382166004820152600090309063adad19bd90602401602060405180830381865afa158015610a0a573d6000803e3d6000fd5b505050506040513d601f19601f82011682018060405250810190610a2e919061197e565b90508015610ab25760405163864bc41960e01b81526001600160a01b0385169063864bc41990610a649085908590600401611951565b602060405180830381865afa158015610a81573d6000803e3d6000fd5b505050506040513d601f19601f82011682018060405250810190610aa5919061197e565b610aaf90866119c3565b94505b505b50600101610928565b50505b92915050565b610ace61168b565b6001600160a01b038216610af55760405163e6c4247b60e01b815260040160405180910390fd5b6000816001811115610b0957610b0961173f565b03610b9e576003546040516375151b6360e01b81526001600160a01b038481166004830152909116906375151b6390602401602060405180830381865afa158015610b58573d6000803e3d6000fd5b505050506040513d601f19601f82011682018060405250810190610b7c919061192f565b610b995760405163350b944160e11b815260040160405180910390fd5b610c44565b6001816001811115610bb257610bb261173f565b03610c445760048054604051633462561360e11b81526001600160a01b03858116938201939093529116906368c4ac2690602401602060405180830381865afa158015610c03573d6000803e3d6000fd5b505050506040513d601f19601f82011682018060405250810190610c27919061192f565b610c445760405163350b944160e11b815260040160405180910390fd5b6001600160a01b0382166000908152600660209081526040808320805460ff19166001179055600890915290205460ff16610cdd576007805460018082019092557fa66cc928b5edb82af9bd49922954155ab7b0942694bea4ce44661d9a8736c6880180546001600160a01b0319166001600160a01b0385169081179091556000908152600860205260409020805460ff191690911790555b6001600160a01b0382166000908152600560205260409020805482919060ff191660018381811115610d1157610d1161173f565b0217905550816001600160a01b03167f13696623477a91bb62975bf0629428245d824d0f3cec6e5712775d450df31a7582604051610d4f9190611777565b60405180910390a25050565b6003546040516375151b6360e01b81526001600160a01b03838116600483015260009283929116906375151b6390602401602060405180830381865afa158015610da9573d6000803e3d6000fd5b505050506040513d601f19601f82011682018060405250810190610dcd919061192f565b15610e4d576003546040516370a0823160e01b81526001600160a01b038581166004830152909116906370a0823190602401602060405180830381865afa158015610e1c573d6000803e3d6000fd5b505050506040513d601f19601f82011682018060405250810190610e40919061197e565b610e4a90826119c3565b90505b60048054604051633462561360e11b81526001600160a01b03868116938201939093529116906368c4ac2690602401602060405180830381865afa158015610e99573d6000803e3d6000fd5b505050506040513d601f19601f82011682018060405250810190610ebd919061192f565b15610ac057600480546040516370a0823160e01b81526001600160a01b03868116938201939093529116906370a0823190602401602060405180830381865afa158015610f0e573d6000803e3d6000fd5b505050506040513d601f19601f82011682018060405250810190610f32919061197e565b610f3c90826119c3565b9392505050565b610f4b61168b565b6001600160a01b038116610f725760405163e6c4247b60e01b815260040160405180910390fd5b600280546001600160a01b0319166001600160a01b0392909216919091179055565b60606007805480602002602001604051908101604052809291908181526020018280548015610fec57602002820191906000526020600020905b81546001600160a01b03168152600190910190602001808311610fce575b5050505050905090565b6001600160a01b03811660009081526006602052604081205460ff1661101e57506000919050565b6001600160a01b03821660009081526005602052604081205460ff169081600181111561104d5761104d61173f565b036110c1576003546040516370a0823160e01b81526001600160a01b038581166004830152909116906370a08231906024015b602060405180830381865afa15801561109d573d6000803e3d6000fd5b505050506040513d601f19601f82011682018060405250810190610f3c919061197e565b60018160018111156110d5576110d561173f565b0361110e57600480546040516370a0823160e01b81526001600160a01b03868116938201939093529116906370a0823190602401611080565b50600092915050565b61111f61168b565b6001600160a01b03811661114e57604051631e4fbdf760e01b8152600060048201526024015b60405180910390fd5b611157816116b8565b50565b6002546001600160a01b0316331461118557604051638d1af8bd60e01b815260040160405180910390fd5b61118d611661565b6001600160a01b03821660009081526006602052604090205460ff166111c65760405163350b944160e11b815260040160405180910390fd5b806000036111e75760405163162908e360e11b815260040160405180910390fd5b6001600160a01b03821660009081526005602052604081205460ff16908160018111156112165761121661173f565b036113d8576003546040516370a0823160e01b81526001600160a01b03858116600483015260009216906370a0823190602401602060405180830381865afa158015611266573d6000803e3d6000fd5b505050506040513d601f19601f8201168201806040525081019061128a919061197e565b90508281106112fc5760035460405163f3fef3a360e01b81526001600160a01b039091169063f3fef3a3906112c59087908790600401611951565b600060405180830381600087803b1580156112df57600080fd5b505af11580156112f3573d6000803e3d6000fd5b505050506113d2565b600061130882856119d6565b60035460405163f3fef3a360e01b81529192506001600160a01b03169063f3fef3a39061133b9088908690600401611951565b600060405180830381600087803b15801561135557600080fd5b505af1158015611369573d6000803e3d6000fd5b50506004805460405163f3fef3a360e01b81526001600160a01b03909116935063f3fef3a3925061139e918991869101611951565b600060405180830381600087803b1580156113b857600080fd5b505af11580156113cc573d6000803e3d6000fd5b50505050505b506115ae565b60018160018111156113ec576113ec61173f565b036115ae57600480546040516370a0823160e01b81526001600160a01b0386811693820193909352600092909116906370a0823190602401602060405180830381865afa158015611441573d6000803e3d6000fd5b505050506040513d601f19601f82011682018060405250810190611465919061197e565b90508281106114d6576004805460405163f3fef3a360e01b81526001600160a01b039091169163f3fef3a39161149f918891889101611951565b600060405180830381600087803b1580156114b957600080fd5b505af11580156114cd573d6000803e3d6000fd5b505050506115ac565b60006114e282856119d6565b6004805460405163f3fef3a360e01b81529293506001600160a01b03169163f3fef3a391611514918991879101611951565b600060405180830381600087803b15801561152e57600080fd5b505af1158015611542573d6000803e3d6000fd5b505060035460405163f3fef3a360e01b81526001600160a01b03909116925063f3fef3a391506115789088908590600401611951565b600060405180830381600087803b15801561159257600080fd5b505af11580156115a6573d6000803e3d6000fd5b50505050505b505b60025460405163a9059cbb60e01b81526001600160a01b038581169263a9059cbb926115e292909116908690600401611951565b6020604051808303816000875af1158015611601573d6000803e3d6000fd5b505050506040513d601f19601f82011682018060405250810190611625919061192f565b50826001600160a01b03167f160fe0cc604b665554dd642ca246d28d4e9158d16008da789ab5b6462f59477783836040516105ff92919061196a565b60026001540361168457604051633ee5aeb560e01b815260040160405180910390fd5b6002600155565b6000546001600160a01b031633146109215760405163118cdaa760e01b8152336004820152602401611145565b600080546001600160a01b038381166001600160a01b0319831681178455604051919092169283917f8be0079c531659141344cd1fd0a4f28419497f9722a3daafe3b4186f6b6457e09190a35050565b80356001600160a01b038116811461171f57600080fd5b919050565b60006020828403121561173657600080fd5b610f3c82611708565b634e487b7160e01b600052602160045260246000fd5b6002811061177357634e487b7160e01b600052602160045260246000fd5b9052565b60208101610ac08284611755565b6000806040838503121561179857600080fd5b6117a183611708565b946020939093013593505050565b634e487b7160e01b600052604160045260246000fd5b600080604083850312156117d857600080fd5b6117e183611708565b9150602083013567ffffffffffffffff8111156117fd57600080fd5b8301601f8101851361180e57600080fd5b803567ffffffffffffffff811115611828576118286117af565b8060051b604051601f19603f830116810181811067ffffffffffffffff82111715611855576118556117af565b60405291825260208184018101929081018884111561187357600080fd5b6020850194505b838510156118995761188b85611708565b81526020948501940161187a565b50809450505050509250929050565b600080604083850312156118bb57600080fd5b6118c483611708565b91506020830135600281106118d857600080fd5b809150509250929050565b602080825282518282018190526000918401906040840190835b818110156119245783516001600160a01b03168352602093840193909201916001016118fd565b509095945050505050565b60006020828403121561194157600080fd5b81518015158114610f3c57600080fd5b6001600160a01b03929092168252602082015260400190565b82815260408101610f3c6020830184611755565b60006020828403121561199057600080fd5b5051919050565b634e487b7160e01b600052603260045260246000fd5b634e487b7160e01b600052601160045260246000fd5b80820180821115610ac057610ac06119ad565b81810381811115610ac057610ac06119ad56fea2646970667358221220360e0b832e0887a014506ec86b643be643af7358ec1fa09b453a5b6047684d8d64736f6c634300081c0033",
  "linkReferences": {},
  "deployedLinkReferences": {}
}