{
  "_format": "hh-sol-artifact-1",
  "contractName": "StrategyCompoundComet",
  "sourceName": "contracts/strategies/StrategyCompoundComet.sol",
  "abi": [
    {
      "inputs": [],
      "stateMutability": "nonpayable",
      "type": "constructor"
    },
    {
      "inputs": [],
      "name": "InvalidAddress",
      "type": "error"
    },
    {
      "inputs": [],
      "name": "InvalidAmount",
      "type": "error"
    },
    {
      "inputs": [],
      "name": "NoPoolForToken",
      "type": "error"
    },
    {
      "inputs": [
        {
          "internalType": "address",
          "name": "owner",
          "type": "address"
        }
      ],
      "name": "OwnableInvalidOwner",
      "type": "error"
    },
    {
      "inputs": [
        {
          "internalType": "address",
          "name": "account",
          "type": "address"
        }
      ],
      "name": "OwnableUnauthorizedAccount",
      "type": "error"
    },
    {
      "inputs": [],
      "name": "PoolSupportUnchanged",
      "type": "error"
    },
    {
      "inputs": [],
      "name": "ReentrancyGuardReentrantCall",
      "type": "error"
    },
    {
      "inputs": [
        {
          "internalType": "address",
          "name": "token",
          "type": "address"
        }
      ],
      "name": "SafeERC20FailedOperation",
      "type": "error"
    },
    {
      "inputs": [],
      "name": "SameCoordinator",
      "type": "error"
    },
    {
      "inputs": [],
      "name": "TokenSupportUnchanged",
      "type": "error"
    },
    {
      "inputs": [],
      "name": "UnsupportedToken",
      "type": "error"
    },
    {
      "inputs": [],
      "name": "UnsupportedTokenForPool",
      "type": "error"
    },
    {
      "anonymous": false,
      "inputs": [
        {
          "indexed": true,
          "internalType": "address",
          "name": "coordinator",
          "type": "address"
        }
      ],
      "name": "CoordinatorUpdated",
      "type": "event"
    },
    {
      "anonymous": false,
      "inputs": [
        {
          "indexed": true,
          "internalType": "address",
          "name": "market",
          "type": "address"
        },
        {
          "indexed": false,
          "internalType": "bool",
          "name": "status",
          "type": "bool"
        },
        {
          "indexed": true,
          "internalType": "address",
          "name": "token",
          "type": "address"
        }
      ],
      "name": "MarketSupportUpdated",
      "type": "event"
    },
    {
      "anonymous": false,
      "inputs": [
        {
          "indexed": true,
          "internalType": "address",
          "name": "previousOwner",
          "type": "address"
        },
        {
          "indexed": true,
          "internalType": "address",
          "name": "newOwner",
          "type": "address"
        }
      ],
      "name": "OwnershipTransferred",
      "type": "event"
    },
    {
      "anonymous": false,
      "inputs": [
        {
          "indexed": true,
          "internalType": "address",
          "name": "token",
          "type": "address"
        },
        {
          "indexed": false,
          "internalType": "bool",
          "name": "status",
          "type": "bool"
        }
      ],
      "name": "TokenSupportUpdated",
      "type": "event"
    },
    {
      "inputs": [
        {
          "internalType": "address",
          "name": "_token",
          "type": "address"
        }
      ],
      "name": "balanceOf",
      "outputs": [
        {
          "internalType": "uint256",
          "name": "",
          "type": "uint256"
        }
      ],
      "stateMutability": "view",
      "type": "function"
    },
    {
      "inputs": [],
      "name": "coordinator",
      "outputs": [
        {
          "internalType": "address",
          "name": "",
          "type": "address"
        }
      ],
      "stateMutability": "view",
      "type": "function"
    },
    {
      "inputs": [
        {
          "internalType": "address",
          "name": "_token",
          "type": "address"
        },
        {
          "internalType": "uint256",
          "name": "_amount",
          "type": "uint256"
        }
      ],
      "name": "deposit",
      "outputs": [],
      "stateMutability": "nonpayable",
      "type": "function"
    },
    {
      "inputs": [
        {
          "internalType": "address",
          "name": "_token",
          "type": "address"
        }
      ],
      "name": "getCurrentAPY",
      "outputs": [
        {
          "internalType": "uint256",
          "name": "apy",
          "type": "uint256"
        }
      ],
      "stateMutability": "view",
      "type": "function"
    },
    {
      "inputs": [],
      "name": "owner",
      "outputs": [
        {
          "internalType": "address",
          "name": "",
          "type": "address"
        }
      ],
      "stateMutability": "view",
      "type": "function"
    },
    {
      "inputs": [],
      "name": "renounceOwnership",
      "outputs": [],
      "stateMutability": "nonpayable",
      "type": "function"
    },
    {
      "inputs": [
        {
          "internalType": "address",
          "name": "_coordinator",
          "type": "address"
        }
      ],
      "name": "setCoordinator",
      "outputs": [],
      "stateMutability": "nonpayable",
      "type": "function"
    },
    {
      "inputs": [
        {
          "internalType": "address",
          "name": "",
          "type": "address"
        }
      ],
      "name": "supportedMarkets",
      "outputs": [
        {
          "internalType": "bool",
          "name": "",
          "type": "bool"
        }
      ],
      "stateMutability": "view",
      "type": "function"
    },
    {
      "inputs": [
        {
          "internalType": "address",
          "name": "",
          "type": "address"
        }
      ],
      "name": "supportedTokens",
      "outputs": [
        {
          "internalType": "bool",
          "name": "",
          "type": "bool"
        }
      ],
      "stateMutability": "view",
      "type": "function"
    },
    {
      "inputs": [
        {
          "internalType": "address",
          "name": "",
          "type": "address"
        }
      ],
      "name": "tokenToComet",
      "outputs": [
        {
          "internalType": "contract IComet",
          "name": "",
          "type": "address"
        }
      ],
      "stateMutability": "view",
      "type": "function"
    },
    {
      "inputs": [
        {
          "internalType": "address",
          "name": "newOwner",
          "type": "address"
        }
      ],
      "name": "transferOwnership",
      "outputs": [],
      "stateMutability": "nonpayable",
      "type": "function"
    },
    {
      "inputs": [
        {
          "internalType": "address",
          "name": "_market",
          "type": "address"
        },
        {
          "internalType": "address",
          "name": "_token",
          "type": "address"
        },
        {
          "internalType": "bool",
          "name": "_status",
          "type": "bool"
        }
      ],
      "name": "updateMarketSupport",
      "outputs": [],
      "stateMutability": "nonpayable",
      "type": "function"
    },
    {
      "inputs": [
        {
          "internalType": "address",
          "name": "_token",
          "type": "address"
        },
        {
          "internalType": "bool",
          "name": "_status",
          "type": "bool"
        }
      ],
      "name": "updateTokenSupport",
      "outputs": [],
      "stateMutability": "nonpayable",
      "type": "function"
    },
    {
      "inputs": [
        {
          "internalType": "address",
          "name": "_token",
          "type": "address"
        },
        {
          "internalType": "uint256",
          "name": "_amount",
          "type": "uint256"
        }
      ],
      "name": "withdraw",
      "outputs": [],
      "stateMutability": "nonpayable",
      "type": "function"
    }
  ],
  "bytecode": "0x6080604052348015600f57600080fd5b50600180553380603957604051631e4fbdf760e01b81526000600482015260240160405180910390fd5b6040816045565b506097565b600280546001600160a01b038381166001600160a01b0319831681179093556040519116919082907f8be0079c531659141344cd1fd0a4f28419497f9722a3daafe3b4186f6b6457e090600090a35050565b61109f806100a66000396000f3fe608060405234801561001057600080fd5b50600436106100ea5760003560e01c8063715018a61161008c5780638ea98117116100665780638ea9811714610213578063a8bb832e14610226578063f2fde38b14610239578063f3fef3a31461024c57600080fd5b8063715018a6146101e75780637b4c9274146101ef5780638da5cb5b1461020257600080fd5b806326e46ed3116100c857806326e46ed31461016757806347e7ef241461019057806368c4ac26146101a357806370a08231146101c657600080fd5b80630a009097146100ef5780630fc86d9a1461011f57806320761fc414610134575b600080fd5b600054610102906001600160a01b031681565b6040516001600160a01b0390911681526020015b60405180910390f35b61013261012d366004610eb7565b61025f565b005b610157610142366004610f02565b60046020526000908152604090205460ff1681565b6040519015158152602001610116565b610102610175366004610f02565b6005602052600090815260409020546001600160a01b031681565b61013261019e366004610f1f565b61045c565b6101576101b1366004610f02565b60036020526000908152604090205460ff1681565b6101d96101d4366004610f02565b610648565b604051908152602001610116565b6101326106cc565b6101326101fd366004610f4b565b6106e0565b6002546001600160a01b0316610102565b610132610221366004610f02565b61082c565b6101d9610234366004610f02565b6108d2565b610132610247366004610f02565b610a3d565b61013261025a366004610f1f565b610a7b565b610267610cd7565b6001600160a01b038316158061028457506001600160a01b038216155b156102a25760405163e6c4247b60e01b815260040160405180910390fd5b6001600160a01b03831660009081526004602052604090205481151560ff9091161515036102e3576040516315d8c27160e11b815260040160405180910390fd5b6001600160a01b0383166000908152600460205260409020805460ff191682158015919091179091556103e15760008390506000816001600160a01b031663c55dae636040518163ffffffff1660e01b8152600401602060405180830381865afa158015610355573d6000803e3d6000fd5b505050506040513d601f19601f820116820180604052508101906103799190610f84565b9050836001600160a01b0316816001600160a01b0316146103ad5760405163086ed55760e31b815260040160405180910390fd5b506001600160a01b0380841660009081526005602052604090208054919092166001600160a01b0319909116179055610408565b6001600160a01b038216600090815260056020526040902080546001600160a01b03191690555b816001600160a01b0316836001600160a01b03167fd46e5da37297353380908e1f682b65829e178962be8fea3b349908e2d3e63f8f8360405161044f911515815260200190565b60405180910390a3505050565b6000546001600160a01b031633146104ae5760405162461bcd60e51b815260206004820152601060248201526f27b7363c9021b7b7b93234b730ba37b960811b60448201526064015b60405180910390fd5b6104b6610d04565b6001600160a01b03821660009081526003602052604090205460ff166104ef5760405163350b944160e11b815260040160405180910390fd5b806000036105105760405163162908e360e11b815260040160405180910390fd5b6001600160a01b0380831660009081526005602052604090205416806105495760405163082ac68b60e21b815260040160405180910390fd5b600054610564906001600160a01b0385811691163085610d2e565b60405163095ea7b360e01b81526001600160a01b0382811660048301526024820184905284169063095ea7b3906044016020604051808303816000875af11580156105b3573d6000803e3d6000fd5b505050506040513d601f19601f820116820180604052508101906105d79190610fa1565b50604051631e573fb760e31b81526001600160a01b0384811660048301526024820184905282169063f2b9fdb890604401600060405180830381600087803b15801561062257600080fd5b505af1158015610636573d6000803e3d6000fd5b505050505061064460018055565b5050565b6001600160a01b038181166000908152600560205260408082205490516370a0823160e01b81523060048201529192169081906370a0823190602401602060405180830381865afa1580156106a1573d6000803e3d6000fd5b505050506040513d601f19601f820116820180604052508101906106c59190610fbe565b9392505050565b6106d4610cd7565b6106de6000610d9b565b565b6106e8610cd7565b6001600160a01b03821661070f5760405163e6c4247b60e01b815260040160405180910390fd5b6001600160a01b03821660009081526003602052604090205481151560ff909116151503610750576040516359b0f88360e01b815260040160405180910390fd5b80801561077557506001600160a01b0382811660009081526005602052604090205416155b156107935760405163082ac68b60e21b815260040160405180910390fd5b6001600160a01b0382166000908152600360205260409020805460ff1916821515179055806107e3576001600160a01b038216600090815260056020526040902080546001600160a01b03191690555b816001600160a01b03167fbbe72b7d9dcb594ee398a4a617885aba53d833e2aad601c813ce9df99fdeb49b82604051610820911515815260200190565b60405180910390a25050565b610834610cd7565b6001600160a01b03811661085b5760405163e6c4247b60e01b815260040160405180910390fd5b6000546001600160a01b039081169082160361088a5760405163028e888760e11b815260040160405180910390fd5b600080546001600160a01b0319166001600160a01b038316908117825560405190917fc258faa9a17ddfdf4130b4acff63a289202e7d5f9e42f366add65368575486bc91a250565b6001600160a01b03811660009081526003602052604081205460ff166108fa57506000919050565b6001600160a01b0380831660009081526005602052604090205416806109235750600092915050565b6000816001600160a01b0316637eb711316040518163ffffffff1660e01b8152600401602060405180830381865afa158015610963573d6000803e3d6000fd5b505050506040513d601f19601f820116820180604052508101906109879190610fbe565b60405163d955759d60e01b8152600481018290529091506000906001600160a01b0384169063d955759d90602401602060405180830381865afa1580156109d2573d6000803e3d6000fd5b505050506040513d601f19601f820116820180604052508101906109f69190610fd7565b90506301e133806000670de0b6b3a7640000610a1c8367ffffffffffffffff8616611017565b610a2890612710611017565b610a329190611034565b979650505050505050565b610a45610cd7565b6001600160a01b038116610a6f57604051631e4fbdf760e01b8152600060048201526024016104a5565b610a7881610d9b565b50565b6000546001600160a01b03163314610ac85760405162461bcd60e51b815260206004820152601060248201526f27b7363c9021b7b7b93234b730ba37b960811b60448201526064016104a5565b610ad0610d04565b6001600160a01b03821660009081526003602052604090205460ff16610b095760405163350b944160e11b815260040160405180910390fd5b80600003610b2a5760405163162908e360e11b815260040160405180910390fd5b6001600160a01b038083166000908152600560205260409020541680610b635760405163082ac68b60e21b815260040160405180910390fd5b6040516370a0823160e01b81523060048201526000906001600160a01b038516906370a0823190602401602060405180830381865afa158015610baa573d6000803e3d6000fd5b505050506040513d601f19601f82011682018060405250810190610bce9190610fbe565b60405163f3fef3a360e01b81526001600160a01b038681166004830152602482018690529192509083169063f3fef3a390604401600060405180830381600087803b158015610c1c57600080fd5b505af1158015610c30573d6000803e3d6000fd5b50506040516370a0823160e01b8152306004820152600092506001600160a01b03871691506370a0823190602401602060405180830381865afa158015610c7b573d6000803e3d6000fd5b505050506040513d601f19601f82011682018060405250810190610c9f9190610fbe565b90506000610cad8383611056565b600054909150610cca906001600160a01b03888116911683610ded565b5050505061064460018055565b6002546001600160a01b031633146106de5760405163118cdaa760e01b81523360048201526024016104a5565b600260015403610d2757604051633ee5aeb560e01b815260040160405180910390fd5b6002600155565b6040516001600160a01b038481166024830152838116604483015260648201839052610d959186918216906323b872dd906084015b604051602081830303815290604052915060e01b6020820180516001600160e01b038381831617835250505050610e23565b50505050565b600280546001600160a01b038381166001600160a01b0319831681179093556040519116919082907f8be0079c531659141344cd1fd0a4f28419497f9722a3daafe3b4186f6b6457e090600090a35050565b6040516001600160a01b03838116602483015260448201839052610e1e91859182169063a9059cbb90606401610d63565b505050565b600080602060008451602086016000885af180610e46576040513d6000823e3d81fd5b50506000513d91508115610e5e578060011415610e6b565b6001600160a01b0384163b155b15610d9557604051635274afe760e01b81526001600160a01b03851660048201526024016104a5565b6001600160a01b0381168114610a7857600080fd5b8015158114610a7857600080fd5b600080600060608486031215610ecc57600080fd5b8335610ed781610e94565b92506020840135610ee781610e94565b91506040840135610ef781610ea9565b809150509250925092565b600060208284031215610f1457600080fd5b81356106c581610e94565b60008060408385031215610f3257600080fd5b8235610f3d81610e94565b946020939093013593505050565b60008060408385031215610f5e57600080fd5b8235610f6981610e94565b91506020830135610f7981610ea9565b809150509250929050565b600060208284031215610f9657600080fd5b81516106c581610e94565b600060208284031215610fb357600080fd5b81516106c581610ea9565b600060208284031215610fd057600080fd5b5051919050565b600060208284031215610fe957600080fd5b815167ffffffffffffffff811681146106c557600080fd5b634e487b7160e01b600052601160045260246000fd5b808202811582820484141761102e5761102e611001565b92915050565b60008261105157634e487b7160e01b600052601260045260246000fd5b500490565b8181038181111561102e5761102e61100156fea2646970667358221220ff05eccc847ec83fcafd277f71afdd77a7249c985970c1076d0c27b030bd7c2164736f6c634300081c0033",
  "linkReferences": {},
  "deployedLinkReferences": {}
}